:100000000C9435000C945D000C945D000C945D0024
:100010000C945D000C945D000C945D000C945D00EC
:100020000C945D000C945D000C945D000C945D00DC
:100030000C945D000C945D000C945D000C945D00CC
:100040000C948C040C945D000C94B6060C949006F1
:100050000C945D000C945D000C945D000C945D00AC
:100060000C945D000C945D00E80611241FBECFEFD8
:10007000D8E0DEBFCDBF11E0A0E0B1E0E8E2F5E1FD
:1000800002C005900D92A434B107D9F723E0A4E48F
:10009000B1E001C01D92AC31B207E1F710E0C5E359
:1000A000D0E004C02197FE010E943B0AC433D1076F
:1000B000C9F70E9436070C94920A0C940000FC01C8
:1000C000918D828D981761F0828DDF01A80FB11D8F
:1000D0005D968C91928D9F5F9F73928F90E00895B3
:1000E0008FEF9FEF0895FC01918D828D981731F06D
:1000F000828DE80FF11D858D90E008958FEF9FEFC1
:100100000895FC01918D228D892F90E0805C9F4F96
:10011000821B91098F739927089580E090E0892BC5
:1001200029F00E94010581110C9400000895EF92BE
:10013000FF920F931F93CF93DF93EC0190914501B2
:100140009F5F292F27702093450190FF02C090E800
:1001500001C090E021FD9064247009F0906220E1DC
:10016000290FFE013C967E018FE0E80EF11C00E0B5
:1001700011E06191662331F070E0C8010E94ED0941
:100180006F5F01C060E0DF0114976C93322F369FE0
:10019000030E30E0311D1124CF010797311103C048
:1001A000EC01188203C03150EC013883662311F052
:1001B00061506C93EE15FF05E1F6DF91CF911F9131
:1001C0000F91FF90EF90089580E991E00895539A80
:1001D00008950F931F93CF93DF93CDB7DEB7629748
:1001E0000FB6F894DEBF0FBECDBF8C01F901DC0164
:1001F0001C968C917A8369835C834B835E834D83E9
:1002000090819D8791819E8792819F87813029F47B
:10021000CE0101960E94970006C01C861B861A8696
:10022000198618861F8283E0888B1A8A198AD8015A
:10023000ED91FC910484F585E02DBE016F5F7F4F49
:10024000C801099562960FB6F894DEBF0FBECDBF08
:10025000DF91CF911F910F9108950F931F93CF932B
:10026000DF93CDB7DEB762970FB6F894DEBF0FBE4F
:10027000CDBF8C01F901DC011C968C917A836983D6
:100280005C834B835E834D8390819D8791819E87A4
:1002900092819F87813029F4CE0101960E949700B8
:1002A00006C01C861B861A86198618861F82188A25
:1002B0001A8A198AD801ED91FC910484F585E02D04
:1002C000BE016F5F7F4FC801099562960FB6F89423
:1002D000DEBF0FBECDBFDF91CF911F910F9108956B
:1002E00080E090E00895FC01858596850895CF9380
:1002F000DF9300D000D000D0CDB7DEB7AB011C82B9
:100300001D821E82DC01ED91FC910190F081E02DB7
:1003100019821A821B829E012F5F3F4FBE016C5FC4
:100320007F4F099526960FB6F894DEBF0FBECDBF5E
:10033000DF91CF9108950E94410AFC01848DDF0175
:10034000A80FB11DA35ABF4F2C91848D90E0019648
:100350008F739927848FA689B7892C93A089B18937
:100360008C9180648C93938D848D981306C0028841
:10037000F389E02D80818F7D808308958E3008F091
:100380008E508770806480937C0080917A008064B6
:1003900080937A0080917A0086FDFCCF809178006E
:1003A0002091790090E0922B08953FB7F8948091C6
:1003B0004B0190914C01A0914D01B0914E0126B599
:1003C000A89B05C02F3F19F00196A11DB11D3FBF8D
:1003D000BA2FA92F982F8827820F911DA11DB11D1B
:1003E000BC01CD0142E0660F771F881F991F4A9517
:1003F000D1F708958F929F92AF92BF92CF92DF92E2
:10040000EF92FF926B017C010E94D5014B015C01D0
:10041000C114D104E104F104F1F00E94D501DC0122
:10042000CB0188199909AA09BB09883E9340A10507
:10043000B10570F321E0C21AD108E108F10888EE95
:10044000880E83E0981EA11CB11CC114D104E104E4
:10045000F10419F7DDCFFF90EF90DF90CF90BF90C0
:10046000AF909F908F9008954F925F926F927F927E
:100470008F92AF92BF92CF92EF92FF920F931F9302
:10048000CF93DF933C01EB010E94D501F301278557
:100490003089621B730B6A307105B0F3F894E88100
:1004A000F9815BB158608BB1877F8BB969859E817B
:1004B000262F291B922F2E83BF844A805B807C8548
:1004C000FD84EE847F5FF394E3943F814885AA84A2
:1004D000CB841081D20120E0C32F022F322F308134
:1004E000112788943111390F08F43FEF91958894C2
:1004F00070FD130F1795889471FD130F179588944D
:1005000072FD130F1795889473FD130F1795889438
:1005100074FD130F1795889475FD130F1795889424
:1005200076FD130F1795889477FD130F1795889410
:10053000232F7111212F960F122F002C5BB900C0B1
:1005400000C017FF8BB931812227889400C0002C8E
:100550008BB931113C0F00C0002C5BB900C000C04A
:1005600016FF8BB908F43FEFC195889400C0002CAA
:100570008BB9F0FC230F00C0002C5BB900C000C099
:1005800015FF8BB927958894F1FC230F00C0002C30
:100590008BB92795889400C0002C5BB900C000C0BF
:1005A00014FF8BB9F2FC230F2795889400C0002C10
:1005B0008BB9F3FC230F00C0002C5BB900C000C056
:1005C00013FF8BB927958894F4FC230F00C0002CEF
:1005D0008BB92795889400C0002C5BB900C000C07F
:1005E00012FF8BB9F5FC230F2795889400C0002CCF
:1005F0008BB9F6FC230F00C0002C5BB900C000C013
:1006000011FF8BB927958894F7FC230F00C0002CAD
:100610008BB92795889400C0002C5BB900C000C03E
:1006200010FF8BB9132FF110122FCA0D00C0002C30
:100630008BB900C000C0002C5BB900C000C017FF20
:100640008BB932812227889400C0002C8BB93111DC
:10065000340F00C0002C5BB900C000C016FF8BB97E
:1006600008F43FEFEB0DF11D00C0002C8BB9E0FC4E
:10067000230F00C0002C5BB900C000C015FF8BB970
:1006800027958894E1FC230F00C0002C8BB9279597
:10069000889400C0002C5BB900C000C014FF8BB967
:1006A000E2FC230F2795889400C0002C8BB9E3FC53
:1006B000230F00C0002C5BB900C000C013FF8BB932
:1006C00027958894E4FC230F00C0002C8BB9279554
:1006D000889400C0002C5BB900C000C012FF8BB929
:1006E000E5FC230F2795889400C0002C8BB9E6FC0D
:1006F000230F00C0002C5BB900C000C011FF8BB9F4
:1007000027958894E7FC230F00C0002C8BB9279510
:10071000889400C0002C5BB900C000C010FF8BB9EA
:10072000132FE110122F419500C0002C8BB94C0DF6
:1007300000C000C05BB900C000C017FF8BB930819A
:100740002227889400C0002C8BB93111390F00C0CA
:10075000002C5BB900C000C016FF8BB908F43FEF56
:100760009195889400C0002C8BB970FD230F00C0B8
:10077000002C5BB900C000C015FF8BB92795889489
:1007800071FD230F00C0002C8BB92795889400C001
:10079000002C5BB900C000C014FF8BB972FD230FA1
:1007A0002795889400C0002C8BB973FD230F00C0DF
:1007B000002C5BB900C000C013FF8BB9279588944B
:1007C00074FD230F00C0002C8BB92795889400C0BE
:1007D000002C5BB900C000C012FF8BB975FD230F60
:1007E0002795889400C0002C8BB976FD230F00C09C
:1007F000002C5BB900C000C011FF8BB9279588940D
:1008000077FD230F00C0002C8BB92795889400C07A
:10081000002C5BB900C000C010FF8BB9132F711101
:10082000122F960F00C0002C8BB9119709F086CEBD
:1008300020EE31E0D2010E94200ADC01CB01F4E07D
:10084000B695A79597958795FA95D1F720E030E072
:10085000A9016AE9469E412D569E400D511D112465
:10086000840F951FA11DB11D893E43E09407A1058A
:10087000B10588F1885E9340A109B10942E0B695BF
:10088000A795979587954A95D1F747E0849F212DA5
:10089000949F200D311D11246091440170E0860F5A
:1008A000971F820F931F409147015091480160911B
:1008B000490170914A01292F3327420F531F611DAF
:1008C000711D409347015093480160934901709313
:1008D0004A018093440178940E94D501F301708B02
:1008E0006787DF91CF911F910F91FF90EF90CF908D
:1008F000BF90AF908F907F906F905F904F900895D2
:100900002FB7F89460914701709148018091490197
:1009100090914A012FBF08951F920F920FB60F9228
:1009200011242F933F938F939F93AF93BF93809105
:10093000470190914801A0914901B0914A0130913D
:10094000460123E0230F2D3720F40196A11DB11D90
:1009500005C026E8230F0296A11DB11D2093460174
:100960008093470190934801A0934901B0934A01B5
:1009700080914B0190914C01A0914D01B0914E019D
:100980000196A11DB11D80934B0190934C01A09342
:100990004D01B0934E01BF91AF919F918F913F91C7
:1009A0002F910F900FBE0F901F901895CF92DF924E
:1009B000EF92FF920F931F93CF93DF936C017A0115
:1009C0008B01C0E0D0E0CE15DF0589F0D8016D9134
:1009D0008D01D601ED91FC910190F081E02DC601D1
:1009E0000995892B11F47E0102C02196ECCFC70135
:1009F000DF91CF911F910F91FF90EF90DF90CF90FB
:100A000008958AE292E00E94810021E0892B09F496
:100A100020E0822F08953F924F925F926F927F92D3
:100A20008F929F92AF92BF92CF92DF92EF92FF92FE
:100A30000F931F93CF93DF9300D01F92CDB7DEB7F4
:100A4000F82E8091120390911303A0911403B0919A
:100A50001503892B8A2B8B2BE9F00E94D50100917D
:100A60002602109127022091280230912902DC01F0
:100A7000CB01801B910BA20BB30B009112031091C1
:100A80001303209114033091150380179107A207D7
:100A9000B307B8F20E94D501609326027093270233
:100AA0008093280290932902E0911A03F0911B038E
:100AB000309759F040911603509117036091180335
:100AC000709119038F2D0995F82E00912402109131
:100AD00025024F2C512C612C712C0115110509F4A4
:100AE00061C0D8011C96EC901C97809110039091E6
:100AF00011038436910510F41C961C92D801ED91D7
:100B0000FC91A280B38019821A821B82F11014C05A
:100B1000F80145855685628173819E012F5F3F4FA5
:100B2000C801F5010995D8011C96EC921C97149602
:100B30000D911C911597D1CFF8013996CE010196F0
:100B40006C0148019CE0890E911CDF0113973C90D9
:100B50002191332001F12223F1F0822F90E0A0E0D7
:100B6000B0E09C01AD012F5F3F4F4F4F5F4FC3017E
:100B7000B2010E94460A9B01AC01832D90E0A0E0E7
:100B8000B0E0BC01CD016F5F7F4F8F4F9F4F0E9440
:100B9000460AD6018C93BFEFCB1ADB0AE815F9059C
:100BA000A1F6B6CF80912202909123028C010F5FB3
:100BB0001F4F109323020093220249979CF10E9439
:100BC00080044B015C0188EE93E0089FB001099F0F
:100BD000700D189F700D1124072E000C880B990BB7
:100BE000C0901E02D0901F02E0902002F0902102DF
:100BF000A50194012C193D094E095F090E94560A6E
:100C000030931103209310031092230210922202BA
:100C10000E94800460931E0270931F028093200242
:100C2000909321020F900F900F90DF91CF911F9121
:100C30000F91FF90EF90DF90CF90BF90AF909F907B
:100C40008F907F906F905F904F903F900895EF92BC
:100C5000FF920F931F93CF93DF93EC0181E0888F76
:100C60009B8D8C8D981305C0E889F989808185FD5D
:100C700024C0F62E0B8D10E00F5F1F4F0F7311274E
:100C8000E02E8C8DE8120CC00FB607FCFACFE88975
:100C9000F989808185FFF5CFCE010E949D01F1CFBA
:100CA0008B8DFE01E80FF11DE35AFF4FF0820B8F91
:100CB000EA89FB898081806207C0EE89FF896083B1
:100CC000E889F98980818064808381E090E0DF9108
:100CD000CF911F910F91FF90EF900895CF93DF93E5
:100CE000EC01888D8823C9F0EA89FB89808185FD24
:100CF00005C0A889B9898C9186FD0FC00FB607FC85
:100D0000F5CF808185FFF2CFA889B9898C9185FFC5
:100D1000EDCFCE010E949D01E7CFDF91CF910895E5
:100D20001F920F920FB60F9211242F933F934F9360
:100D30005F936F937F938F939F93AF93BF93EF9343
:100D4000FF938AE292E00E949D01FF91EF91BF9193
:100D5000AF919F918F917F916F915F914F913F9153
:100D60002F910F900FBE0F901F9018951F920F920A
:100D70000FB60F9211242F938F939F93EF93FF93AE
:100D8000E0913A02F0913B028081E0914002F091C3
:100D9000410282FD12C09081809143028F5F8F7368
:100DA00020914402821751F0E0914302F0E0E65DA9
:100DB000FD4F958F8093430201C08081FF91EF9199
:100DC0009F918F912F910F900FBE0F901F901895AC
:100DD000EAE2F2E01382128288EE93E0A0E0B0E053
:100DE00084839583A683B78386E291E09183808391
:100DF00085EC90E09587848784EC90E097878687E0
:100E000080EC90E0918B808B81EC90E0938B828BD7
:100E100082EC90E0958B848B86EC90E0978B868BB0
:100E2000118E128E138E148EE7ECF2E0168217826A
:100E300010861186128613861486158616861786E6
:100E4000108A118A128A138A148A158AEFE0F3E055
:100E50008FEF808312821182148613868FEF9FEFAB
:100E6000DC0187839087A187B2870895789484B541
:100E7000826084BD84B5816084BD85B5826085BD96
:100E800085B5816085BD80916E00816080936E0024
:100E90001092810080918100826080938100809116
:100EA00081008160809381008091800081608093C7
:100EB00080008091B10084608093B1008091B00087
:100EC00081608093B00080917A00846080937A0082
:100ED00080917A00826080937A0080917A008160AC
:100EE00080937A0080917A00806880937A001092D3
:100EF000C10010920B0310920C0310920D0310927C
:100F00000E031092C9021092CA021092CB021092E4
:100F1000CC0260ED77E080E090E00E94FA018AE286
:100F200092E090930A0380930903E0913A02F091D2
:100F30003B0282E08083E0913602F091370210821A
:100F4000E0913802F091390280E1808310924202F0
:100F5000E0913E02F0913F0286E08083E0913C0206
:100F6000F0913D02808180618083E0913C02F091AC
:100F70003D02808188608083E0913C02F0913D02D7
:100F8000808180688083E0913C02F0913D02808105
:100F90008F7D80830E9480046093C9027093CA028F
:100FA0008093CB029093CC028091090390910A0325
:100FB000DC01ED91FC910280F381E02D41E150E0F4
:100FC00062E371E009956AE070E080E090E00E94E1
:100FD000FA0191E09093DD0280917301811144C088
:100FE00010926501109264018FEF809368018093E5
:100FF000690180936A0180936B0180936C018093F7
:101000006D0190936E011092700110926F01109219
:101010006701109266018091240290912502892B2C
:1010200031F482E691E09093250280932402E091CE
:101030006001F0916101309721F082E691E09583A3
:10104000848382E691E09093610180936001109225
:1010500072011092710184E191E090936301809399
:10106000620181E080937301E0916201F09163017C
:101070000480F581E02D82E691E0099588E891E011
:10108000909365018093640182E390E090937001F6
:1010900080936F01E0916201F09163010284F38516
:1010A000E02D82E691E00995009729F19C0140E04E
:1010B00050E060E472E48FE090E00E94010A722F39
:1010C000632F0091120310911303209114033091A8
:1010D0001503872F962FDA0180179107A207B30710
:1010E00010F4D901C8018093120390931303A093C5
:1010F0001403B093150387E893E190935001809314
:101100004F0184E690E09093520180935101109238
:101110005301109254018FEF809355018FEF90E0AF
:1011200090935701809356018FEF9FEF9093590151
:101130008093580182E090E090935B0180935A0184
:1011400088E891E090935D0180935C01412C92E0EE
:10115000592E24E6E22EF12C38EC632E712C81E01E
:101160000E94BE01EC0190937F0180937E0180E09C
:101170000E94BE01FC0190937D0180937C0120912F
:101180004F0130915001C132B2E0DB077CF0CE015B
:10119000925069E170E00E94ED09260F371F20315F
:1011A00047E23407A4F02FE037E211C0C03E81E0EF
:1011B000D8078CF4C2018C1B9D0B67EE7FEF0E9459
:1011C000ED09260F371F37FF02C020E030E03093D3
:1011D000500120934F0180917B01811125C0209106
:1011E000510130915201E132A2E0FA0754F0253268
:1011F000B3E13B071CF42C593F4F0EC028E833E104
:101200000BC0E03EF140FCF4283C31051CF02456B4
:10121000310902C024E630E030935201209351019D
:1012200081E080937B010FC0E13082E0F80724F079
:10123000E032F24034F007C0C2018E1B9F0B809752
:1012400014F410927B01C0904F01D0905001A090F7
:101250005101B0905201C6018A199B0997FF02C043
:1012600080E090E0B3010E94ED09E62F472F6093E4
:10127000860170938701C6018A0D9B1D8031B7E2FC
:101280009B0714F08FE097E2B3010E94ED098B01F8
:101290000E5F1F4F10938501009384012091800100
:1012A00030918101CE2FD42FFE01EE0FFF1FEC0FE6
:1012B000FD1F329680915C0190915D01E80FF91F4E
:1012C00048EC4C9FC0014D9F900D11244C018C188F
:1012D0009D08C12CD12C150184E6280E311CC017A5
:1012E000D1070CF045C0C601880D991D97FF03C0BA
:1012F0009195819591099101281B390B253631056E
:1013000014F024E630E037FF02C020E030E05F0157
:10131000A2E0AA1AB10840915301429FC001439F25
:10132000900D1124B7010E94ED09D5016C935F0166
:10133000B1E0AB1AB10840915401429FC001439FF4
:10134000900D1124B7010E94ED09D5016C934091D5
:101350005501429FC001439F900D1124B7010E9487
:10136000ED09608321963396B8ECCB0ED11CB7CF34
:10137000D0938301C0938201309381012093800137
:1013800080910F030E940B050E9480045B016C0199
:1013900061E070E080E090E00E94FA0180910F032C
:1013A0000E940B050E948004DC01CB018A199B0975
:1013B000AC09BD094497A105B10550F380E090E068
:1013C000FC01E857FE4F1082118212820396863983
:1013D0009105B1F70E948D00C2CE97FB072E16F43F
:1013E000009407D077FD09D00E94270A07FC05D09A
:1013F0003EF4909581959F4F0895709561957F4F2C
:101400000895052E97FB1EF400940E94180A57FDBC
:1014100007D00E94560A07FC03D04EF40C94180A19
:1014200050954095309521953F4F4F4F5F4F089510
:1014300090958095709561957F4F8F4F9F4F089540
:101440000E94830AB7FF0895821B930B0895AA1B7D
:10145000BB1B51E107C0AA1FBB1FA617B70710F09F
:10146000A61BB70B881F991F5A95A9F780959095D1
:10147000BC01CD010895EE0FFF1F0590F491E02D02
:10148000099481E090E0F8940C94920ADB018F9328
:101490009F930E94780ABF91AF91A29F800D911DEA
:1014A000A39F900DB29F900D11240895A1E21A2ED2
:1014B000AA1BBB1BFD010DC0AA1FBB1FEE1FFF1FF8
:1014C000A217B307E407F50720F0A21BB30BE40B48
:1014D000F50B661F771F881F991F1A9469F760958F
:1014E0007095809590959B01AC01BD01CF01089549
:1014F0000E94830AA59F900DB49F900DA49F800D1C
:10150000911D11240895A29FB001B39FC001A39F14
:10151000700D811D1124911DB29F700D811D11242C
:08152000911D0895F894FFCF1E
:10152800000000009B019B019B0177017301700182
:10153800000000002D01E900E70077017301E400D5
:101548003402000000002706D60481005F00730003
:101558006E06564D4450565F317C315F564D4450AF
:04156800560D0A0012
:107E0000112484B714BE81FFF0D085E080938100F7
:107E100082E08093C00088E18093C10086E0809377
:107E2000C20080E18093C4008EE0C9D0259A86E02C
:107E300020E33CEF91E0309385002093840096BBD3
:107E4000B09BFECF1D9AA8958150A9F7CC24DD24C4
:107E500088248394B5E0AB2EA1E19A2EF3E0BF2EE7
:107E6000A2D0813461F49FD0082FAFD0023811F036
:107E7000013811F484E001C083E08DD089C08234E0
:107E800011F484E103C0853419F485E0A6D080C0E4
:107E9000853579F488D0E82EFF2485D0082F10E0AE
:107EA000102F00270E291F29000F111F8ED06801E7
:107EB0006FC0863521F484E090D080E0DECF843638
:107EC00009F040C070D06FD0082F6DD080E0C81688
:107ED00080E7D80618F4F601B7BEE895C0E0D1E017
:107EE00062D089930C17E1F7F0E0CF16F0E7DF06D8
:107EF00018F0F601B7BEE89568D007B600FCFDCFD4
:107F0000A601A0E0B1E02C9130E011968C91119780
:107F100090E0982F8827822B932B1296FA010C0160
:107F200087BEE89511244E5F5F4FF1E0A038BF0790
:107F300051F7F601A7BEE89507B600FCFDCF97BE46
:107F4000E89526C08437B1F42ED02DD0F82E2BD052
:107F50003CD0F601EF2C8F010F5F1F4F84911BD097
:107F6000EA94F801C1F70894C11CD11CFA94CF0C13
:107F7000D11C0EC0853739F428D08EE10CD085E9AC
:107F80000AD08FE07ACF813511F488E018D01DD067
:107F900080E101D065CF982F8091C00085FFFCCF94
:107FA0009093C60008958091C00087FFFCCF809118
:107FB000C00084FD01C0A8958091C6000895E0E648
:107FC000F0E098E1908380830895EDDF803219F02E
:107FD00088E0F5DFFFCF84E1DECF1F93182FE3DFCA
:107FE0001150E9F7F2DF1F91089580E0E8DFEE27F6
:047FF000FF270994CA
:027FFE00040479
:0400000300007E007B
:00000001FF