:100000000C9435000C945D000C945D000C945D0024
:100010000C945D000C945D000C945D000C945D00EC
:100020000C945D000C945D000C945D000C945D00DC
:100030000C945D000C945D000C945D000C945D00CC
:100040000C941A040C945D000C946F050C944905F3
:100050000C945D000C945D000C945D000C945D00AC
:100060000C945D000C945D00420E11241FBECFEF76
:10007000D8E0DEBFCDBF11E0A0E0B1E0E4EFF2E2F6
:1000800002C005900D92AA37B107D9F723E0AAE77D
:10009000B1E001C01D92A635B207E1F710E0C5E35B
:1000A000D0E004C02197FE010E94DE0EC433D107C8
:1000B000C9F70E94D2080C9478110C940000EF92BA
:1000C000FF920F931F93CF93DF93EC0190917B01ED
:1000D0009F5F292F277020937B0190FF02C090E83B
:1000E00001C090E021FD9064247009F0906220E14D
:1000F000290FFE013C967E018FE0E80EF11C00E026
:1001000011E06191662331F070E0C8010E94900E09
:100110006F5F01C060E0DF0114976C93322F369F50
:10012000030E30E0311D1124CF010797311103C0B8
:10013000EC01188203C03150EC013883662311F0C2
:1001400061506C93EE15FF05E1F6DF91CF911F91A1
:100150000F91FF90EF90089580E991E00895539AF0
:1001600008950F931F93CF93DF93CDB7DEB76297B8
:100170000FB6F894DEBF0FBECDBF8C01F901DC01D4
:100180001C968C917A8369835C834B835E834D8359
:1001900090819D8791819E8792819F87813029F4EC
:1001A000CE0101960E945F0006C01C861B861A863F
:1001B000198618861F8283E0888B1A8A198AD801CB
:1001C000ED91FC910484F585E02DBE016F5F7F4FBA
:1001D000C801099562960FB6F894DEBF0FBECDBF79
:1001E000DF91CF911F910F9108950F931F93CF939C
:1001F000DF93CDB7DEB762970FB6F894DEBF0FBEC0
:10020000CDBF8C01F901DC011C968C917A83698346
:100210005C834B835E834D8390819D8791819E8714
:1002200092819F87813029F4CE0101960E945F0060
:1002300006C01C861B861A86198618861F82188A95
:100240001A8A198AD801ED91FC910484F585E02D74
:10025000BE016F5F7F4FC801099562960FB6F89493
:10026000DEBF0FBECDBFDF91CF911F910F910895DB
:1002700080E090E00895FC01858596850895CF93F0
:10028000DF9300D000D000D0CDB7DEB7AB011C8229
:100290001D821E82DC01ED91FC910190F081E02D28
:1002A00019821A821B829E012F5F3F4FBE016C5F35
:1002B0007F4F099526960FB6F894DEBF0FBECDBFCF
:1002C000DF91CF9108953FB7F8948091810190918B
:1002D0008201A0918301B091840126B5A89B05C03D
:1002E0002F3F19F00196A11DB11D3FBFBA2FA92FB5
:1002F000982F8827820F911DA11DB11DBC01CD0132
:1003000042E0660F771F881F991F4A95D1F708951D
:100310008F929F92AF92BF92CF92DF92EF92FF9215
:100320006B017C010E9463014B015C01C114D1048B
:10033000E104F104F1F00E946301DC01CB018819B2
:100340009909AA09BB09883E9340A105B10570F33C
:1003500021E0C21AD108E108F10888EE880E83E096
:10036000981EA11CB11CC114D104E104F10419F7B9
:10037000DDCFFF90EF90DF90CF90BF90AF909F9038
:100380008F9008954F925F926F927F928F92AF926B
:10039000BF92CF92EF92FF920F931F93CF93DF9371
:1003A0003C01EB010E946301F30127853089621B48
:1003B000730B6A307105B0F3F894E881F9815BB191
:1003C00058608BB1877F8BB969859E81262F291B49
:1003D000922F2E83BF844A805B807C85FD84EE84CF
:1003E0007F5FF394E3943F814885AA84CB84108196
:1003F000D20120E0C32F022F322F308111278894A1
:100400003111390F08F43FEF9195889470FD130F67
:100410001795889471FD130F1795889472FD130F2B
:100420001795889473FD130F1795889474FD130F17
:100430001795889475FD130F1795889476FD130F03
:100440001795889477FD130F17958894232F7111B2
:10045000212F960F122F002C5BB900C000C017FF90
:100460008BB931812227889400C0002C8BB93111BF
:100470003C0F00C0002C5BB900C000C016FF8BB958
:1004800008F43FEFC195889400C0002C8BB9F0FCB4
:10049000230F00C0002C5BB900C000C015FF8BB952
:1004A00027958894F1FC230F00C0002C8BB9279569
:1004B000889400C0002C5BB900C000C014FF8BB949
:1004C000F2FC230F2795889400C0002C8BB9F3FC15
:1004D000230F00C0002C5BB900C000C013FF8BB914
:1004E00027958894F4FC230F00C0002C8BB9279526
:1004F000889400C0002C5BB900C000C012FF8BB90B
:10050000F5FC230F2795889400C0002C8BB9F6FCCE
:10051000230F00C0002C5BB900C000C011FF8BB9D5
:1005200027958894F7FC230F00C0002C8BB92795E2
:10053000889400C0002C5BB900C000C010FF8BB9CC
:10054000132FF110122FCA0D00C0002C8BB900C060
:1005500000C0002C5BB900C000C017FF8BB932810E
:100560002227889400C0002C8BB93111340F00C0B1
:10057000002C5BB900C000C016FF8BB908F43FEF38
:10058000EB0DF11D00C0002C8BB9E0FC230F00C067
:10059000002C5BB900C000C015FF8BB9279588946B
:1005A000E1FC230F00C0002C8BB92795889400C074
:1005B000002C5BB900C000C014FF8BB9E2FC230F14
:1005C0002795889400C0002C8BB9E3FC230F00C052
:1005D000002C5BB900C000C013FF8BB9279588942D
:1005E000E4FC230F00C0002C8BB92795889400C031
:1005F000002C5BB900C000C012FF8BB9E5FC230FD3
:100600002795889400C0002C8BB9E6FC230F00C00E
:10061000002C5BB900C000C011FF8BB927958894EE
:10062000E7FC230F00C0002C8BB92795889400C0ED
:10063000002C5BB900C000C010FF8BB9132FE11074
:10064000122F419500C0002C8BB94C0D00C000C08A
:100650005BB900C000C017FF8BB930812227889496
:1006600000C0002C8BB93111390F00C0002C5BB9D0
:1006700000C000C016FF8BB908F43FEF9195889435
:1006800000C0002C8BB970FD230F00C0002C5BB99B
:1006900000C000C015FF8BB92795889471FD230F0A
:1006A00000C0002C8BB92795889400C0002C5BB942
:1006B00000C000C014FF8BB972FD230F27958894EA
:1006C00000C0002C8BB973FD230F00C0002C5BB958
:1006D00000C000C013FF8BB92795889474FD230FC9
:1006E00000C0002C8BB92795889400C0002C5BB902
:1006F00000C000C012FF8BB975FD230F27958894A9
:1007000000C0002C8BB976FD230F00C0002C5BB914
:1007100000C000C011FF8BB92795889477FD230F87
:1007200000C0002C8BB92795889400C0002C5BB9C1
:1007300000C000C010FF8BB9132F7111122F960F3C
:1007400000C0002C8BB9119709F086CE20EE31E065
:10075000D2010E94C30EDC01CB01F4E0B695A7954F
:1007600097958795FA95D1F720E030E0A9016AE9DD
:10077000469E412D569E400D511D1124840F951FFC
:10078000A11DB11D893E43E09407A105B10588F183
:10079000885E9340A109B10942E0B695A795979567
:1007A00087954A95D1F747E0849F212D949F200D8E
:1007B000311D112460917A0170E0860F971F820F1E
:1007C000931F40917D0150917E0160917F01709156
:1007D0008001292F3327420F531F611D711D409344
:1007E0007D0150937E0160937F017093800180931F
:1007F0007A0178940E946301F301708B6787DF911F
:10080000CF911F910F91FF90EF90CF90BF90AF903D
:100810008F907F906F905F904F9008952FB7F894CE
:1008200060917D0170917E0180917F0190918001A6
:100830002FBF08951F920F920FB60F9211242F937E
:100840003F938F939F93AF93BF9380917D0190913E
:100850007E01A0917F01B091800130917C0123E065
:10086000230F2D3720F40196A11DB11D05C026E8E8
:10087000230F0296A11DB11D20937C0180937D0161
:1008800090937E01A0937F01B093800180918101BC
:1008900090918201A0918301B09184010196A11DE4
:1008A000B11D8093810190938201A0938301B09345
:1008B0008401BF91AF919F918F913F912F910F90A4
:1008C0000FBE0F901F901895FC01918D828D981787
:1008D00061F0828DDF01A80FB11D5D968C91928D24
:1008E0009F5F9F73928F90E008958FEF9FEF089521
:1008F000FC01918D828D981731F0828DE80FF11DEA
:10090000858D90E008958FEF9FEF0895FC01918D04
:10091000228D892F90E0805C9F4F821B91098F73FD
:100920009927089587E492E00E94860421E0892BAC
:1009300009F420E0822F0895FC01848DDF01A80FC7
:10094000B11DA35ABF4F2C91848D90E001968F73F7
:100950009927848FA689B7892C93A089B1898C9116
:1009600080648C93938D848D981306C00288F389DC
:10097000E02D80818F7D80830895EF92FF920F9309
:100980001F93CF93DF93EC0181E0888F9B8D8C8D3B
:10099000981305C0E889F989808185FD24C0F62E69
:1009A0000B8D10E00F5F1F4F0F731127E02E8C8D02
:1009B000E8120CC00FB607FCFACFE889F9898081EC
:1009C00085FFF5CFCE010E949C04F1CF8B8DFE01F7
:1009D000E80FF11DE35AFF4FF0820B8FEA89FB8984
:1009E0008081806207C0EE89FF896083E889F98988
:1009F00080818064808381E090E0DF91CF911F91BE
:100A00000F91FF90EF900895CF93DF93EC01888DC5
:100A10008823C9F0EA89FB89808185FD05C0A88902
:100A2000B9898C9186FD0FC00FB607FCF5CF808188
:100A300085FFF2CFA889B9898C9185FFEDCFCE01D2
:100A40000E949C04E7CFDF91CF91089580E090E071
:100A5000892B29F00E94920481110C9400000895C2
:100A60008E3008F08E508770806480937C00809177
:100A70007A00806480937A0080917A0086FDFCCFB2
:100A8000809178002091790090E0922B08950E9447
:100A900003101F920F920FB60F9211242F933F93C2
:100AA0004F935F936F937F938F939F93AF93BF9376
:100AB000EF93FF9387E492E00E949C04FF91EF91F3
:100AC000BF91AF919F918F917F916F915F914F9166
:100AD0003F912F910F900FBE0F901F9018951F926E
:100AE0000F920FB60F9211242F938F939F93EF9332
:100AF000FF93E0915702F09158028081E0915D02EE
:100B0000F0915E0282FD12C09081809160028F5F41
:100B10008F7320916102821751F0E0916002F0E042
:100B2000E95BFD4F958F8093600201C08081FF914A
:100B3000EF919F918F912F910F900FBE0F901F906B
:100B40001895CF92DF92EF92FF920F931F93CF935E
:100B5000DF936C017A018B01C0E0D0E0CE15DF0598
:100B600089F0D8016D918D01D601ED91FC91019034
:100B7000F081E02DC6010995892B11F47E0102C098
:100B80002196ECCFC701DF91CF911F910F91FF907C
:100B9000EF90DF90CF9008953F924F925F926F92C7
:100BA0007F928F929F92AF92BF92CF92DF92EF92FD
:100BB000FF920F931F93CF93DF9300D01F92CDB777
:100BC000DEB7F82E80912F0390913003A09131036E
:100BD000B0913203892B8A2B8B2BE9F00E946301A1
:100BE0000091520310915303209154033091550307
:100BF000DC01CB01801B910BA20BB30B00912F03E7
:100C00001091300320913103309132038017910706
:100C1000A207B307B8F20E94630160935203709376
:100C200053038093540390935503E0913703F0915D
:100C30003803309759F04091330350913403609159
:100C40003503709136038F2D0995F82E00914502DA
:100C5000109146024F2C512C612C712C011511055D
:100C600009F461C0D8011C96EC901C9780912D036B
:100C700090912E038436910510F41C961C92D80195
:100C8000ED91FC91A280B38019821A821B82F1102F
:100C900014C0F80145855685628173819E012F5FDE
:100CA0003F4FC801F5010995D8011C96EC921C979D
:100CB00014960D911C911597D1CFF8013996CE015C
:100CC00001966C0148019CE0890E911CDF0113978D
:100CD0003C902191332001F12223F1F0822F90E00A
:100CE000A0E0B0E09C01AD012F5F3F4F4F4F5F4F41
:100CF000C301B2010E942C119B01AC01832D90E035
:100D0000A0E0B0E0BC01CD016F5F7F4F8F4F9F4FE0
:100D10000E942C11D6018C93BFEFCB1ADB0AE81589
:100D2000F905A1F6B6CF80915003909151038C0143
:100D30000F5F1F4F109351030093500349979CF18D
:100D40000E940E044B015C0188EE93E0089FB00105
:100D5000099F700D189F700D1124072E000C880B31
:100D6000990BC0904C03D0904D03E0904E03F0904F
:100D70004F03A50194012C193D094E095F090E94FA
:100D80003C1130932E0320932D03109251031092A7
:100D900050030E940E0460934C0370934D038093A4
:100DA0004E0390934F030F900F900F90DF91CF91D0
:100DB0001F910F91FF90EF90DF90CF90BF90AF9079
:100DC0009F908F907F906F905F904F903F9008958D
:100DD0006115710579F0FB0101900020E9F7319769
:100DE000AF01461B570BDC01ED91FC910280F381B2
:100DF000E02D099480E090E00895CF93DF93C091B7
:100E00002603D091270369E571E0CE010E94E80630
:100E100061E471E0CE01DF91CF910C94E8064F922E
:100E20005F926F927F92EF92FF920F931F93CF93F7
:100E3000DF93CDB7DEB7A1970FB6F894DEBF0FBE34
:100E4000CDBF7C01FA01CB0119A2223008F42AE0BF
:100E50008E010F5D1F4F422E512C612C712CBF0152
:100E6000A30192010E943C11F901CA01015011092C
:100E70006A3014F4605D01C0695CD8016C93232B67
:100E8000242B252B61F7B801C7010E94E806A19623
:100E90000FB6F894DEBF0FBECDBFDF91CF911F918B
:100EA0000F91FF90EF907F906F905F904F9008951B
:100EB000CF92DF92EF92FF920F931F93CF93DF9326
:100EC0006B01770FEE08FF08F7FE1FC0EC01E88109
:100ED000F9810190F081E02D6DE209958C014427A4
:100EE0005527BA014C195D096E097F092AE0CE0128
:100EF0000E940F07800F911FDF91CF911F910F91DB
:100F0000FF90EF90DF90CF9008952AE0B701A601FF
:100F1000DF91CF911F910F91FF90EF90DF90CF90D5
:100F20000C940F078F929F92AF92BF92CF92DF9255
:100F3000EF92FF920F931F93CF93DF93EC016A011F
:100F40007B019A01AB01C701B6010E94FE0F882305
:100F500019F060E671E027C046015701E894B7F840
:100F60002FEF3FEF4FE75FE7C501B4010E94FE0F8F
:100F700081110DC02FEF3FEF4FE75FE7C501B401CF
:100F80000E94081018161CF464E671E00CC02FEFE4
:100F90003FEF4FE75FE4C701B6010E94F90F181653
:100FA0008CF468E671E0CE01DF91CF911F910F9133
:100FB000FF90EF90DF90CF90BF90AF909F908F9079
:100FC0000C94E8062FEF3FEF4FE75FECC701B60147
:100FD0000E94081087FDE5CF20E030E0A901C7019D
:100FE000B6010E94081087FF0EC0E881F9810190C8
:100FF000F081E02D6DE2CE0109958C01F7FAF094B5
:10100000F7F8F09402C000E010E02AE037ED43EA80
:101010005BE3C701B6010E94E50E6B017C010E94F3
:10102000CA0F4B015C010E940D109B01AC01C7016E
:10103000B6010E94E40E6B017C012AE0B501A40117
:10104000CE010E940F07080F191F6CE671E0CE0158
:101050000E94E806080F191F20E030E040E251E44A
:10106000C701B6010E946E104B015C010E94CA0FBD
:101070006B01E12CF12C2AE0B701A601CE010E9400
:101080000F07080F191FC701B6010E940D109B0121
:10109000AC01C501B4010E94E40E20E030E040E262
:1010A00051E40E946E100E94CA0FAB0160E070E034
:1010B0002AE0CE010E940F07800F911FDF91CF9190
:1010C0001F910F91FF90EF90DF90CF90BF90AF9066
:1010D0009F908F9008950C94E806BF92CF92DF9274
:1010E000EF92FF920F931F93CF93DF93B82E0E943E
:1010F0000E046B017C0104EE12E0C6E2D3E06EE662
:1011000071E0888199810E946B084B2D50E060E06E
:1011100070E02AE0888199810E940F0765E771E0FD
:10112000888199810E946B082AE0B701A601888115
:1011300099810E940F0767E771E0888199810E9479
:101140006B08F80186819781A085B185B701A6015A
:10115000481B590B6A0B7B0B2AE0888199810E94FE
:101160000F0767E771E0888199810E946B08F80199
:10117000468157816085718582859385A485B58573
:10118000481B590B6A0B7B0B2AE088819981DF9100
:10119000CF911F910F91FF90EF90DF90CF90BF9074
:1011A0000C940F07789484B5826084BD84B5816007
:1011B00084BD85B5826085BD85B5816085BD809122
:1011C0006E00816080936E0010928100809181009A
:1011D0008260809381008091810081608093810092
:1011E000809180008160809380008091B100846054
:1011F0008093B1008091B00081608093B0008091B5
:101200007A00846080937A0080917A008260809373
:101210007A0080917A00816080937A0080917A00D0
:10122000806880937A001092C10010922803109277
:10123000290310922A0310922B031092E6021092B7
:10124000E7021092E8021092E90260ED77E080E098
:1012500090E00E94880187E492E0909327038093B6
:101260002603E0915702F091580282E08083E091DA
:101270005302F09154021082E0915502F09156020F
:1012800080E1808310925F02E0915B02F0915C024A
:1012900086E08083E0915902F0915A02808180615A
:1012A0008083E0915902F0915A02808188608083A6
:1012B000E0915902F0915A02808180688083E09128
:1012C0005902F0915A0280818F7D80830E940E0422
:1012D0006093E6027093E7028093E8029093E9023C
:1012E00062E371E080912603909127030E946B08CE
:1012F0006AE070E080E090E00E94880191E09093C5
:10130000FA0280919801811144C010928A011092D2
:1013100089018FEF80938D0180938E0180938F01DF
:101320008093900180939101809392019093930117
:10133000109295011092940110928C0110928B01E1
:101340008091450290914602892B31F487E891E023
:101350009093460280934502E0918501F0918601C9
:10136000309721F087E891E09583848387E891E0C6
:1013700090938601809385011092970110929601B7
:1013800084E191E0909388018093870181E08093CC
:101390009801E0918701F09188010480F581E02DAA
:1013A00087E891E009958FEA91E090938A01809314
:1013B000890182E390E09093950180939401E091FC
:1013C0008701F09188010284F385E02D87E891E0A0
:1013D0000995009711F19C0140E050E060E472E44F
:1013E0008FE090E00E94A40EC0902F03D0903003B5
:1013F000E0903103F0903203C901DA018C159D05AC
:10140000AE05BF0510F4D701C60180932F0390935A
:101410003003A0933103B093320364E471E087E4B6
:1014200092E00E94E80661E471E087E492E00E94A5
:10143000E80680E090E0A8ECB1E480933903909353
:101440003A03A0933B03B0933C0381E090E0909378
:101450003E0380933D0310923F03109240038FEFB1
:10146000809341038FEF90E0909343038093420376
:101470008FEF9FEF909345038093440382E090E0C9
:1014800090934703809346038FEA91E0909349033A
:1014900080934803C0E0D2E081E00E9430056C01F7
:1014A0009093A4018093A30182E00E9430057C0107
:1014B0009093A2018093A10181E2C81682E0D80630
:1014C0004CF1B6017250072E000C880B990B0E944C
:1014D0000F1020E030E04AEF53E40E94510F2091BA
:1014E000390330913A0340913B0350913C030E94F1
:1014F000E50E4B015C0120E030E044E452E40E9440
:10150000F90F18169CF5812C912CF4E4AF2EF2E41F
:10151000BF2E2CC090EEC91691E0D9067CF5BE0115
:101520006C197D09072E000C880B990B0E940F1077
:1015300020E030E04AEF53E40E94510F9B01AC01E0
:101540006091390370913A0380913B0390913C0381
:101550000E94E40E4B015C0120E030E0A9010E94F2
:10156000081087FF03C0812C912C5401809239030D
:1015700090923A03A0923B03B0923C038091A00169
:10158000811127C020913D0330913E03A1E2EA166C
:10159000A2E0FA064CF0293131051CF42F5F3F4FD1
:1015A00010C029E130E00DC0B0EEEB16B1E0FB0653
:1015B00014F5223031051CF02150310902C021E020
:1015C00030E030933E0320933D0381E08093A001FF
:1015D00012C0E1E0EE16E2E0FE0634F0F0E2EF16B3
:1015E000F2E0FF0634F007C0CE018E199F09809704
:1015F00014F41092A001C0903903D0903A03E09007
:101600003B03F0903C0360913D0370913E0377FFF4
:1016100002C06F5F7F4F75956795072E000C880B92
:10162000990B0E940F104B015C019B01AC01C7019B
:10163000B6010E94E40E2B013C0120E030E0A9013C
:101640000E94081087FD05C0C301B2010E94C30FAC
:1016500002C060E070E07093AE016093AD01A5013F
:101660009401C701B6010E94E50E20E030E040E0A1
:1016700050E40E94E50E6B017C0120E030E044E480
:1016800052E40E94F90F18162CF0C701B6010E940F
:10169000C30F02C061E370E07093AC016093AB01D3
:1016A0001092A7011092A8011092A9011092AA010C
:1016B00084EF91E0A0E0B0E08093F2029093F30217
:1016C000A093F402B093F5021092F6021092F70282
:1016D0001092F8021092F9028091EA029091EB02C6
:1016E000A091EC02B091ED028093EE029093EF0294
:1016F000A093F002B093F1020E940E046093EA02FC
:101700007093EB028093EC029093ED020E940E0422
:10171000C090E602D090E702E090E802F090E90283
:10172000DC01CB018C199D09AE09BF098197A10588
:10173000B10538F463E070E080E090E00E94880139
:10174000E5CF0E940E046093E6027093E702809357
:10175000E8029093E90286E00E946D0867E571E077
:1017600080912603909127030E946B0840913903D2
:1017700050913A0360913B0370913C0380912603A2
:10178000909127030E94920767E571E080912603FC
:10179000909127030E946B0860913D0370913E0376
:1017A00080912603909127030E94580767E571E016
:1017B00080912603909127030E946B086091AD01F0
:1017C0007091AE0180912603909127030E945807E3
:1017D00067E571E080912603909127030E946B08D2
:1017E0006091AB017091AC01809126039091270329
:1017F0000E94580767E571E08091260390912703C6
:101800000E946B0862E370E08091260390912703A9
:101810000E9458070E94FD0662E070E080E090E0C0
:101820000E9488010E940E046093EA027093EB020A
:101830008093EC029093ED028091AD019091AE0106
:101840009093A6018093A501A090A501B090A60158
:101850008091AB019091AC01A816B9060CF0E5C1DE
:1018600060913D0370913E0361507109072E000C99
:10187000880B990B0E940F1020E030E040E05FE3FE
:101880000E946E1020E030E040E85FE30E94E50E29
:101890002B013C01B5010B2C000C880B990B0E940D
:1018A0000F109B01AC016091390370913A03809154
:1018B0003B0390913C030E94E40E6B017C0120E00D
:1018C00030E0A9010E94F90FA701960118160CF04B
:1018D0005058C301B2010E94E40E20E030E040E81D
:1018E0005FE30E94F90F1816BCF020E030E0A90178
:1018F000C701B6010E94F90FA701960118160CF056
:101900005058C301B2010E94E40E20E030E0A9016A
:101910000E94081087FD2CC020E030E0A901C7011B
:10192000B6010E94F90FA701960118160CF0505845
:10193000C301B2010E94E40E20E030E040E85FE322
:101940000E94F90F1816C4F020E030E0A901C70189
:10195000B6010E94F90F181624F0F7FAF094F7F880
:10196000F094A7019601C301B2010E94E40E08C0E1
:1019700060E070E0CB0104C060E070E080E89FE3CD
:101980009B01AC010E946E106B017C016093A7016A
:101990007093A8018093A9019093AA01C501880FB3
:1019A000991FA80EB91E8091480390914903A80E73
:1019B000B91E60913F0370E080E090E00E940F103C
:1019C000A70196010E946E100E94CA0FD5016C9368
:1019D0006091400370E080E090E00E940F10A7014A
:1019E00096010E946E100E94CA0FF50161836091FA
:1019F000410370E080E090E00E940F10A701960183
:101A00000E946E100E94CA0FD50112966C9384EF4B
:101A100091E0A0E0B0E08093F2029093F302A093F3
:101A2000F402B093F5021092F6021092F7021092AF
:101A3000F8021092F9028091EA029091EB02A091D3
:101A4000EC02B091ED028093EE029093EF02A0932E
:101A5000F002B093F1020E940E046093EA027093C8
:101A6000EB028093EC029093ED020E940E04C09072
:101A7000E602D090E702E090E802F090E902DC0193
:101A8000CB018C199D09AE09BF098197A105B1054C
:101A900038F463E070E080E090E00E948801E5CFD8
:101AA0000E940E046093E6027093E7028093E802BE
:101AB0009093E90287E00E946D0867E571E08091EC
:101AC0002603909127030E946B086091A5017091F5
:101AD000A60180912603909127030E94580767E58D
:101AE00071E080912603909127030E946B088091FA
:101AF000A5019091A601FC01EE0FFF1F8E0F9F1F05
:101B0000E0914803F0914903E80FF91F408150E04C
:101B100060E070E02AE080912603909127030E9404
:101B20000F0767E571E080912603909127030E94DB
:101B30006B088091A5019091A601FC01EE0FFF1F9B
:101B40008E0F9F1FE0914803F0914903E80FF91FA2
:101B5000418150E060E070E02AE08091260390919E
:101B600027030E940F0767E571E08091260390919B
:101B700027030E946B088091A5019091A601FC01AA
:101B8000EE0FFF1F8E0F9F1FE0914803F091490356
:101B9000E80FF91F428150E060E070E02AE0809198
:101BA0002603909127030E940F0767E571E080915B
:101BB0002603909127030E946B084091A701509142
:101BC000A8016091A9017091AA01809126039091CA
:101BD00027030E94920767E571E0809126039091A8
:101BE00027030E946B0860913D0370913E03809132
:101BF0002603909127030E9458070E94FD0662E089
:101C000070E080E090E00E9488010E940E046093E2
:101C1000EA027093EB028093EC029093ED028091C4
:101C2000A5019091A60101960BCE80912C030E94F4
:101C3000CC050E940E046B017C0161E070E080E045
:101C400090E00E94880180912C030E94CC050E94A4
:101C50000E04DC01CB018C199D09AE09BF09449724
:101C6000A105B10550F380E090E0FC01E155FE4F85
:101C7000108211821282039686399105B1F70E9473
:101C800026050ACCE7E4F2E01382128288EE93E0A4
:101C9000A0E0B0E084839583A683B78386E291E0D9
:101CA0009183808385EC90E09587848784EC90E035
:101CB0009787868780EC90E0918B808B81EC90E019
:101CC000938B828B82EC90E0958B848B86EC90E0FA
:101CD000978B868B118E128E138E148EE4EEF2E0AB
:101CE0001682178210861186128613861486158630
:101CF00016861786108A118A128A138A148A158A00
:101D0000ECE2F3E08FEF8083128211821486138657
:101D10008FEF9FEFDC0187839087A187B2870895BB
:101D200097FB072E16F4009407D077FD09D00E9488
:101D3000CA0E07FC05D03EF4909581959F4F0895FB
:101D4000709561957F4F0895052E97FB1EF40094C2
:101D50000E94BB0E57FD07D00E943C1107FC03D028
:101D60004EF40C94BB0E50954095309521953F4F05
:101D70004F4F5F4F089590958095709561957F4F77
:101D80008F4F9F4F08950E946911B7FF0895821BDE
:101D9000930B0895AA1BBB1B51E107C0AA1FBB1FD1
:101DA000A617B70710F0A61BB70B881F991F5A95E7
:101DB000A9F780959095BC01CD010895EE0FFF1F06
:101DC0000590F491E02D09945058BB27AA270E9452
:101DD000FC0E0C94F2100E94E41038F00E94EB10FC
:101DE00020F039F49F3F19F426F40C94E1100EF41E
:101DF000E095E7FB0C94DB10E92F0E94031158F3E8
:101E0000BA17620773078407950720F079F4A6F5DF
:101E10000C9425110EF4E0950B2EBA2FA02D0B017A
:101E2000B90190010C01CA01A0011124FF27591B1F
:101E300099F0593F50F4503E68F11A16F040A22F25
:101E4000232F342F4427585FF3CF46953795279596
:101E5000A795F0405395C9F77EF41F16BA0B620B95
:101E6000730B840BBAF09150A1F0FF0FBB1F661FDC
:101E7000771F881FC2F70EC0BA0F621F731F841F1F
:101E800048F4879577956795B795F7959E3F08F045
:101E9000B0CF9395880F08F09927EE0F9795879507
:101EA00008950E94650F0C94F2100E94EB1058F0F8
:101EB0000E94E41040F029F45F3F29F00C94DB10FD
:101EC00051110C9426110C94E1100E94031168F337
:101ED0009923B1F3552391F3951B550BBB27AA27E3
:101EE00062177307840738F09F5F5F4F220F331F1D
:101EF000441FAA1FA9F335D00E2E3AF0E0E832D0E5
:101F000091505040E695001CCAF72BD0FE2F29D0E7
:101F1000660F771F881FBB1F261737074807AB07B9
:101F2000B0E809F0BB0B802DBF01FF2793585F4F2E
:101F30003AF09E3F510578F00C94DB100C9426117A
:101F40005F3FE4F3983ED4F3869577956795B79510
:101F5000F7959F5FC9F7880F911D9695879597F91B
:101F60000895E1E0660F771F881FBB1F6217730794
:101F70008407BA0720F0621B730B840BBA0BEE1FA9
:101F800088F7E09508950E94CA0F6894B1110C94E7
:101F9000261108950E940B1188F09F5798F0B92FD1
:101FA0009927B751B0F0E1F0660F771F881F991F8E
:101FB0001AF0BA95C9F714C0B13091F00E942511FA
:101FC000B1E008950C942511672F782F8827B85F0A
:101FD00039F0B93FCCF3869577956795B395D9F7E6
:101FE0003EF490958095709561957F4F8F4F9F4FF0
:101FF00008950E944A1008F48FEF08950E944A1035
:10200000880B990B089581E090E0F8940C94781176
:102010000E944A1008F481E00895E89409C097FBF3
:102020003EF490958095709561957F4F8F4F9F4FAF
:102030009923A9F0F92F96E9BB279395F6958795F3
:1020400077956795B795F111F8CFFAF4BB0F11F4B6
:1020500060FF1BC06F5F7F4F8F4F9F4F16C088235D
:1020600011F096E911C0772321F09EE8872F762F93
:1020700005C0662371F096E8862F70E060E02AF0D4
:102080009A95660F771F881FDAF7880F96958795C0
:1020900097F90895990F0008550FAA0BE0E8FEEF95
:1020A00016161706E807F907C0F012161306E4071C
:1020B000F50798F0621B730B840B950B39F40A2615
:1020C00061F0232B242B252B21F408950A2609F4F3
:1020D000A140A6958FEF811D811D08950E9481105A
:1020E0000C94F2100E94E41038F00E94EB1020F0E3
:1020F000952311F00C94DB100C94E11011240C9436
:1021000026110E94031170F3959FC1F3950F50E0C3
:10211000551F629FF001729FBB27F00DB11D639F99
:10212000AA27F00DB11DAA1F649F6627B00DA11D3F
:10213000661F829F2227B00DA11D621F739FB00DE5
:10214000A11D621F839FA00D611D221F749F332755
:10215000A00D611D231F849F600D211D822F762FEE
:102160006A2F11249F5750409AF0F1F088234AF0CB
:10217000EE0FFF1FBB1F661F771F881F9150504037
:10218000A9F79E3F510580F00C94DB100C942611AA
:102190005F3FE4F3983ED4F3869577956795B795BE
:1021A000F795E7959F5FC1F7FE2B880F911D9695D8
:1021B000879597F9089597F99F6780E870E060E048
:1021C00008959FEF80EC089500240A9416161706D0
:1021D00018060906089500240A9412161306140618
:1021E00005060895092E0394000C11F4882352F07B
:1021F000BB0F40F4BF2B11F460FF04C06F5F7F4F33
:102200008F4F9F4F089557FD9058440F551F59F019
:102210005F3F71F04795880F97FB991F61F09F3FD3
:1022200079F087950895121613061406551FF2CFFC
:102230004695F1DF08C0161617061806991FF1CF4C
:1022400086957105610508940895E894BB27662773
:102250007727CB0197F90895DB018F939F930E9415
:102260005E11BF91AF91A29F800D911DA39F900D14
:10227000B29F900D11240895A1E21A2EAA1BBB1B38
:10228000FD010DC0AA1FBB1FEE1FFF1FA217B30742
:10229000E407F50720F0A21BB30BE40BF50B661F58
:1022A000771F881F991F1A9469F76095709580951C
:1022B00090959B01AC01BD01CF0108950E94691169
:1022C000A59F900DB49F900DA49F800D911D11248A
:1022D0000895A29FB001B39FC001A39F700D811DFF
:1022E0001124911DB29F700D811D1124911D08951F
:0422F000F894FFCF90
:1022F400000000004705470547053F013B01380141
:1023040000000000F500B100AF003F013B01AC004C
:10231400C20100000000BD04A10586046404780421
:102324000405564D4450565F317C315F564D445040
:10233400560D0A00496E2074686520506164646C0F
:102344006520696E6974007C005F564D44504500F9
:102354006E616E00696E66006F7666002E00564DE3
:0A2364004450455F003A323A000091
:107E0000112484B714BE81FFF0D085E080938100F7
:107E100082E08093C00088E18093C10086E0809377
:107E2000C20080E18093C4008EE0C9D0259A86E02C
:107E300020E33CEF91E0309385002093840096BBD3
:107E4000B09BFECF1D9AA8958150A9F7CC24DD24C4
:107E500088248394B5E0AB2EA1E19A2EF3E0BF2EE7
:107E6000A2D0813461F49FD0082FAFD0023811F036
:107E7000013811F484E001C083E08DD089C08234E0
:107E800011F484E103C0853419F485E0A6D080C0E4
:107E9000853579F488D0E82EFF2485D0082F10E0AE
:107EA000102F00270E291F29000F111F8ED06801E7
:107EB0006FC0863521F484E090D080E0DECF843638
:107EC00009F040C070D06FD0082F6DD080E0C81688
:107ED00080E7D80618F4F601B7BEE895C0E0D1E017
:107EE00062D089930C17E1F7F0E0CF16F0E7DF06D8
:107EF00018F0F601B7BEE89568D007B600FCFDCFD4
:107F0000A601A0E0B1E02C9130E011968C91119780
:107F100090E0982F8827822B932B1296FA010C0160
:107F200087BEE89511244E5F5F4FF1E0A038BF0790
:107F300051F7F601A7BEE89507B600FCFDCF97BE46
:107F4000E89526C08437B1F42ED02DD0F82E2BD052
:107F50003CD0F601EF2C8F010F5F1F4F84911BD097
:107F6000EA94F801C1F70894C11CD11CFA94CF0C13
:107F7000D11C0EC0853739F428D08EE10CD085E9AC
:107F80000AD08FE07ACF813511F488E018D01DD067
:107F900080E101D065CF982F8091C00085FFFCCF94
:107FA0009093C60008958091C00087FFFCCF809118
:107FB000C00084FD01C0A8958091C6000895E0E648
:107FC000F0E098E1908380830895EDDF803219F02E
:107FD00088E0F5DFFFCF84E1DECF1F93182FE3DFCA
:107FE0001150E9F7F2DF1F91089580E0E8DFEE27F6
:047FF000FF270994CA
:027FFE00040479
:0400000300007E007B
:00000001FF