:100000000C9436000C945E000C945E000C945E0020
:100010000C945E000C945E000C945E000C945E00E8
:100020000C945E000C945E000C945E000C945E00D8
:100030000C945E000C945E000C945E000C945E00C8
:100040000C94BC030C945E000C94B7050C949105C1
:100050000C945E000C945E000C945E000C945E00A8
:100060000C945E000C945E006507640711241FBEAB
:10007000CFEFD8E0DEBFCDBF11E0A0E0B1E0E4EC0F
:10008000F9E102C005900D92A834B107D9F723E039
:10009000A8E4B1E001C01D92A43EB207E1F710E070
:1000A000C5E3D0E004C02197FE010E94FB0BC433DE
:1000B000D107C9F70E94B3070C94D50C0C9400002B
:1000C000EF92FF920F931F93CF93DF93EC019091E8
:1000D00049019F5F292F27702093490190FF02C09B
:1000E00090E801C090E021FD9064247009F09062D6
:1000F00020E1290FFE013C967E018FE0E80EF11C05
:1001000000E011E06191662331F070E0C8010E94C7
:10011000CC0B6F5F01C060E0DF0114976C93322F4E
:10012000369F030E30E0311D1124CF0107973111A6
:1001300003C0EC01188203C03150EC013883662300
:1001400011F061506C93EE15FF05E1F6DF91CF9150
:100150001F910F91FF90EF90089580E991E008952D
:10016000539A08950F931F93CF93DF93CDB7DEB7C4
:1001700062970FB6F894DEBF0FBECDBF8C01F901B8
:10018000DC011C968C917A8369835C834B835E834C
:100190004D8390819D8791819E8792819F87813039
:1001A00029F4CE0101960E94600006C01C861B86C1
:1001B0001A86198618861F8283E0888B1A8A198A04
:1001C000D801ED91FC910484F585E02DBE016F5FAF
:1001D0007F4FC801099562960FB6F894DEBF0FBE37
:1001E000CDBFDF91CF911F910F9108950F931F9372
:1001F000CF93DF93CDB7DEB762970FB6F894DEBF2B
:100200000FBECDBF8C01F901DC011C968C917A8365
:1002100069835C834B835E834D8390819D8791814D
:100220009E8792819F87813029F4CE0101960E949A
:10023000600006C01C861B861A86198618861F82D7
:10024000188A1A8A198AD801ED91FC910484F585DF
:10025000E02DBE016F5F7F4FC801099562960FB612
:10026000F894DEBF0FBECDBFDF91CF911F910F91EC
:10027000089580E090E00895FC01858596850895B5
:10028000CF93DF9300D000D000D0CDB7DEB7AB0165
:100290001C821D821E82DC01ED91FC910190F08197
:1002A000E02D19821A821B829E012F5F3F4FBE01F3
:1002B0006C5F7F4F099526960FB6F894DEBF0FBE90
:1002C000CDBFDF91CF9108954F925F926F927F9251
:1002D0008F92AF92BF92CF92EF92FF920F931F93A4
:1002E000CF93DF933C01EB010E94E905F3012785E1
:1002F0003089621B730B6A307105B0F3F894E881A2
:10030000F9815BB158608BB1877F8BB969859E811C
:10031000262F291B922F2E83BF844A805B807C85E9
:10032000FD84EE847F5FF394E3943F814885AA8443
:10033000CB841081D20120E0C32F022F322F3081D5
:10034000112788943111390F08F43FEF9195889463
:1003500070FD130F1795889471FD130F17958894EE
:1003600072FD130F1795889473FD130F17958894DA
:1003700074FD130F1795889475FD130F17958894C6
:1003800076FD130F1795889477FD130F17958894B2
:10039000232F7111212F960F122F002C5BB900C053
:1003A00000C017FF8BB931812227889400C0002C30
:1003B0008BB931113C0F00C0002C5BB900C000C0EC
:1003C00016FF8BB908F43FEFC195889400C0002C4C
:1003D0008BB9F0FC230F00C0002C5BB900C000C03B
:1003E00015FF8BB927958894F1FC230F00C0002CD2
:1003F0008BB92795889400C0002C5BB900C000C061
:1004000014FF8BB9F2FC230F2795889400C0002CB1
:100410008BB9F3FC230F00C0002C5BB900C000C0F7
:1004200013FF8BB927958894F4FC230F00C0002C90
:100430008BB92795889400C0002C5BB900C000C020
:1004400012FF8BB9F5FC230F2795889400C0002C70
:100450008BB9F6FC230F00C0002C5BB900C000C0B4
:1004600011FF8BB927958894F7FC230F00C0002C4F
:100470008BB92795889400C0002C5BB900C000C0E0
:1004800010FF8BB9132FF110122FCA0D00C0002CD2
:100490008BB900C000C0002C5BB900C000C017FFC2
:1004A0008BB932812227889400C0002C8BB931117E
:1004B000340F00C0002C5BB900C000C016FF8BB920
:1004C00008F43FEFEB0DF11D00C0002C8BB9E0FCF0
:1004D000230F00C0002C5BB900C000C015FF8BB912
:1004E00027958894E1FC230F00C0002C8BB9279539
:1004F000889400C0002C5BB900C000C014FF8BB909
:10050000E2FC230F2795889400C0002C8BB9E3FCF4
:10051000230F00C0002C5BB900C000C013FF8BB9D3
:1005200027958894E4FC230F00C0002C8BB92795F5
:10053000889400C0002C5BB900C000C012FF8BB9CA
:10054000E5FC230F2795889400C0002C8BB9E6FCAE
:10055000230F00C0002C5BB900C000C011FF8BB995
:1005600027958894E7FC230F00C0002C8BB92795B2
:10057000889400C0002C5BB900C000C010FF8BB98C
:10058000132FE110122F419500C0002C8BB94C0D98
:1005900000C000C05BB900C000C017FF8BB930813C
:1005A0002227889400C0002C8BB93111390F00C06C
:1005B000002C5BB900C000C016FF8BB908F43FEFF8
:1005C0009195889400C0002C8BB970FD230F00C05A
:1005D000002C5BB900C000C015FF8BB9279588942B
:1005E00071FD230F00C0002C8BB92795889400C0A3
:1005F000002C5BB900C000C014FF8BB972FD230F43
:100600002795889400C0002C8BB973FD230F00C080
:10061000002C5BB900C000C013FF8BB927958894EC
:1006200074FD230F00C0002C8BB92795889400C05F
:10063000002C5BB900C000C012FF8BB975FD230F01
:100640002795889400C0002C8BB976FD230F00C03D
:10065000002C5BB900C000C011FF8BB927958894AE
:1006600077FD230F00C0002C8BB92795889400C01C
:10067000002C5BB900C000C010FF8BB9132F7111A3
:10068000122F960F00C0002C8BB9119709F086CE5F
:1006900020EE31E0D2010E94E00BDC01CB01F4E05E
:1006A000B695A79597958795FA95D1F720E030E014
:1006B000A9016AE9469E412D569E400D511D112407
:1006C000840F951FA11DB11D893E43E09407A1052C
:1006D000B10588F1885E9340A109B10942E0B69561
:1006E000A795979587954A95D1F747E0849F212D47
:1006F000949F200D311D11246091480170E0860FF8
:10070000971F820F931F40914B0150914C016091B4
:100710004D0170914E01292F3327420F531F611D48
:10072000711D40934B0150934C0160934D017093A8
:100730004E018093480178940E94E905F301708B83
:100740006787DF91CF911F910F91FF90EF90CF902E
:10075000BF90AF908F907F906F905F904F90089573
:100760002FB7F89460914B0170914C0180914D012D
:1007700090914E012FBF08951F920F920FB60F92C6
:1007800011242F933F938F939F93AF93BF938091A7
:100790004B0190914C01A0914D01B0914E013091CF
:1007A0004A0123E0230F2D3720F40196A11DB11D2E
:1007B00005C026E8230F0296A11DB11D20934A0112
:1007C00080934B0190934C01A0934D01B0934E0147
:1007D00080914F0190915001A0915101B09152012F
:1007E0000196A11DB11D80934F0190935001A093DC
:1007F0005101B0935201BF91AF919F918F913F9161
:100800002F910F900FBE0F901F9018950F931F936D
:10081000CF93DF93CDB7DEB763970FB6F894DEBF03
:100820000FBECDBF809155019091560123E1289FC5
:100830008001299F100D112400501E4F89819A813B
:10084000F801918380838B819C81938382838D8146
:100850009E81958384838F819885978386838985FC
:1008600080878A8581878B8582878C859D85948703
:1008700083878E859F859687858788899989908BC0
:1008800087878A899B89928B818B0E94520C63E0B7
:1008900070E00E94CC0BF8017383628384E690E0E1
:1008A00095838483108611862FEF22879783868312
:1008B000108A17860E94520C68E170E00E94CC0BEF
:1008C000F801928B818B87E591E0948783878091F3
:1008D00055019091560101969093560180935501D0
:1008E0000E94B003709354016093530163960FB656
:1008F000F894DEBF0FBECDBFDF91CF911F910F9156
:100900000895CF92DF92EF92FF920F931F93CF93B0
:10091000DF936C017A018B01C0E0D0E0CE15DF05DA
:1009200089F0D8016D918D01D601ED91FC91019076
:10093000F081E02DC6010995892B11F47E0102C0DA
:100940002196ECCFC701DF91CF911F910F91FF90BE
:10095000EF90DF90CF900895FC01918D828D9817D4
:1009600061F0828DDF01A80FB11D5D968C91928D93
:100970009F5F9F73928F90E008958FEF9FEF089590
:10098000FC01918D828D981731F0828DE80FF11D59
:10099000858D90E008958FEF9FEF0895FC01918D74
:1009A000228D892F90E0805C9F4F821B91098F736D
:1009B0009927089582EF92E00E94CE0421E0892BCE
:1009C00009F420E0822F0895FC01848DDF01A80F37
:1009D000B11DA35ABF4F2C91848D90E001968F7367
:1009E0009927848FA689B7892C93A089B1898C9186
:1009F00080648C93938D848D981306C00288F3894C
:100A0000E02D80818F7D80830895EF92FF920F9378
:100A10001F93CF93DF93EC0181E0888F9B8D8C8DAA
:100A2000981305C0E889F989808185FD24C0F62ED8
:100A30000B8D10E00F5F1F4F0F731127E02E8C8D71
:100A4000E8120CC00FB607FCFACFE889F98980815B
:100A500085FFF5CFCE010E94E404F1CF8B8DFE011E
:100A6000E80FF11DE35AFF4FF0820B8FEA89FB89F3
:100A70008081806207C0EE89FF896083E889F989F7
:100A800080818064808381E090E0DF91CF911F912D
:100A90000F91FF90EF900895CF93DF93EC01888D35
:100AA0008823C9F0EA89FB89808185FD05C0A88972
:100AB000B9898C9186FD0FC00FB607FCF5CF8081F8
:100AC00085FFF2CFA889B9898C9185FFEDCFCE0142
:100AD0000E94E404E7CFDF91CF91089580E090E099
:100AE000892B29F00E94DA0481110C9400000895EA
:100AF0008E3008F08E508770806480937C008091E7
:100B00007A00806480937A0080917A0086FDFCCF21
:100B1000809178002091790090E0922B08950E94B6
:100B2000010C1F920F920FB60F9211242F933F9337
:100B30004F935F936F937F938F939F93AF93BF93E5
:100B4000EF93FF9382EF92E00E94E404FF91EF9114
:100B5000BF91AF919F918F917F916F915F914F91D5
:100B60003F912F910F900FBE0F901F9018951F92DD
:100B70000F920FB60F9211242F938F939F93EF93A1
:100B8000FF93E0910203F09103038081E091080359
:100B9000F091090382FD12C0908180910B038F5F59
:100BA0008F7320910C03821751F0E0910B03F0E05A
:100BB000EE50FD4F958F80930B0301C08081FF9114
:100BC000EF919F918F912F910F900FBE0F901F90DB
:100BD00018953FB7F89480914F0190915001A091E2
:100BE0005101B091520126B5A89B05C02F3F19F0C5
:100BF0000196A11DB11D3FBFBA2FA92F982F88279D
:100C0000820F911DA11DB11DBC01CD0142E0660FF7
:100C1000771F881F991F4A95D1F708953F924F92E9
:100C20005F926F927F928F929F92AF92BF92CF927C
:100C3000DF92EF92FF920F931F93CF93DF9300D039
:100C40001F92CDB7DEB7F82E8091DA039091DB03C7
:100C5000A091DC03B091DD03892B8A2B8B2BE9F06B
:100C60000E94E9050091EE021091EF022091F0023E
:100C70003091F102DC01CB01801B910BA20BB30B75
:100C80000091DA031091DB032091DC033091DD0346
:100C900080179107A207B307B8F20E94E905609395
:100CA000EE027093EF028093F0029093F102E091D4
:100CB000E203F091E303309759F04091DE03509145
:100CC000DF036091E0037091E1038F2D0995F82E09
:100CD0000091EC021091ED024F2C512C612C712CE3
:100CE0000115110509F461C0D8011C96EC901C9700
:100CF0008091D8039091D9038436910510F41C9605
:100D00001C92D801ED91FC91A280B38019821A82C5
:100D10001B82F11014C0F8014585568562817381EC
:100D20009E012F5F3F4FC801F5010995D8011C9620
:100D3000EC921C9714960D911C911597D1CFF80148
:100D40003996CE0101966C0148019CE0890E911CF8
:100D5000DF0113973C902191332001F12223F1F020
:100D6000822F90E0A0E0B0E09C01AD012F5F3F4FEB
:100D70004F4F5F4FC301B2010E94620C9B01AC0157
:100D8000832D90E0A0E0B0E0BC01CD016F5F7F4F0C
:100D90008F4F9F4F0E94620CD6018C93BFEFCB1AEE
:100DA000DB0AE815F905A1F6B6CF8091EA02909129
:100DB000EB028C010F5F1F4F1093EB020093EA02CE
:100DC00049979CF10E94B0034B015C0188EE93E0CF
:100DD000089FB001099F700D189F700D1124072EF8
:100DE000000C880B990BC090E602D090E702E090CF
:100DF000E802F090E902A50194012C193D094E0981
:100E00005F090E94720C3093D9032093D80310928B
:100E1000EB021092EA020E94B0036093E602709324
:100E2000E7028093E8029093E9020F900F900F90F1
:100E3000DF91CF911F910F91FF90EF90DF90CF90B6
:100E4000BF90AF909F908F907F906F905F904F90EA
:100E50003F9008958F929F92AF92BF92CF92DF9270
:100E6000EF92FF926B017C010E94E9054B015C014E
:100E7000C114D104E104F104F1F00E94E905DC01A0
:100E8000CB0188199909AA09BB09883E9340A1059D
:100E9000B10570F321E0C21AD108E108F10888EE2B
:100EA000880E83E0981EA11CB11CC114D104E1047A
:100EB000F10419F7DDCFFF90EF90DF90CF90BF9056
:100EC000AF909F908F9008950895E2EFF2E0138223
:100ED000128288EE93E0A0E0B0E084839583A6833D
:100EE000B7838AE291E09183808385EC90E09587D7
:100EF000848784EC90E09787868780EC90E0918BE4
:100F0000808B81EC90E0938B828B82EC90E0958BD0
:100F1000848B86EC90E0978B868B118E128E138ECD
:100F2000148EEFE8F3E0168217821086118612867F
:100F300013861486158616861786108A118A128AD9
:100F4000138A148A158AE7EDF3E08FEF808312820B
:100F50001182148613868FEF9FEFDC0187839087C1
:100F6000A187B2870895789484B5826084BD84B5E2
:100F7000816084BD85B5826085BD85B5816085BD94
:100F800080916E00816080936E001092810080914C
:100F900081008260809381008091810081608093D4
:100FA0008100809180008160809380008091B100F9
:100FB00084608093B1008091B00081608093B00024
:100FC00080917A00846080937A0080917A008260B8
:100FD00080937A0080917A00816080937A0080917A
:100FE0007A00806880937A001092C1001092D30337
:100FF0001092D4031092D5031092D603109291034D
:1010000010929203109293031092940360ED77E094
:1010100080E090E00E942A0782EF92E09093D20352
:101020008093D103E0910203F091030382E0808377
:10103000E091FE02F091FF021082E0910003F09136
:10104000010380E1808310920A03E0910603F0918E
:10105000070386E08083E0910403F091050380811B
:1010600080618083E0910403F091050380818860B2
:101070008083E0910403F091050380818068808380
:10108000E0910403F091050380818F7D80830E94AD
:10109000B0036093910370939203809393039093B2
:1010A00094038091D1039091D203DC01ED91FC91E6
:1010B0000280F381E02D41E150E066E371E00995A3
:1010C0006AE070E080E090E00E942A0791E090934F
:1010D000A5038091D102811144C01092C3021092E5
:1010E000C2028FEF8093C6028093C7028093C8022A
:1010F0008093C9028093CA028093CB029093CC0262
:101100001092CE021092CD021092C5021092C4022B
:101110008091EC029091ED02892B31F480EC92E009
:101120009093ED028093EC02E091BE02F091BF0239
:10113000309721F080EC92E09583848380EC92E0FC
:101140009093BF028093BE021092D0021092CF0201
:1011500088E191E09093C1028093C00281E0809386
:10116000D102E091C002F091C1020480F581E02D2E
:1011700080EC92E0099587E591E09093C30280931B
:10118000C20282E390E09093CE028093CD02E09180
:10119000C002F091C1020284F385E02D80EC92E060
:1011A0000995009729F19C0140E050E060E472E469
:1011B0008FE090E00E94940C722F632F0091DA036D
:1011C0001091DB032091DC033091DD03872F962FF4
:1011D000DA0180179107A207B30710F4D901C801FB
:1011E0008093DA039093DB03A093DC03B093DD03D9
:1011F00087E893E19093F0018093EF0188EC90E011
:101200009093F2018093F1018FEF8093F30110929C
:10121000F4011092F5018FEF90E09093F701809325
:10122000F6018FEF9FEF9093F9018093F80182E030
:1012300090E09093FB018093FA0187E591E0909311
:10124000FD018093FC018091550190915601099711
:1012500014F40E940604C8EC2C2E312CDCE94D2E2F
:1012600055245A9480E090E0FC01E95AFE4F108228
:1012700011821282039686399105B1F781E00E94AE
:101280007805EC019093DD028093DC0280E00E94FF
:101290007805FC019093DB028093DA022091EF0144
:1012A0003091F001C132B2E0DB077CF0CE01925008
:1012B00069E170E00E94CC0B620F731F603127E27E
:1012C0007207ACF06FE077E212C0C03E41E0D40795
:1012D00094F480E092E08C1B9D0B67EE7FEF0E9400
:1012E000CC0B620F731F77FF02C060E070E0709359
:1012F000F0016093EF018091D902811126C0209105
:10130000F1013091F201E13252E0F50754F0213C55
:1013100082E138071CF428533F4F0FC028E833E11F
:101320000CC0E03EF1400CF52C32B1E03B071CF064
:10133000285C310902C024E630E03093F2012093AA
:10134000F10181E08093D90210C0E13022E0F20780
:1013500024F0E032F2403CF008C080E092E08E1BC6
:101360009F0B809714F41092D9026090EF01709057
:10137000F0010091F1011091F201C301801B910B6A
:1013800097FF02C080E090E0B1010E94CC0BE62FF5
:10139000472F6093E2027093E302C301800F911F15
:1013A000803157E2950714F08FE097E2B1010E9477
:1013B000CC0B7B0182E0E80EF11CF092E102E0929E
:1013C000E002E093ED014093EE012091DE023091C6
:1013D000DF02CE2FD42FFE01EE0FFF1FEC0FFD1FFB
:1013E00032968091FC019091FD01E80FF91F48ECC5
:1013F0004C9FC0014D9F900D11244C0186189708F9
:10140000681A790AC12CD12C0C591F4FCE15DF0553
:101410000CF05AC0C601880D991D181619061CF04B
:10142000C3018C199D099801281B390B25363105FC
:1014300014F024E630E037FF02C020E030E05F0126
:10144000A2E0AA1AB108D5014C915091F301529F24
:10145000C001539F900D1124B2010E94CC0B640F68
:10146000711D77FF02C060E070E0D5016C93DF0171
:101470004E915D015091F401529FC001539F900D18
:101480001124B2010E94CC0B640F711D77FF02C0C2
:1014900060E070E0D5016C9340815091F501529F5E
:1014A000C001539F900D1124B2010E94CC0B640F18
:1014B000711D77FF02C060E070E060832196339673
:1014C000B8ECCB0ED11CA2CF3093DF022093DE020A
:1014D000D093EE01C093ED011092E5021092E40268
:1014E0008090550190905601F090E2024091E30205
:1014F000A090E002B090E102D22EE32EE0E0F2E014
:1015000000E010E0A4E6CA2E081519050CF0ECC0A6
:10151000878590890197908B878726813781280F4F
:10152000391F37FD03C03783268307C01782168211
:10153000919581959109908B8787818992892281E4
:101540003381280F391F213147E234072CF0A0E105
:10155000B7E2B383A28307C037FD03C0338322837E
:1015600007C013821282919581959109928B818B8C
:10157000C281D38124813581CE01821B930B97FFD9
:1015800002C080E090E0B1010E94CC0B3B01F62E3E
:10159000472DCE01820F931F8031B7E29B0714F0D5
:1015A0008FE097E2B1010E94CC0B5B0122E0A20E1A
:1015B000B11C60827182C081D181CA15DB050CF03B
:1015C0008FC0848195818C599F4F6281738158ECC3
:1015D0005C9F90015D9F300D1124261B370B121666
:1015E00013064CF0A8E3AC9F9001AD9F300D3C1B5F
:1015F0001124260F371F821B930B97FD0CC09C01F3
:101600008536910514F024E630E0C29EC001C39EE9
:10161000900D112402C080E090E02681378165E6BC
:1016200070E0621B730B0E94CC0B9B01D62EE32E45
:10163000CE01880F991FC80FD91F83859485C80FC5
:10164000D91F78805085529FC001539F900D11245F
:10165000B2010E94CC0B670D711D77FF02C060E0E4
:1016600070E06883C081D181CE01880F991FC80FB7
:10167000D91F83859485C80FD91F79805185529FC2
:10168000C001539F900D1124B2010E94CC0B670D35
:10169000711D77FF02C060E070E06983C081D18175
:1016A000CE01880F991FC80FD91F83859485C80F55
:1016B000D91F7A805285529FC001539F900D1124EB
:1016C000B2010E94CC0B670D711D77FF02C060E074
:1016D00070E06A83808191810196918380836BCFD2
:1016E0000F5F1F4F739610CFD092DE02E092DF02A1
:1016F0001093E5020093E402F092E2024093E302C9
:10170000B092E102A092E0020E94B0030091530166
:1017100010915401012E000C220B330BDC01CB0184
:10172000801B910BA20BB30B89389341A105B10526
:1017300030F039E08316910414F40E94060480917D
:10174000D7030E940E060E94B0036B017C0161E08A
:1017500070E080E090E00E942A078091D7030E9409
:101760000E060E94B003DC01CB018C199D09AE0965
:10177000BF094497A105B10550F380E090E0FC015A
:10178000E95AFE4F10821182128203968639910522
:10179000B1F70E946E0566CD97FB072E16F40094F4
:1017A00007D077FD09D00E94E70B07FC05D03EF477
:1017B000909581959F4F0895709561957F4F0895FD
:1017C0000E94C60CB7FF0895821B930B0895AA1BB5
:1017D000BB1B51E107C0AA1FBB1FA617B70710F01C
:1017E000A61BB70B881F991F5A95A9F7809590954E
:1017F000BC01CD010895EE0FFF1F0590F491E02D7F
:10180000099481E090E0F8940C94D50C8F929F920B
:10181000AF92BF92CF92DF92EF92FF92CF93DF937E
:10182000EC01688179818A819B816115710581054F
:10183000910521F464E279ED8BE597E02DE133EF3A
:1018400041E050E00E94940C49015A019B01AC0117
:10185000A7EAB1E40E94B30C6B017C01ACEEB4EFDB
:10186000A50194010E94C10CDC01CB018C0D9D1DD2
:10187000AE1DBF1DB7FF03C00197A109B048888303
:101880009983AA83BB839F77DF91CF91FF90EF90DD
:10189000DF90CF90BF90AF909F908F9008950E945F
:1018A000060C089580E091E00E94060C0895A0E0E7
:1018B000B0E08093000190930101A0930201B093E6
:1018C00003010895DB018F939F930E94B30CBF9196
:1018D000AF91A29F800D911DA39F900DB29F900D7F
:1018E00011240895A1E21A2EAA1BBB1BFD010DC0F5
:1018F000AA1FBB1FEE1FFF1FA217B307E407F507C0
:1019000020F0A21BB30BE40BF50B661F771F881F9B
:10191000991F1A9469F760957095809590959B0131
:10192000AC01BD01CF010895052E97FB1EF4009474
:101930000E94AB0C57FD07D00E94720C07FC03D02D
:101940004EF40C94AB0C50954095309521953F4F3B
:101950004F4F5F4F089590958095709561957F4F9B
:101960008F4F9F4F08950E94C60CA59F900DB49F66
:10197000900DA49F800D911D11240895B7FF0C9424
:10198000B30C0E94B30C821B930B0895A29FB0016D
:10199000B39FC001A39F700D811D1124911DB29FA3
:1019A000700D811D1124911D089510E0C5E3D0E054
:1019B00004C0FE010E94FB0B2196C633D107C9F774
:0419C000F894FFCFC9
:1019C40001000000000000008F058F058F05400115
:1019D4003C01390100000000F600B200B0004001F3
:1019E4003C01AD0064010000000005058104CE0443
:1019F400AC04C0044C05564D4450565F317C315FF5
:081A0400564D4450560D0A0036
:00000001FF
