:100000000C9436000C945E000C945E000C945E0020
:100010000C945E000C945E000C945E000C945E00E8
:100020000C945E000C945E000C945E000C945E00D8
:100030000C945E000C945E000C945E000C945E00C8
:100040000C946B040C945E000C9470050C944A059F
:100050000C945E000C945E000C945E000C945E00A8
:100060000C945E000C945E00740D270811241FBED2
:10007000CFEFD8E0DEBFCDBF11E0A0E0B1E0E0EB14
:10008000FDE102C005900D92AC35B107D9F723E030
:10009000ACE5B1E001C01D92AC3CB207E1F710E065
:1000A000C5E3D0E004C02197FE010E94F10DC433E6
:1000B000D107C9F70E9428080C94CB0E0C940000BD
:1000C000FC01918D228D892F90E0805C9F4F821BD7
:1000D00091098F739927089580E090E0892B29F08A
:1000E0000E94D70481110C9400000895EF92FF92B2
:1000F0000F931F93CF93DF93EC0190915D019F5F6E
:10010000292F277020935D0190FF02C090E801C065
:1001100090E021FD9064247009F0906220E1290FA5
:10012000FE013C967E018FE0E80EF11C00E011E03C
:100130006191662331F070E0C8010E94C20D6F5FCB
:1001400001C060E0DF0114976C93322F369F030EDD
:1001500030E0311D1124CF010797311103C0EC01AC
:10016000188203C03150EC013883662311F06150CE
:100170006C93EE15FF05E1F6DF91CF911F910F9182
:10018000FF90EF90089580E991E00895539A0895C3
:100190000F931F93CF93DF93CDB7DEB762970FB660
:1001A000F894DEBF0FBECDBF8C01F901DC011C96B7
:1001B0008C917A8369835C834B835E834D839081CA
:1001C0009D8791819E8792819F87813029F4CE01FE
:1001D00001960E94760006C01C861B861A86198628
:1001E00018861F8283E0888B1A8A198AD801ED91BC
:1001F000FC910484F585E02DBE016F5F7F4FC8013F
:10020000099562960FB6F894DEBF0FBECDBFDF91A1
:10021000CF911F910F9108950F931F93CF93DF9369
:10022000CDB7DEB762970FB6F894DEBF0FBECDBF75
:100230008C01F901DC011C968C917A8369835C83C3
:100240004B835E834D8390819D8791819E879281B0
:100250009F87813029F4CE0101960E94760006C066
:100260001C861B861A86198618861F82188A1A8A87
:10027000198AD801ED91FC910484F585E02DBE0129
:100280006F5F7F4FC801099562960FB6F894DEBF85
:100290000FBECDBFDF91CF911F910F91089580E0E8
:1002A00090E00895FC01858596850895CF93DF93AE
:1002B00000D000D000D0CDB7DEB7AB011C821D82CC
:1002C0001E82DC01ED91FC910190F081E02D1982FC
:1002D0001A821B829E012F5F3F4FBE016C5F7F4FD2
:1002E000099526960FB6F894DEBF0FBECDBFDF91FD
:1002F000CF9108950E94F70DFC01848DDF01A80FB6
:10030000B11DA35ABF4F2C91848D90E001968F733D
:100310009927848FA689B7892C93A089B1898C915C
:1003200080648C93938D848D981306C00288F38922
:10033000E02D80818F7D808308958E3008F08E506F
:100340008770806480937C0080917A0080648093C1
:100350007A0080917A0086FDFCCF80917800209110
:10036000790090E0922B08953FB7F8948091630153
:1003700090916401A0916501B091660126B5A89B9A
:1003800005C02F3F19F00196A11DB11D3FBFBA2F27
:10039000A92F982F8827820F911DA11DB11DBC0187
:1003A000CD0142E0660F771F881F991F4A95D1F74C
:1003B00008958F929F92AF92BF92CF92DF92EF9269
:1003C000FF926B017C010E94B4014B015C01C114DE
:1003D000D104E104F104F1F00E94B401DC01CB018D
:1003E00088199909AA09BB09883E9340A105B1055E
:1003F00070F321E0C21AD108E108F10888EE880EF6
:1004000083E0981EA11CB11CC114D104E104F104C5
:1004100019F7DDCFFF90EF90DF90CF90BF90AF90B6
:100420009F908F9008954F925F926F927F928F92DC
:10043000AF92BF92CF92EF92FF920F931F93CF9301
:10044000DF933C01EB010E94B401F3012785308961
:10045000621B730B6A307105B0F3F894E881F9817F
:100460005BB158608BB1877F8BB969859E81262FE0
:10047000291B922F2E83BF844A805B807C85FD845C
:10048000EE847F5FF394E3943F814885AA84CB8414
:100490001081D20120E0C32F022F322F308111278B
:1004A00088943111390F08F43FEF9195889470FDCD
:1004B000130F1795889471FD130F1795889472FD8B
:1004C000130F1795889473FD130F1795889474FD77
:1004D000130F1795889475FD130F1795889476FD63
:1004E000130F1795889477FD130F17958894232F72
:1004F0007111212F960F122F002C5BB900C000C084
:1005000017FF8BB931812227889400C0002C8BB94A
:1005100031113C0F00C0002C5BB900C000C016FFB9
:100520008BB908F43FEFC195889400C0002C8BB9BB
:10053000F0FC230F00C0002C5BB900C000C015FF09
:100540008BB927958894F1FC230F00C0002C8BB940
:100550002795889400C0002C5BB900C000C014FF30
:100560008BB9F2FC230F2795889400C0002C8BB91F
:10057000F3FC230F00C0002C5BB900C000C013FFC8
:100580008BB927958894F4FC230F00C0002C8BB9FD
:100590002795889400C0002C5BB900C000C012FFF2
:1005A0008BB9F5FC230F2795889400C0002C8BB9DC
:1005B000F6FC230F00C0002C5BB900C000C011FF87
:1005C0008BB927958894F7FC230F00C0002C8BB9BA
:1005D0002795889400C0002C5BB900C000C010FFB4
:1005E0008BB9132FF110122FCA0D00C0002C8BB93C
:1005F00000C000C0002C5BB900C000C017FF8BB961
:1006000032812227889400C0002C8BB93111340F1D
:1006100000C0002C5BB900C000C016FF8BB908F405
:100620003FEFEB0DF11D00C0002C8BB9E0FC230F58
:1006300000C0002C5BB900C000C015FF8BB9279526
:100640008894E1FC230F00C0002C8BB92795889477
:1006500000C0002C5BB900C000C014FF8BB9E2FCE5
:10066000230F2795889400C0002C8BB9E3FC230F3F
:1006700000C0002C5BB900C000C013FF8BB92795E8
:100680008894E4FC230F00C0002C8BB92795889434
:1006900000C0002C5BB900C000C012FF8BB9E5FCA4
:1006A000230F2795889400C0002C8BB9E6FC230FFC
:1006B00000C0002C5BB900C000C011FF8BB92795AA
:1006C0008894E7FC230F00C0002C8BB927958894F1
:1006D00000C0002C5BB900C000C010FF8BB9132F05
:1006E000E110122F419500C0002C8BB94C0D00C0B9
:1006F00000C05BB900C000C017FF8BB93081222752
:10070000889400C0002C8BB93111390F00C0002C27
:100710005BB900C000C016FF8BB908F43FEF91959C
:10072000889400C0002C8BB970FD230F00C0002CF2
:100730005BB900C000C015FF8BB92795889471FD87
:10074000230F00C0002C8BB92795889400C0002C83
:100750005BB900C000C014FF8BB972FD230F279551
:10076000889400C0002C8BB973FD230F00C0002CAF
:100770005BB900C000C013FF8BB92795889474FD46
:10078000230F00C0002C8BB92795889400C0002C43
:100790005BB900C000C012FF8BB975FD230F279510
:1007A000889400C0002C8BB976FD230F00C0002C6C
:1007B0005BB900C000C011FF8BB92795889477FD05
:1007C000230F00C0002C8BB92795889400C0002C03
:1007D0005BB900C000C010FF8BB9132F7111122F2D
:1007E000960F00C0002C8BB9119709F086CE20EE31
:1007F00031E0D2010E94D60DDC01CB01F4E0B695C8
:10080000A79597958795FA95D1F720E030E0A90153
:100810006AE9469E412D569E400D511D1124840FBC
:10082000951FA11DB11D893E43E09407A105B105A7
:1008300088F1885E9340A109B10942E0B695A79579
:10084000979587954A95D1F747E0849F212D949FEE
:10085000200D311D112460915C0170E0860F971FFF
:10086000820F931F40915F0150916001609161017F
:1008700070916201292F3327420F531F611D711D93
:1008800040935F0150936001609361017093620136
:1008900080935C0178940E94B401F301708B6787A8
:1008A000DF91CF911F910F91FF90EF90CF90BF906C
:1008B000AF908F907F906F905F904F9008952FB77B
:1008C000F89460915F017091600180916101909155
:1008D00062012FBF08951F920F920FB60F9211243D
:1008E0002F933F938F939F93AF93BF9380915F011B
:1008F00090916001A0916101B091620130915E011F
:1009000023E0230F2D3720F40196A11DB11D05C052
:1009100026E8230F0296A11DB11D20935E0180934E
:100920005F0190936001A0936101B0936201809197
:10093000630190916401A0916501B09166010196F7
:10094000A11DB11D8093630190936401A093650183
:10095000B0936601BF91AF919F918F913F912F917D
:100960000F900FBE0F901F901895FC01918D828DF6
:10097000981761F0828DDF01A80FB11D5D968C91F3
:10098000928D9F5F9F73928F90E008958FEF9FEFFE
:100990000895FC01918D828D981731F0828DE80FBA
:1009A000F11D858D90E008958FEF9FEF089589E206
:1009B00092E00E94600021E0892B09F420E0822F60
:1009C0000895EF92FF920F931F93CF93DF93EC0163
:1009D00081E0888F9B8D8C8D981305C0E889F989FB
:1009E000808185FD24C0F62E0B8D10E00F5F1F4F18
:1009F0000F731127E02E8C8DE8120CC00FB607FC88
:100A0000FACFE889F989808185FFF5CFCE010E9470
:100A10007C01F1CF8B8DFE01E80FF11DE35AFF4FF2
:100A2000F0820B8FEA89FB898081806207C0EE89A2
:100A3000FF896083E889F98980818064808381E00F
:100A400090E0DF91CF911F910F91FF90EF9008956B
:100A5000CF93DF93EC01888D8823C9F0EA89FB8965
:100A6000808185FD05C0A889B9898C9186FD0FC05C
:100A70000FB607FCF5CF808185FFF2CFA889B98931
:100A80008C9185FFEDCFCE010E947C01E7CFDF91F5
:100A9000CF9108951F920F920FB60F9211242F93AA
:100AA0003F934F935F936F937F938F939F93AF93F6
:100AB000BF93EF93FF9389E292E00E947C01FF9144
:100AC000EF91BF91AF919F918F917F916F915F91C6
:100AD0004F913F912F910F900FBE0F901F9018953F
:100AE0001F920F920FB60F9211242F938F939F9303
:100AF000EF93FF93E0913902F0913A028081E09107
:100B00003F02F091400282FD12C09081809142022A
:100B10008F5F8F7320914302821751F0E091420260
:100B2000F0E0E75DFD4F958F8093420201C0808128
:100B3000FF91EF919F918F912F910F900FBE0F908A
:100B40001F901895CF92DF92EF92FF920F931F9311
:100B5000CF93DF936C017A018B01C0E0D0E0CE151A
:100B6000DF0589F0D8016D918D01D601ED91FC91E1
:100B70000190F081E02DC6010995892B11F47E01C9
:100B800002C02196ECCFC701DF91CF911F910F9149
:100B9000FF90EF90DF90CF9008956115710579F087
:100BA000FB0101900020E9F73197AF01461B570B7D
:100BB000DC01ED91FC910280F381E02D099480E04D
:100BC00090E008954F925F926F927F92EF92FF9222
:100BD0000F931F93CF93DF93CDB7DEB7A1970FB6D7
:100BE000F894DEBF0FBECDBF7C01FA01CB0119A284
:100BF000223008F42AE08E010F5D1F4F422E512C47
:100C0000612C712CBF01A30192010E94680EF901B1
:100C1000CA01015011096A3014F4605D01C0695CB9
:100C2000D8016C93232B242B252B61F7B801C70126
:100C30000E94CD05A1960FB6F894DEBF0FBECDBFC2
:100C4000DF91CF911F910F91FF90EF907F906F9068
:100C50005F904F9008953F924F925F926F927F9274
:100C60008F929F92AF92BF92CF92DF92EF92FF92BC
:100C70000F931F93CF93DF9300D01F92CDB7DEB7B2
:100C8000F82E8091110390911203A0911303B0915B
:100C90001403892B8A2B8B2BE9F00E94B40100915D
:100CA000C8031091C9032091CA033091CB03DC0122
:100CB000CB01801B910BA20BB30B00911103109180
:100CC0001203209113033091140380179107A20798
:100CD000B307B8F20E94B4016093C8037093C903CC
:100CE0008093CA039093CB03E0911903F0911A0308
:100CF000309759F0409115035091160360911703F6
:100D0000709118038F2D0995F82E009127021091EC
:100D100028024F2C512C612C712C0115110509F45E
:100D200061C0D8011C96EC901C9780910F039091A4
:100D300010038436910510F41C961C92D801ED9195
:100D4000FC91A280B38019821A821B82F11014C018
:100D5000F80145855685628173819E012F5F3F4F63
:100D6000C801F5010995D8011C96EC921C971496C0
:100D70000D911C911597D1CFF8013996CE010196AE
:100D80006C0148019CE0890E911CDF0113973C9097
:100D90002191332001F12223F1F0822F90E0A0E095
:100DA000B0E09C01AD012F5F3F4F4F4F5F4FC3013C
:100DB000B2010E94580E9B01AC01832D90E0A0E08F
:100DC000B0E0BC01CD016F5F7F4F8F4F9F4F0E94FE
:100DD000580ED6018C93BFEFCB1ADB0AE815F90544
:100DE000A1F6B6CF8091C6039091C7038C010F5F27
:100DF0001F4F1093C7030093C60349979CF10E94AD
:100E00005F044B015C0188EE93E0089FB001099FED
:100E1000700D189F700D1124072E000C880B990B74
:100E2000C090C203D090C303E090C403F090C50308
:100E3000A50194012C193D094E095F090E94680E15
:100E40003093100320930F031092C7031092C60330
:100E50000E945F046093C2037093C3038093C40332
:100E60009093C5030F900F900F90DF91CF911F913A
:100E70000F91FF90EF90DF90CF90BF90AF909F9039
:100E80008F907F906F905F904F903F900895CF9399
:100E9000DF93C0910803D09109036AE471E0CE01A9
:100EA0000E94CD0565E471E0CE01DF91CF910C94F5
:100EB000CD05CF92DF92EF92FF920F931F93CF93C6
:100EC000DF936B01770FEE08FF08F7FE1FC0EC0100
:100ED000E881F9810190F081E02D6DE209958C01A6
:100EE00044275527BA014C195D096E097F092AE08C
:100EF000CE010E94E205800F911FDF91CF911F91DB
:100F00000F91FF90EF90DF90CF9008952AE0B70106
:100F1000A601DF91CF911F910F91FF90EF90DF908D
:100F2000CF900C94E2050F931F9381111BC00E9478
:100F30005F040091C8021091C9022091CA02309149
:100F4000CB02DC01CB01801B910BA20BB30B819771
:100F5000A105B10538F463E070E080E090E00E9404
:100F6000D901E5CF0E945F046093C8027093C90263
:100F70008093CA029093CB0281E01F910F91089554
:100F80000C94CD05BF92CF92DF92EF92FF920F9318
:100F90001F93CF93DF93B82E0E945F046B017C01F7
:100FA00006EC12E0C8E0D3E061E571E08881998148
:100FB0000E94C0074B2D50E060E070E02AE088817D
:100FC00099810E94E20568E571E0888199810E941B
:100FD000C0072AE0B701A601888199810E94E20535
:100FE0006AE571E0888199810E94C007F8018681D5
:100FF0009781A085B185B701A601481B590B6A0BE3
:101000007B0B2AE0888199810E94E2056AE571E004
:10101000888199810E94C007F801468157816085C7
:10102000718582859385A485B585481B590B6A0B0C
:101030007B0B2AE088819981DF91CF911F910F91DD
:10104000FF90EF90DF90CF90BF900C94E205089551
:10105000CF93DF93CDB7DEB76F970FB6F894DEBFAF
:101060000FBECDBF789484B5826084BD84B58160A5
:1010700084BD85B5826085BD85B5816085BD809163
:101080006E00816080936E001092810080918100DB
:1010900082608093810080918100816080938100D3
:1010A000809180008160809380008091B100846095
:1010B0008093B1008091B00081608093B0008091F6
:1010C0007A00846080937A0080917A0082608093B5
:1010D0007A0080917A00816080937A0080917A0012
:1010E000806880937A001092C10010920A031092D7
:1010F0000B0310920C0310920D031092C802109271
:10110000C9021092CA021092CB0260ED77E080E033
:1011100090E00E94D90189E292E0909309038093C4
:101120000803E0913902F0913A0282E08083E09175
:101130003502F09136021082E0913702F0913802C8
:1011400080E1808310924102E0913D02F0913E02E5
:1011500086E08083E0913B02F0913C0280818061D7
:101160008083E0913B02F0913C0280818860808323
:10117000E0913B02F0913C02808180688083E091A5
:101180003B02F0913C0280818F7D80830E945F044E
:101190006093C8027093C9028093CA029093CB02F5
:1011A00066E371E080910803909109030E94C007F3
:1011B0006AE070E080E090E00E94D90191E09093B5
:1011C000DC0280917A01811144C010926C0110926E
:1011D0006B018FEF80936F01809370018093710199
:1011E00080937201809373018093740190937501D1
:1011F000109277011092760110926E0110926D019B
:101200008091270290912802892B31F489E691E0A0
:101210009093280280932702E0916701F091680182
:10122000309721F089E691E09583848389E691E007
:101230009093680180936701109279011092780170
:1012400088E191E090936A018093690181E0809345
:101250007A01E0916901F0916A010480F581E02D45
:1012600089E691E009958DE891E090936C01809377
:101270006B0182E390E09093770180937601E09197
:101280006901F0916A010284F385E02D89E691E01D
:101290000995009729F19C0140E050E060E472E478
:1012A0008FE090E00E948A0E722F632F009111034D
:1012B000109112032091130330911403872F962F5E
:1012C000DA0180179107A207B30710F4D901C8010A
:1012D0008093110390931203A0931303B09314030C
:1012E00087E893E190931C0380931B0384E690E0CE
:1012F00090931E0380931D0310921F0310922003EE
:101300008FEF809321038FEF90E0909323038093DE
:1013100022038FEF9FEF909325038093240382E0B5
:1013200090E090932703809326038DE891E09093BB
:10133000290380932803C0902302D090240229E03F
:10134000C216D1040CF077C18FE08C9D80018D9D79
:10135000100D1124045D1C4F89819A81D8011196CA
:101360009C938E938B819C8113969C938E93129762
:101370008D819E8115969C938E9314978F811696DE
:101380008C931697888517968C931797898518964E
:101390008C9318978A859B851A969C938E931997A0
:1013A0008C859D851C969C938E931B978E859F851F
:1013B0001E969C938E931D970E94480EF801918370
:1013C000808384EF91E0A0E0B0E08093D40290931A
:1013D000D502A093D602B093D7021092D8021092F1
:1013E000D9021092DA021092DB028091CC02909125
:1013F000CD02A091CE02B091CF028093D002909303
:10140000D102A093D202B093D3020E945F046093F2
:10141000CC027093CD028093CE029093CF0280E0F5
:101420000E9493078823B1F083E10E94C20768E419
:1014300071E080910803909109030E94C007D801D0
:101440006D917C9180910803909109030E94590746
:101450000E94470762E070E080E090E00E94D901BE
:101460000E945F044B015C016093CC027093CD023B
:101470008093CE029093CF022FE02C9DC0012D9D32
:10148000900D1124FC01E45DFC4F7F01808191816E
:1014900063E070E00E94C20D7183608384EF91E08D
:1014A000A0E0B0E08093D4029093D502A093D6023E
:1014B000B093D7021092D8021092D9021092DA0299
:1014C0001092DB028092D0029092D102A092D202BE
:1014D000B092D3020E945F046093CC027093CD025D
:1014E0008093CE029093CF0280E00E9493078823DE
:1014F000B1F084E10E94C20768E471E080910803C2
:10150000909109030E94C007D7016D917C91809151
:101510000803909109030E9459070E94470762E05F
:1015200070E080E090E00E94D9010E945F04609327
:10153000CC027093CD028093CE029093CF024FE005
:101540004C9D90014D9D300D1124F901E45DFC4F3F
:101550007F0124E630E0338322832FEFD8011696F3
:101560002C93169717962C93179718961C9220E198
:1015700037E235832483168615862DE831E03287DD
:10158000218704EF11E020E030E00093D4021093B3
:10159000D5022093D6023093D7021092D80210922F
:1015A000D9021092DA021092DB026093D00270939B
:1015B000D1028093D2029093D3020E945F04609381
:1015C000CC027093CD028093CE029093CF0280E044
:1015D0000E9493078823B1F082E10E94C20768E469
:1015E00071E080910803909109030E94C007F70100
:1015F0006081718180910803909109030E945907CD
:101600000E94470762E070E080E090E00E94D9010C
:101610000E945F046093CC027093CD028093CE024F
:101620009093CF028091230290912402019690938F
:1016300024028093230254E6452E512C68EC262E7A
:10164000312C81E00E949D018C0190938601809352
:10165000850180E00E949D019C019093840180930C
:101660008301E0911B03F0911C03013242E0140757
:101670007CF0C801925069E170E00E94C20DE60F53
:10168000F71FE03157E2F507ACF0EFE0F7E212C0E8
:10169000003E61E0160794F480E092E0801B910B1D
:1016A00067EE7FEF0E94C20DE60FF71FF7FF02C043
:1016B000E0E0F0E0F0931C03E0931B0380918201D3
:1016C000811125C080911D0390911E03213272E08B
:1016D000370754F08532A3E19A071CF48C599F4FC9
:1016E0000EC088E893E10BC0203E314004F5883CF1
:1016F00091051CF08456910902C084E690E0909315
:101700001E0380931D0381E08093820110C021306D
:10171000E2E03E0724F0203232403CF008C080E096
:1017200092E0821B930B809714F410928201A09098
:101730001B03B0901C03E0901D03F0901E03C50135
:101740008E199F0997FF02C080E090E0B1010E94CE
:10175000C20DE62F472F60938B0170938C01C5015A
:101760008E0D9F1D803127E2920714F08FE097E2E3
:10177000B1010E94C20D6B0132E0C30ED11CD092A8
:101780008A01C092890120918701309188010E2F32
:10179000142FF801EE0FFF1FE00FF11F329680911A
:1017A000280390912903E80FF91F88EC809F3001EE
:1017B000819F700C11246A187B08A12CB12C44E67F
:1017C000E40EF11C0C151D050CF046C0C501860D7C
:1017D000971D97FF03C09195819591099701281B4B
:1017E000390B2536310514F024E630E037FF02C00E
:1017F00020E030E04F0152E0851A910840911F032C
:10180000429FC001439F900D1124B2010E94C20D5E
:10181000D4016C934F01B1E08B1A910840912003E1
:10182000429FC001439F900D1124B2010E94C20D3E
:10183000D4016C9340912103429FC001439F900DBE
:101840001124B2010E94C20D60830F5F1F4F3396B7
:10185000B8ECAB0EB11CB6CFE0912302F09124029C
:10186000FB8BEA8BB0908B0140918C0180908901B9
:1018700090908A01C12CD12C9FE0A92EEA89FB8986
:10188000CE16DF060CF0F3C0AC9CF001AD9CF00D61
:101890001124E45DFC4F85859685019796878587A1
:1018A00044815581480F591F57FD03C05583448318
:1018B00007C0158214829195819591099687858735
:1018C000AC9CF001AD9CF00D1124E45DFC4F008157
:1018D00011810280F381E02DC8018E1B9F0B97FFC1
:1018E00002C080E090E0B1010E94C20D7B01B62EE3
:1018F0004F2DC8018E0F9F1F8031F7E29F0714F014
:101900008FE097E2B1010E94C20D4B0152E0850EBB
:10191000911CF701EE0CFF1CEE0EFF1E88EC8E9F53
:10192000B0018F9F700D11247D8B6C8B612C712CFD
:10193000AC9C8001AD9C100D1124045D1C4FD8019E
:101940001296BF8BAE8BB8016C5F7F4F798F688F1B
:10195000C8010996998B888B1496BB8FAA8F6D5FEF
:101960007F4F7D8F6C8F01979F8F8E8FE815F905C4
:101970000CF078C0AE89BF898D919C918C599F4F96
:10198000D8016D917C912C893D89260D371D261B30
:10199000370B37FF03C0319521953109821B930B1B
:1019A00097FD10C09C018536910514F024E630E0C7
:1019B00060E177E2269FC001279F900D369F900D32
:1019C000112402C080E090E0A88DB98D2D913C914A
:1019D00061E177E2621B730B0E94C20D9B01A88933
:1019E000B989CD90DC90CE0CDF1CAA8DBB8D5C91AB
:1019F000569FC001579F900D1124B2010E94C20D45
:101A0000D6016C93A889B989CD90DC90CE0CDF1CEF
:101A1000AC8DBD8D5C91529FC001539F900D1124E0
:101A2000B2010E94C20DD60111966C93A889B989A2
:101A3000CD90DC90CE0CDF1CAE8DBF8D5C91529FA3
:101A4000C001539F900D1124B2010E94C20DD60116
:101A500012966C933196B3E0EB0EF11C58EC650EC8
:101A6000711C84CF6F016FEFC61AD60A07CFD092D0
:101A70002602C09225023093880120938701B092FC
:101A80008B0140938C0190928A0180928901809110
:101A90000E030E942B060E945F046B017C0161E033
:101AA00070E080E090E00E94D90180910E030E94D6
:101AB0002B060E945F04DC01CB018C199D09AE0945
:101AC000BF094497A105B10550F380E090E0FC0107
:101AD000E357FE4F108211821282039686399105D8
:101AE000B1F70E946C00ADCDE9E2F2E01382128200
:101AF00088EE93E0A0E0B0E084839583A683B7836B
:101B00008AE291E09183808385EC90E095878487D9
:101B100084EC90E09787868780EC90E0918B808BB7
:101B200081EC90E0938B828B82EC90E0958B848BA0
:101B300086EC90E0978B868B118E128E138E148E0E
:101B4000E6ECF2E016821782108611861286138662
:101B50001486158616861786108A118A128A138AA9
:101B6000148A158AEEE0F3E08FEF808312821182EF
:101B7000148613868FEF9FEFDC0187839087A18700
:101B8000B287089597FB072E16F4009407D077FDCF
:101B900009D00E94DD0D07FC05D03EF4909581959B
:101BA0009F4F0895709561957F4F08950E94BC0ED8
:101BB000B7FF0895821B930B0895AA1BBB1B51E12D
:101BC00007C0AA1FBB1FA617B70710F0A61BB70BAD
:101BD000881F991F5A95A9F780959095BC01CD0152
:101BE0000895EE0FFF1F0590F491E02D099481E018
:101BF00090E0F8940C94CB0E8F929F92AF92BF928C
:101C0000CF92DF92EF92FF92CF93DF93EC01688146
:101C100079818A819B81611571058105910521F486
:101C200064E279ED8BE597E02DE133EF41E050E0A0
:101C30000E948A0E49015A019B01AC01A7EAB1E456
:101C40000E94A90E6B017C01ACEEB4EFA5019401DA
:101C50000E94B70EDC01CB018C0D9D1DAE1DBF1D7A
:101C6000B7FF03C00197A109B04888839983AA836D
:101C7000BB839F77DF91CF91FF90EF90DF90CF9064
:101C8000BF90AF909F908F9008950E94FC0D089593
:101C900080E091E00E94FC0D0895A0E0B0E0809308
:101CA000000190930101A0930201B09303010895F4
:101CB000DB018F939F930E94A90EBF91AF91A29FCA
:101CC000800D911DA39F900DB29F900D112408953A
:101CD000A1E21A2EAA1BBB1BFD010DC0AA1FBB1F30
:101CE000EE1FFF1FA217B307E407F50720F0A21BA2
:101CF000B30BE40BF50B661F771F881F991F1A940F
:101D000069F760957095809590959B01AC01BD0138
:101D1000CF010895052E97FB1EF400940E94A10E9A
:101D200057FD07D00E94680E07FC03D04EF40C94B8
:101D3000A10E50954095309521953F4F4F4F5F4FE5
:101D4000089590958095709561957F4F8F4F9F4F27
:101D500008950E94BC0EA59F900DB49F900DA49F66
:101D6000800D911D11240895B7FF0C94A90E0E94B7
:101D7000A90E821B930B0895A29FB001B39FC001CF
:101D8000A39F700D811D1124911DB29F700D811DA7
:101D90001124911D089510E0C5E3D0E004C0FE01B8
:101DA0000E94F10D2196C633D107C9F7F894FFCFF1
:101DB00001000000000000007A017A017A0156015A
:101DC00052014F01000000000C01C800C60056017E
:101DD0005201C300130200000000E104A2056000EC
:101DE000B504C9042805564D4450565F317C315F17
:101DF000564D4450560D0A007C005F564D445045E8
:0C1E000000564D4450455F003A323A0055
:107E0000112484B714BE81FFF0D085E080938100F7
:107E100082E08093C00088E18093C10086E0809377
:107E2000C20080E18093C4008EE0C9D0259A86E02C
:107E300020E33CEF91E0309385002093840096BBD3
:107E4000B09BFECF1D9AA8958150A9F7CC24DD24C4
:107E500088248394B5E0AB2EA1E19A2EF3E0BF2EE7
:107E6000A2D0813461F49FD0082FAFD0023811F036
:107E7000013811F484E001C083E08DD089C08234E0
:107E800011F484E103C0853419F485E0A6D080C0E4
:107E9000853579F488D0E82EFF2485D0082F10E0AE
:107EA000102F00270E291F29000F111F8ED06801E7
:107EB0006FC0863521F484E090D080E0DECF843638
:107EC00009F040C070D06FD0082F6DD080E0C81688
:107ED00080E7D80618F4F601B7BEE895C0E0D1E017
:107EE00062D089930C17E1F7F0E0CF16F0E7DF06D8
:107EF00018F0F601B7BEE89568D007B600FCFDCFD4
:107F0000A601A0E0B1E02C9130E011968C91119780
:107F100090E0982F8827822B932B1296FA010C0160
:107F200087BEE89511244E5F5F4FF1E0A038BF0790
:107F300051F7F601A7BEE89507B600FCFDCF97BE46
:107F4000E89526C08437B1F42ED02DD0F82E2BD052
:107F50003CD0F601EF2C8F010F5F1F4F84911BD097
:107F6000EA94F801C1F70894C11CD11CFA94CF0C13
:107F7000D11C0EC0853739F428D08EE10CD085E9AC
:107F80000AD08FE07ACF813511F488E018D01DD067
:107F900080E101D065CF982F8091C00085FFFCCF94
:107FA0009093C60008958091C00087FFFCCF809118
:107FB000C00084FD01C0A8958091C6000895E0E648
:107FC000F0E098E1908380830895EDDF803219F02E
:107FD00088E0F5DFFFCF84E1DECF1F93182FE3DFCA
:107FE0001150E9F7F2DF1F91089580E0E8DFEE27F6
:047FF000FF270994CA
:027FFE00040479
:0400000300007E007B
:00000001FF