:100000000C9435000C945D000C945D000C945D0024
:100010000C945D000C945D000C945D000C945D00EC
:100020000C945D000C945D000C945D000C945D00DC
:100030000C945D000C945D000C945D000C945D00CC
:100040000C9433040C945D000C94CB060C94A50620
:100050000C945D000C945D000C945D000C945D00AC
:100060000C945D000C945D00FD0611241FBECFEFC3
:10007000D8E0DEBFCDBF11E0A0E0B1E0E0E1FAE101
:1000800002C005900D92A637B107D9F725E0A6E783
:10009000B1E001C01D92AA33B207E1F710E0C5E359
:1000A000D0E004C02197FE010E94D709C433D107D4
:1000B000C9F70E944B070C94060D0C940000EF92B8
:1000C000FF920F931F93CF93DF93EC0190917701F1
:1000D0009F5F292F27702093770190FF02C090E83F
:1000E00001C090E021FD9064247009F0906220E14D
:1000F000290FFE013C967E018FE0E80EF11C00E026
:1001000011E06191662331F070E0C8010E94890915
:100110006F5F01C060E0DF0114976C93322F369F50
:10012000030E30E0311D1124CF010797311103C0B8
:10013000EC01188203C03150EC013883662311F0C2
:1001400061506C93EE15FF05E1F6DF91CF911F91A1
:100150000F91FF90EF90089580E991E00895539AF0
:1001600008950F931F93CF93DF93CDB7DEB76297B8
:100170000FB6F894DEBF0FBECDBF8C01F901DC01D4
:100180001C968C917A8369835C834B835E834D8359
:1001900090819D8791819E8792819F87813029F4EC
:1001A000CE0101960E945F0006C01C861B861A863F
:1001B000198618861F8283E0888B1A8A198AD801CB
:1001C000ED91FC910484F585E02DBE016F5F7F4FBA
:1001D000C801099562960FB6F894DEBF0FBECDBF79
:1001E000DF91CF911F910F9108950F931F93CF939C
:1001F000DF93CDB7DEB762970FB6F894DEBF0FBEC0
:10020000CDBF8C01F901DC011C968C917A83698346
:100210005C834B835E834D8390819D8791819E8714
:1002200092819F87813029F4CE0101960E945F0060
:1002300006C01C861B861A86198618861F82188A95
:100240001A8A198AD801ED91FC910484F585E02D74
:10025000BE016F5F7F4FC801099562960FB6F89493
:10026000DEBF0FBECDBFDF91CF911F910F910895DB
:1002700080E090E00895FC01858596850895CF93F0
:10028000DF9300D000D000D0CDB7DEB7AB011C8229
:100290001D821E82DC01ED91FC910190F081E02D28
:1002A00019821A821B829E012F5F3F4FBE016C5F35
:1002B0007F4F099526960FB6F894DEBF0FBECDBFCF
:1002C000DF91CF9108950E94DD098E3008F08E50A5
:1002D0008770806480937C0080917A008064809332
:1002E0007A0080917A0086FDFCCF80917800209181
:1002F000790090E0922B08953FB7F89480917D01AA
:1003000090917E01A0917F01B091800126B5A89BBC
:1003100005C02F3F19F00196A11DB11D3FBFBA2F97
:10032000A92F982F8827820F911DA11DB11DBC01F7
:10033000CD0142E0660F771F881F991F4A95D1F7BC
:1003400008958F929F92AF92BF92CF92DF92EF92D9
:10035000FF926B017C010E947C014B015C01C11486
:10036000D104E104F104F1F00E947C01DC01CB0135
:1003700088199909AA09BB09883E9340A105B105CE
:1003800070F321E0C21AD108E108F10888EE880E66
:1003900083E0981EA11CB11CC114D104E104F10436
:1003A00019F7DDCFFF90EF90DF90CF90BF90AF9027
:1003B0009F908F9008954F925F926F927F928F924D
:1003C000AF92BF92CF92EF92FF920F931F93CF9372
:1003D000DF933C01EB010E947C01F301278530890A
:1003E000621B730B6A307105B0F3F894E881F981F0
:1003F0005BB158608BB1877F8BB969859E81262F51
:10040000291B922F2E83BF844A805B807C85FD84CC
:10041000EE847F5FF394E3943F814885AA84CB8484
:100420001081D20120E0C32F022F322F30811127FB
:1004300088943111390F08F43FEF9195889470FD3D
:10044000130F1795889471FD130F1795889472FDFB
:10045000130F1795889473FD130F1795889474FDE7
:10046000130F1795889475FD130F1795889476FDD3
:10047000130F1795889477FD130F17958894232FE2
:100480007111212F960F122F002C5BB900C000C0F4
:1004900017FF8BB931812227889400C0002C8BB9BB
:1004A00031113C0F00C0002C5BB900C000C016FF2A
:1004B0008BB908F43FEFC195889400C0002C8BB92C
:1004C000F0FC230F00C0002C5BB900C000C015FF7A
:1004D0008BB927958894F1FC230F00C0002C8BB9B1
:1004E0002795889400C0002C5BB900C000C014FFA1
:1004F0008BB9F2FC230F2795889400C0002C8BB990
:10050000F3FC230F00C0002C5BB900C000C013FF38
:100510008BB927958894F4FC230F00C0002C8BB96D
:100520002795889400C0002C5BB900C000C012FF62
:100530008BB9F5FC230F2795889400C0002C8BB94C
:10054000F6FC230F00C0002C5BB900C000C011FFF7
:100550008BB927958894F7FC230F00C0002C8BB92A
:100560002795889400C0002C5BB900C000C010FF24
:100570008BB9132FF110122FCA0D00C0002C8BB9AC
:1005800000C000C0002C5BB900C000C017FF8BB9D1
:1005900032812227889400C0002C8BB93111340F8E
:1005A00000C0002C5BB900C000C016FF8BB908F476
:1005B0003FEFEB0DF11D00C0002C8BB9E0FC230FC9
:1005C00000C0002C5BB900C000C015FF8BB9279597
:1005D0008894E1FC230F00C0002C8BB927958894E8
:1005E00000C0002C5BB900C000C014FF8BB9E2FC56
:1005F000230F2795889400C0002C8BB9E3FC230FB0
:1006000000C0002C5BB900C000C013FF8BB9279558
:100610008894E4FC230F00C0002C8BB927958894A4
:1006200000C0002C5BB900C000C012FF8BB9E5FC14
:10063000230F2795889400C0002C8BB9E6FC230F6C
:1006400000C0002C5BB900C000C011FF8BB927951A
:100650008894E7FC230F00C0002C8BB92795889461
:1006600000C0002C5BB900C000C010FF8BB9132F75
:10067000E110122F419500C0002C8BB94C0D00C029
:1006800000C05BB900C000C017FF8BB930812227C2
:10069000889400C0002C8BB93111390F00C0002C98
:1006A0005BB900C000C016FF8BB908F43FEF91950D
:1006B000889400C0002C8BB970FD230F00C0002C63
:1006C0005BB900C000C015FF8BB92795889471FDF8
:1006D000230F00C0002C8BB92795889400C0002CF4
:1006E0005BB900C000C014FF8BB972FD230F2795C2
:1006F000889400C0002C8BB973FD230F00C0002C20
:100700005BB900C000C013FF8BB92795889474FDB6
:10071000230F00C0002C8BB92795889400C0002CB3
:100720005BB900C000C012FF8BB975FD230F279580
:10073000889400C0002C8BB976FD230F00C0002CDC
:100740005BB900C000C011FF8BB92795889477FD75
:10075000230F00C0002C8BB92795889400C0002C73
:100760005BB900C000C010FF8BB9132F7111122F9D
:10077000960F00C0002C8BB9119709F086CE20EEA1
:1007800031E0D2010E94BC09DC01CB01F4E0B69556
:10079000A79597958795FA95D1F720E030E0A901C4
:1007A0006AE9469E412D569E400D511D1124840F2D
:1007B000951FA11DB11D893E43E09407A105B10518
:1007C00088F1885E9340A109B10942E0B695A795EA
:1007D000979587954A95D1F747E0849F212D949F5F
:1007E000200D311D11246091760170E0860F971F56
:1007F000820F931F4091790150917A0160917B01A2
:1008000070917C01292F3327420F531F611D711DE9
:100810004093790150937A0160937B0170937C013E
:100820008093760178940E947C01F301708B678736
:10083000DF91CF911F910F91FF90EF90CF90BF90DC
:10084000AF908F907F906F905F904F9008952FB7EB
:10085000F8946091790170917A0180917B01909177
:100860007C012FBF08951F920F920FB60F92112493
:100870002F933F938F939F93AF93BF938091790171
:1008800090917A01A0917B01B0917C013091780127
:1008900023E0230F2D3720F40196A11DB11D05C0C3
:1008A00026E8230F0296A11DB11D209378018093A5
:1008B000790190937A01A0937B01B0937C018091A0
:1008C0007D0190917E01A0917F01B0918001019600
:1008D000A11DB11D80937D0190937E01A0937F01A6
:1008E000B0938001BF91AF919F918F913F912F91D4
:1008F0000F900FBE0F901F901895CF92DF92EF923E
:10090000FF920F931F93CF93DF936C017A018B01BA
:10091000C0E0D0E0CE15DF0589F0D8016D918D01E2
:10092000D601ED91FC910190F081E02DC601099571
:10093000892B11F47E0102C02196ECCFC701DF9113
:10094000CF911F910F91FF90EF90DF90CF9008957E
:10095000FC01918D828D981761F0828DDF01A80FC7
:10096000B11D5D968C91928D9F5F9F73928F90E0E9
:1009700008958FEF9FEF0895FC01918D828D981758
:1009800031F0828DE80FF11D858D90E008958FEF95
:100990009FEF0895FC01918D228D892F90E0805C5E
:1009A0009F4F821B91098F739927089588E494E0E3
:1009B0000E94CA0421E0892B09F420E0822F0895C7
:1009C000FC01848DDF01A80FB11DA35ABF4F2C91EC
:1009D000848D90E001968F739927848FA689B789BB
:1009E0002C93A089B1898C9180648C93938D848D94
:1009F000981306C00288F389E02D80818F7D808363
:100A00000895EF92FF920F931F93CF93DF93EC0122
:100A100081E0888F9B8D8C8D981305C0E889F989BA
:100A2000808185FD24C0F62E0B8D10E00F5F1F4FD7
:100A30000F731127E02E8C8DE8120CC00FB607FC47
:100A4000FACFE889F989808185FFF5CFCE010E9430
:100A5000E004F1CF8B8DFE01E80FF11DE35AFF4F4B
:100A6000F0820B8FEA89FB898081806207C0EE8962
:100A7000FF896083E889F98980818064808381E0CF
:100A800090E0DF91CF911F910F91FF90EF9008952B
:100A9000CF93DF93EC01888D8823C9F0EA89FB8925
:100AA000808185FD05C0A889B9898C9186FD0FC01C
:100AB0000FB607FCF5CF808185FFF2CFA889B989F1
:100AC0008C9185FFEDCFCE010E94E004E7CFDF914E
:100AD000CF91089580E090E0892B29F00E94D60400
:100AE00081110C94000008953F924F925F926F9293
:100AF0007F928F929F92AF92BF92CF92DF92EF92AE
:100B0000FF920F931F93CF93DF9300D01F92CDB727
:100B1000DEB7F82E8091300590913105A091320515
:100B2000B0913305892B8A2B8B2BE9F00E947C0135
:100B300000914404109145042091460430914704EB
:100B4000DC01CB01801B910BA20BB30B0091300594
:100B500010913105209132053091330580179107AE
:100B6000A207B307B8F20E947C016093440470931B
:100B700045048093460490934704E0913805F09132
:100B80003905309759F04091340550913505609101
:100B90003605709137058F2D0995F82E0091420486
:100BA000109143044F2C512C612C712C011511050F
:100BB00009F461C0D8011C96EC901C9780912E0519
:100BC00090912F058436910510F41C961C92D80143
:100BD000ED91FC91A280B38019821A821B82F110E0
:100BE00014C0F80145855685628173819E012F5F8F
:100BF0003F4FC801F5010995D8011C96EC921C974E
:100C000014960D911C911597D1CFF8013996CE010C
:100C100001966C0148019CE0890E911CDF0113973D
:100C20003C902191332001F12223F1F0822F90E0BA
:100C3000A0E0B0E09C01AD012F5F3F4F4F4F5F4FF1
:100C4000C301B2010E94830C9B01AC01832D90E093
:100C5000A0E0B0E0BC01CD016F5F7F4F8F4F9F4F91
:100C60000E94830CD6018C93BFEFCB1ADB0AE815E8
:100C7000F905A1F6B6CF80914004909141048C0112
:100C80000F5F1F4F109341040093400449979CF15C
:100C90000E9427044B015C0188EE93E0089FB0019D
:100CA000099F700D189F700D1124072E000C880BE2
:100CB000990BC0903C04D0903D04E0903E04F0902D
:100CC0003F04A50194012C193D094E095F090E94BA
:100CD000930C30932F0520932E051092410410920F
:100CE00040040E94270460933C0470933D04809369
:100CF0003E0490933F040F900F900F90DF91CF919F
:100D00001F910F91FF90EF90DF90CF90BF90AF9029
:100D10009F908F907F906F905F904F903F9008953D
:100D20006115710579F0FB0101900020E9F7319719
:100D3000AF01461B570BDC01ED91FC910280F38162
:100D4000E02D099480E090E008951F920F920FB675
:100D50000F9211242F933F934F935F936F937F9341
:100D60008F939F93AF93BF93EF93FF9388E494E0A7
:100D70000E94E004FF91EF91BF91AF919F918F91FD
:100D80007F916F915F914F913F912F910F900FBE87
:100D90000F901F9018951F920F920FB60F9211246B
:100DA0002F938F939F93EF93FF93E0915804F091CB
:100DB00059048081E0915E04F0915F0482FD12C0CD
:100DC0009081809161048F5F8F73209162048217FC
:100DD00051F0E0916104F0E0E85BFB4F958F809368
:100DE000610401C08081FF91EF919F918F912F91BC
:100DF0000F900FBE0F901F901895E8E4F4E0138257
:100E0000128288EE93E0A0E0B0E084839583A6830D
:100E1000B78386E291E09183808385EC90E09587AB
:100E2000848784EC90E09787868780EC90E0918BB4
:100E3000808B81EC90E0938B828B82EC90E0958BA1
:100E4000848B86EC90E0978B868B118E128E138E9E
:100E5000148EE5EEF4E01682178210861186128653
:100E600013861486158616861786108A118A128AAA
:100E7000138A148A158AEDE2F5E08FEF80831282DF
:100E80001182148613868FEF9FEFDC018783908792
:100E9000A187B2870895789484B5826084BD84B5B3
:100EA000816084BD85B5826085BD85B5816085BD65
:100EB00080916E00816080936E001092810080911D
:100EC00081008260809381008091810081608093A5
:100ED0008100809180008160809380008091B100CA
:100EE00084608093B1008091B00081608093B000F5
:100EF00080917A00846080937A0080917A00826089
:100F000080937A0080917A00816080937A0080914A
:100F10007A00806880937A001092C10010922905AF
:100F200010922A0510922B0510922C051092E704BE
:100F30001092E8041092E9041092EA0460ED77E060
:100F400080E090E00E94A10188E494E0909328055D
:100F500080932705E0915804F091590482E0808342
:100F6000E0915404F09155041082E0915604F09100
:100F7000570480E1808310926004E0915C04F0915A
:100F80005D0486E08083E0915A04F0915B048081E7
:100F900080618083E0915A04F0915B0480818860D5
:100FA0008083E0915A04F0915B04808180688083A3
:100FB000E0915A04F0915B0480818F7D80830E94D0
:100FC00027046093E7047093E8048093E904909306
:100FD000EA0462E371E080912705909128050E9460
:100FE00090066AE070E080E090E00E94A10191E04C
:100FF0009093FB0480919401811144C0109286016A
:10100000109285018FEF8093890180938A018093EC
:101010008B0180938C0180938D0180938E0190933E
:101020008F011092910110929001109288011092FC
:1010300087018091420490914304892B31F483E825
:1010400091E09093430480934204E0918101F091F8
:101050008201309721F083E891E09583848383E8CF
:1010600091E09093820180938101109293011092FC
:10107000920184E191E0909384018093830181E067
:1010800080939401E0918301F09184010480F581C3
:10109000E02D83E891E0099582EA93E09093860140
:1010A0008093850182E390E0909391018093900179
:1010B000E0918301F09184010284F385E02D83E8BF
:1010C00091E00995009729F19C0140E050E060E42F
:1010D00072E48FE090E00E949D09722F632F0091CF
:1010E0003005109131052091320530913305872F5D
:1010F000962FDA0180179107A207B30710F4D901E0
:10110000C8018093300590933105A0933205B093C8
:10111000330589E190E090933904809338048FEF90
:1011200090E090933B0480933A048FEF9FEF90936D
:101130009F0380939E0385E090E09093A1038093AA
:10114000A00304E411E02EE9E22E21E0F22ECC24EB
:10115000CA94DC2CAA24A394B12C80913A04E09187
:101160003804F09139049F01220F331FE20FF31F5F
:10117000EE55FC4F80838183828380912D050E94F0
:1011800074050E9427042B013C0161E070E080E0BF
:1011900090E00E94A10180912D050E9474050E949B
:1011A0002704DC01CB0184199509A609B7090A9720
:1011B000A105B10550F380E090E0FC01EE55FC4F35
:1011C000108211821282039686399105B1F78091BF
:1011D000A1038F938091A0038F9380919F038F939E
:1011E00080919E038F9380913B048F9380913A046A
:1011F0008F93809139048F93809138048F931F933C
:101200000F93FF92EF920E94E2096EE971E088E489
:1012100094E00E94900661E471E088E494E00E940A
:101220009006C091A003D091A10380919E0390915C
:101230009F03C89F9001C99F300DD89F300D112486
:1012400080913A0490913B04820F931F90933B044A
:1012500080933A042DB73EB7245F3F4F0FB6F89402
:101260003EBF0FBE2DBF823091052CF4B0929F037C
:10127000A0929E0307C08E3F910524F0D0929F0359
:10128000C0929E0381E00E94650190939D0180932E
:101290009C018C3931E0930764F48091380490917B
:1012A00039048133910514F4019611C081E390E073
:1012B0000EC0853692407CF08091380490913904BC
:1012C0001816190614F4019702C080E090E090937C
:1012D00039048093380482E00E94650190939D0157
:1012E00080939C018C3931E0930744F41C161D0651
:1012F00014F4219707C0C0E0D0E004C085369240C6
:101300002CF02196D093A103C093A0030E946A05FC
:1013100024CF97FB072E16F4009407D077FD09D051
:101320000E94C30907FC05D03EF4909581959F4F1C
:101330000895709561957F4F0895052E97FB1EF4D3
:1013400000940E94B40957FD07D00E94930C07FC3B
:1013500003D04EF40C94B4095095409530952195E6
:101360003F4F4F4F5F4F08959095809570956195D1
:101370007F4F8F4F9F4F08950E94F70CB7FF08953E
:10138000821B930B0895AA1BBB1B51E107C0AA1F28
:10139000BB1FA617B70710F0A61BB70B881F991F16
:1013A0005A95A9F780959095BC01CD010895EE0F4F
:1013B000FF1F0590F491E02D099481E090E0F894EE
:1013C0000C94060DAEE0B0E0E8EEF9E00C94CE0C23
:1013D0000D891E8986E08C831A8309838FEF9FE72E
:1013E0009E838D83AE01475E5F4F6F89788DCE01FE
:1013F00001960E94050A2F813885F801E20FF31F3C
:1014000010822E96E4E00C94EA0CACE0B0E0EBE045
:10141000FAE00C94C00C7C016B018A01FC0117827C
:101420001682838181FFBDC1CE0101964C01F70177
:101430009381F60193FD859193FF81916F0188233C
:1014400009F4ABC1853239F493FD859193FF819105
:101450006F01853229F4B70190E00E94ED0BE7CFD0
:10146000512C312C20E02032A0F48B3269F030F482
:10147000803259F0833269F420612CC08D3239F00A
:10148000803339F4216026C02260246023C02860A4
:1014900021C027FD27C030ED380F3A3078F426FF01
:1014A00006C0FAE05F9E300D1124532E13C08AE06F
:1014B000389E300D1124332E20620CC08E3221F460
:1014C00026FD6BC1206406C08C3611F4206802C072
:1014D000883641F4F60193FD859193FF81916F0168
:1014E0008111C1CF982F9F7D9554933028F40C5FC4
:1014F0001F4FFFE3F9830DC0833631F0833771F05E
:10150000833509F05BC022C0F801808189830E5FBA
:101510001F4F44244394512C540115C03801F2E06C
:101520006F0E711CF801A080B18026FF03C0652DED
:1015300070E002C06FEF7FEFC5012C870E94E20BC5
:101540002C0183012C852F77222E17C03801F2E061
:101550006F0E711CF801A080B18026FF03C0652DBD
:1015600070E002C06FEF7FEFC5012C870E94D70BA0
:101570002C012C852068222E830123FC1BC0832D87
:1015800090E048165906B0F4B70180E290E00E945E
:10159000ED0B3A94F4CFF50127FC859127FE81915C
:1015A0005F01B70190E00E94ED0B31103A94F1E039
:1015B0004F1A51084114510471F7E5C0843611F0F7
:1015C000893639F5F80127FF07C060817181828172
:1015D00093810C5F1F4F08C060817181072E000C42
:1015E000880B990B0E5F1F4F2F76722E97FF09C045
:1015F00090958095709561957F4F8F4F9F4F206894
:10160000722E2AE030E0A4010E94250CA82EA81812
:1016100044C0853729F42F7EB22E2AE030E025C061
:10162000F22FF97FBF2E8F36C1F018F4883579F08C
:10163000B4C0803719F0883721F0AFC02F2F206158
:10164000B22EB4FE0DC08B2D8460B82E09C024FFCD
:101650000AC09F2F9660B92E06C028E030E005C072
:1016600020E130E002C020E132E0F801B7FE07C01F
:1016700060817181828193810C5F1F4F06C0608100
:10168000718180E090E00E5F1F4FA4010E94250C45
:10169000A82EA818FB2DFF777F2E76FE0BC0372DC6
:1016A0003E7FA51450F474FE0AC072FC08C0372DAA
:1016B0003E7E05C0BA2C372D03C0BA2C01C0B52C14
:1016C00034FF0DC0FE01EA0DF11D8081803311F45D
:1016D000397E09C032FF06C0B394B39404C0832F8F
:1016E000867809F0B39433FD13C030FF06C05A2C3E
:1016F000B31418F4530C5B18B32CB31468F4B7018B
:1017000080E290E03C870E94ED0BB3943C85F5CFDE
:10171000B31410F43B1801C0312C34FF12C0B701D0
:1017200080E390E03C870E94ED0B3C8532FF17C0C0
:1017300031FD03C088E790E002C088E590E0B70182
:101740000CC0832F867859F031FF02C08BE201C0B4
:1017500080E237FD8DE2B70190E00E94ED0BA51409
:1017600038F4B70180E390E00E94ED0B5A94F7CF74
:10177000AA94F401EA0DF11D8081B70190E00E9466
:10178000ED0BA110F5CF332009F451CEB70180E263
:1017900090E00E94ED0B3A94F6CFF7018681978195
:1017A00002C08FEF9FEF2C96E2E10C94DC0CFC0161
:1017B0000590615070400110D8F7809590958E0F7C
:1017C0009F1F0895FC016150704001900110D8F7EF
:1017D000809590958E0F9F1F08950F931F93CF9321
:1017E000DF93FB01238121FD03C08FEF9FEF28C012
:1017F00022FF16C046815781248135814217530745
:1018000044F4A081B1819D012F5F3F4F318320833C
:101810008C93268137812F5F3F4F3783268310C0FB
:10182000EB01092F182F0084F185E02D0995892BF4
:10183000E1F68E819F8101969F838E83812F902F69
:10184000DF91CF911F910F910895FA01AA272830B7
:1018500051F1203181F1E8946F936E7F6E5F7F4F7D
:101860008F4F9F4FAF4FB1E03ED0B4E03CD0670FF9
:10187000781F891F9A1FA11D680F791F8A1F911D4C
:10188000A11D6A0F711D811D911DA11D20D009F49C
:1018900068943F912AE0269F11243019305D3193DE
:1018A000DEF6CF010895462F4770405D4193B3E0C7
:1018B0000FD0C9F7F6CF462F4F70405D4A3318F06E
:1018C000495D31FD4052419302D0A9F7EACFB4E01F
:1018D000A6959795879577956795BA95C9F70097D7
:1018E0006105710508959B01AC010A2E0694579578
:1018F000479537952795BA95C9F7620F731F841FCF
:10190000951FA01D0895DB018F939F930E94B50C36
:10191000BF91AF91A29F800D911DA39F900DB29F8B
:10192000900D11240895A1E21A2EAA1BBB1BFD01E4
:101930000DC0AA1FBB1FEE1FFF1FA217B307E407AE
:10194000F50720F0A21BB30BE40BF50B661F771F06
:10195000881F991F1A9469F76095709580959095E6
:101960009B01AC01BD01CF0108950E94F70CA59F1A
:10197000900DB49F900DA49F800D911D112408958A
:101980002F923F924F925F926F927F928F929F928F
:10199000AF92BF92CF92DF92EF92FF920F931F937D
:1019A000CF93DF93CDB7DEB7CA1BDB0B0FB6F8942E
:1019B000DEBF0FBECDBF09942A88398848885F846E
:1019C0006E847D848C849B84AA84B984C884DF80DF
:1019D000EE80FD800C811B81AA81B981CE0FD11DC3
:1019E0000FB6F894DEBF0FBECDBFED010895A29FE4
:1019F000B001B39FC001A39F700D811D1124911DE3
:101A0000B29F700D811D1124911D0895F894FFCF90
:101A1000000000006301630163013F013B013801E5
:101A200000000000F500B100AF003F013B01AC0039
:101A3000DB010000000001057D04CA04A804BC0409
:101A40004805564D4450565F317C315F564D4450E9
:101A5000560D0A0063757272656E743A2025642C07
:101A6000206272696768743A2025642C206272696A
:101A7000676874443A2025642C206273706565643D
:061A80003A20256400007D
:00000001FF
