:100000000C9435000C945D000C945D000C945D0024
:100010000C945D000C945D000C945D000C945D00EC
:100020000C945D000C945D000C945D000C945D00DC
:100030000C945D000C945D000C945D000C945D00CC
:100040000C9475040C945D000C944F070C942907D4
:100050000C945D000C945D000C945D000C945D00AC
:100060000C945D000C945D00810711241FBECFEF3E
:10007000D8E0DEBFCDBF11E0A0E0B1E0E8E4F2E2FD
:1000800002C005900D92AA3FB107D9F725E0AAEF6B
:10009000B1E001C01D92AF3CB207E1F710E0C5E34B
:1000A000D0E004C02197FE010E94220CC433D10786
:1000B000C9F70E94CF070C9422110C940000FC0198
:1000C000918D828D981761F0828DDF01A80FB11D8F
:1000D0005D968C91928D9F5F9F73928F90E00895B3
:1000E0008FEF9FEF0895FC01918D828D981731F06D
:1000F000828DE80FF11D858D90E008958FEF9FEFC1
:100100000895FC01918D228D892F90E0805C9F4F96
:10011000821B91098F739927089580E090E0892BC5
:1001200029F00E94EA0481110C9400000895EF92D6
:10013000FF920F931F93CF93DF93EC019091FB01FC
:100140009F5F292F27702093FB0190FF02C090E84A
:1001500001C090E021FD9064247009F0906220E1DC
:10016000290FFE013C967E018FE0E80EF11C00E0B5
:1001700011E06191662331F070E0C8010E94D40B58
:100180006F5F01C060E0DF0114976C93322F369FE0
:10019000030E30E0311D1124CF010797311103C048
:1001A000EC01188203C03150EC013883662311F052
:1001B00061506C93EE15FF05E1F6DF91CF911F9131
:1001C0000F91FF90EF90089580E991E00895539A80
:1001D00008950F931F93CF93DF93CDB7DEB7629748
:1001E0000FB6F894DEBF0FBECDBF8C01F901DC0164
:1001F0001C968C917A8369835C834B835E834D83E9
:1002000090819D8791819E8792819F87813029F47B
:10021000CE0101960E94970006C01C861B861A8696
:10022000198618861F8283E0888B1A8A198AD8015A
:10023000ED91FC910484F585E02DBE016F5F7F4F49
:10024000C801099562960FB6F894DEBF0FBECDBF08
:10025000DF91CF911F910F9108950F931F93CF932B
:10026000DF93CDB7DEB762970FB6F894DEBF0FBE4F
:10027000CDBF8C01F901DC011C968C917A836983D6
:100280005C834B835E834D8390819D8791819E87A4
:1002900092819F87813029F4CE0101960E949700B8
:1002A00006C01C861B861A86198618861F82188A25
:1002B0001A8A198AD801ED91FC910484F585E02D04
:1002C000BE016F5F7F4FC801099562960FB6F89423
:1002D000DEBF0FBECDBFDF91CF911F910F9108956B
:1002E00080E090E00895FC01858596850895CF9380
:1002F000DF9300D000D000D0CDB7DEB7AB011C82B9
:100300001D821E82DC01ED91FC910190F081E02DB7
:1003100019821A821B829E012F5F3F4FBE016C5FC4
:100320007F4F099526960FB6F894DEBF0FBECDBF5E
:10033000DF91CF9108950E94D50CFC01848DDF01DF
:10034000A80FB11DA35ABF4F2C91848D90E0019648
:100350008F739927848FA689B7892C93A089B18937
:100360008C9180648C93938D848D981306C0028841
:10037000F389E02D80818F7D808308953FB7F894C5
:100380008091010290910202A0910302B0910402B7
:1003900026B5A89B05C02F3F19F00196A11DB11DE0
:1003A0003FBFBA2FA92F982F8827820F911DA11D1B
:1003B000B11DBC01CD0142E0660F771F881F991F58
:1003C0004A95D1F708958F929F92AF92BF92CF92A4
:1003D000DF92EF92FF926B017C010E94BE014B0104
:1003E0005C01C114D104E104F104F1F00E94BE01EA
:1003F000DC01CB0188199909AA09BB09883E934001
:10040000A105B10570F321E0C21AD108E108F10895
:1004100088EE880E83E0981EA11CB11CC114D10483
:10042000E104F10419F7DDCFFF90EF90DF90CF905A
:10043000BF90AF909F908F9008954F925F926F9270
:100440007F928F92AF92BF92CF92EF92FF920F93D3
:100450001F93CF93DF933C01EB010E94BE01F30198
:1004600027853089621B730B6A307105B0F3F894ED
:10047000E881F9815BB158608BB1877F8BB9698561
:100480009E81262F291B922F2E83BF844A805B805A
:100490007C85FD84EE847F5FF394E3943F814885FF
:1004A000AA84CB841081D20120E0C32F022F322FE7
:1004B0003081112788943111390F08F43FEF91955D
:1004C000889470FD130F1795889471FD130F17957D
:1004D000889472FD130F1795889473FD130F179569
:1004E000889474FD130F1795889475FD130F179555
:1004F000889476FD130F1795889477FD130F179541
:100500008894232F7111212F960F122F002C5BB985
:1005100000C000C017FF8BB931812227889400C02A
:10052000002C8BB931113C0F00C0002C5BB900C00E
:1005300000C016FF8BB908F43FEFC195889400C046
:10054000002C8BB9F0FC230F00C0002C5BB900C05D
:1005500000C015FF8BB927958894F1FC230F00C0CC
:10056000002C8BB92795889400C0002C5BB900C083
:1005700000C014FF8BB9F2FC230F2795889400C0AC
:10058000002C8BB9F3FC230F00C0002C5BB900C01A
:1005900000C013FF8BB927958894F4FC230F00C08B
:1005A000002C8BB92795889400C0002C5BB900C043
:1005B00000C012FF8BB9F5FC230F2795889400C06B
:1005C000002C8BB9F6FC230F00C0002C5BB900C0D7
:1005D00000C011FF8BB927958894F7FC230F00C04A
:1005E000002C8BB92795889400C0002C5BB900C003
:1005F00000C010FF8BB9132FF110122FCA0D00C0CD
:10060000002C8BB900C000C0002C5BB900C000C03A
:1006100017FF8BB932812227889400C0002C8BB938
:100620003111340F00C0002C5BB900C000C016FFB0
:100630008BB908F43FEFEB0DF11D00C0002C8BB916
:10064000E0FC230F00C0002C5BB900C000C015FF08
:100650008BB927958894E1FC230F00C0002C8BB93F
:100660002795889400C0002C5BB900C000C014FF1F
:100670008BB9E2FC230F2795889400C0002C8BB91E
:10068000E3FC230F00C0002C5BB900C000C013FFC7
:100690008BB927958894E4FC230F00C0002C8BB9FC
:1006A0002795889400C0002C5BB900C000C012FFE1
:1006B0008BB9E5FC230F2795889400C0002C8BB9DB
:1006C000E6FC230F00C0002C5BB900C000C011FF86
:1006D0008BB927958894E7FC230F00C0002C8BB9B9
:1006E0002795889400C0002C5BB900C000C010FFA3
:1006F0008BB9132FE110122F419500C0002C8BB93C
:100700004C0D00C000C05BB900C000C017FF8BB922
:1007100030812227889400C0002C8BB93111390F09
:1007200000C0002C5BB900C000C016FF8BB908F4F4
:100730003FEF9195889400C0002C8BB970FD230F7A
:1007400000C0002C5BB900C000C015FF8BB9279515
:10075000889471FD230F00C0002C8BB927958894D5
:1007600000C0002C5BB900C000C014FF8BB972FD43
:10077000230F2795889400C0002C8BB973FD230F9D
:1007800000C0002C5BB900C000C013FF8BB92795D7
:10079000889474FD230F00C0002C8BB92795889492
:1007A00000C0002C5BB900C000C012FF8BB975FD02
:1007B000230F2795889400C0002C8BB976FD230F5A
:1007C00000C0002C5BB900C000C011FF8BB9279599
:1007D000889477FD230F00C0002C8BB9279588944F
:1007E00000C0002C5BB900C000C010FF8BB9132FF4
:1007F0007111122F960F00C0002C8BB9119709F0C0
:1008000086CE20EE31E0D2010E94070CDC01CB0144
:10081000F4E0B695A79597958795FA95D1F720E0DE
:1008200030E0A9016AE9469E412D569E400D511DBA
:100830001124840F951FA11DB11D893E43E094072B
:10084000A105B10588F1885E9340A109B10942E094
:10085000B695A795979587954A95D1F747E0849FD8
:10086000212D949F200D311D11246091FA0170E01B
:10087000860F971F820F931F4091FD015091FE013B
:100880006091FF0170910002292F3327420F531FFF
:10089000611D711D4093FD015093FE016093FF01A6
:1008A000709300028093FA0178940E94BE01F301D4
:1008B000708B6787DF91CF911F910F91FF90EF9021
:1008C000CF90BF90AF908F907F906F905F904F9040
:1008D00008952FB7F8946091FD017091FE01809109
:1008E000FF01909100022FBF08951F920F920FB643
:1008F0000F9211242F933F938F939F93AF93BF93A6
:100900008091FD019091FE01A091FF01B091000244
:100910003091FC0123E0230F2D3720F40196A11D17
:10092000B11D05C026E8230F0296A11DB11D20931D
:10093000FC018093FD019093FE01A093FF01B09311
:1009400000028091010290910202A0910302B091F5
:1009500004020196A11DB11D809301029093020231
:10096000A0930302B0930402BF91AF919F918F9126
:100970003F912F910F900FBE0F901F901895CF921F
:10098000DF92EF92FF920F931F93CF93DF936C014F
:100990007A018B01C0E0D0E0CE15DF0589F0D801E7
:1009A0006D918D01D601ED91FC910190F081E02DCA
:1009B000C6010995892B11F47E0102C02196ECCF66
:1009C000C701DF91CF911F910F91FF90EF90DF90C2
:1009D000CF9008958DED94E00E94810021E0892B55
:1009E00009F420E0822F08953F924F925F926F9218
:1009F0007F928F929F92AF92BF92CF92DF92EF92AF
:100A0000FF920F931F93CF93DF9300D01F92CDB728
:100A1000DEB7F82E8091C5059091C605A091C70557
:100A2000B091C805892B8A2B8B2BE9F00E94BE015F
:100A30000091D9041091DA042091DB043091DC0498
:100A4000DC01CB01801B910BA20BB30B0091C50500
:100A50001091C6052091C7053091C80580179107F0
:100A6000A207B307B8F20E94BE016093D904709345
:100A7000DA048093DB049093DC04E091CD05F091DF
:100A8000CE05309759F04091C9055091CA05609143
:100A9000CB057091CC058F2D0995F82E0091D704C8
:100AA0001091D8044F2C512C612C712C011511057B
:100AB00009F461C0D8011C96EC901C978091C30585
:100AC0009091C4058436910510F41C961C92D801AF
:100AD000ED91FC91A280B38019821A821B82F110E1
:100AE00014C0F80145855685628173819E012F5F90
:100AF0003F4FC801F5010995D8011C96EC921C974F
:100B000014960D911C911597D1CFF8013996CE010D
:100B100001966C0148019CE0890E911CDF0113973E
:100B20003C902191332001F12223F1F0822F90E0BB
:100B3000A0E0B0E09C01AD012F5F3F4F4F4F5F4FF2
:100B4000C301B2010E949F109B01AC01832D90E074
:100B5000A0E0B0E0BC01CD016F5F7F4F8F4F9F4F92
:100B60000E949F10D6018C93BFEFCB1ADB0AE815C9
:100B7000F905A1F6B6CF8091D5049091D6048C01E9
:100B80000F5F1F4F1093D6040093D50449979CF133
:100B90000E9469044B015C0188EE93E0089FB0015C
:100BA000099F700D189F700D1124072E000C880BE3
:100BB000990BC090D104D090D204E090D304F0906F
:100BC000D404A50194012C193D094E095F090E9426
:100BD000AF103093C4052093C3051092D604109231
:100BE000D5040E9469046093D1047093D204809369
:100BF000D3049093D4040F900F900F90DF91CF9176
:100C00001F910F91FF90EF90DF90CF90BF90AF902A
:100C10009F908F907F906F905F904F903F9008953E
:100C20006115710579F0FB0101900020E9F731971A
:100C3000AF01461B570BDC01ED91FC910280F38163
:100C4000E02D099480E090E00895CF93DF93BC01FC
:100C50008DED94E00E941006EC0161E471E08DEDF1
:100C600094E00E9410068C0F9D1FDF91CF91089594
:100C70004F925F926F927F92EF92FF920F931F932A
:100C8000CF93DF93CDB7DEB7A1970FB6F894DEBF51
:100C90000FBECDBF7C01FA01CB0119A2223008F4AE
:100CA0002AE08E010F5D1F4F422E512C612C712CBA
:100CB000BF01A30192010E94AF10F901CA010150C6
:100CC00011096A3014F4605D01C0695CD8016C934D
:100CD000232B242B252B61F7B801C7010E94100696
:100CE000A1960FB6F894DEBF0FBECDBFDF91CF91B6
:100CF0001F910F91FF90EF907F906F905F904F90BA
:100D00000895CF92DF92EF92FF92CF93DF936C0121
:100D1000990FEE08FF08F7FE1CC0E091DD04F0918A
:100D2000DE040190F081E02D6DE28DED94E00995F7
:100D3000EC0144275527BA014C195D096E097F095A
:100D40002AE08DED94E00E9438067C01EC0EFD1E39
:100D500008C02AE0B701A6018DED94E00E94380694
:100D60007C0161E471E08DED94E00E9410068E0D2F
:100D70009F1DDF91CF91FF90EF90DF90CF9008956E
:100D8000EF92FF920F931F93CF93DF93EC0181E0DB
:100D9000888F9B8D8C8D981305C0E889F989808197
:100DA00085FD24C0F62E0B8D10E00F5F1F4F0F73D3
:100DB0001127E02E8C8DE8120CC00FB607FCFACF7D
:100DC000E889F989808185FFF5CFCE010E949D01D8
:100DD000F1CF8B8DFE01E80FF11DE35AFF4FF0823A
:100DE0000B8FEA89FB898081806207C0EE89FF89C9
:100DF0006083E889F98980818064808381E090E064
:100E0000DF91CF911F910F91FF90EF900895CF93B5
:100E1000DF93EC01888D8823C9F0EA89FB89808102
:100E200085FD05C0A889B9898C9186FD0FC00FB6D4
:100E300007FCF5CF808185FFF2CFA889B9898C9115
:100E400085FFEDCFCE010E949D01E7CFDF91CF91CD
:100E500008951F920F920FB60F9211242F933F9374
:100E60004F935F936F937F938F939F93AF93BF93B2
:100E7000EF93FF938DED94E00E949D01FF91EF9120
:100E8000BF91AF919F918F917F916F915F914F91A2
:100E90003F912F910F900FBE0F901F9018951F92AA
:100EA0000F920FB60F9211242F938F939F93EF936E
:100EB000FF93E091ED04F091EE048081E091F30462
:100EC000F091F40482FD12C090818091F6048F5F4E
:100ED0008F732091F704821751F0E091F604F0E04F
:100EE000E352FB4F958F8093F60401C08081FF9100
:100EF000EF919F918F912F910F900FBE0F901F90A8
:100F00001895EDEDF4E01382128288EE93E0A0E0F4
:100F1000B0E084839583A683B78386E291E09183D2
:100F2000808385EC90E09587848784EC90E09787B8
:100F3000868780EC90E0918B808B81EC90E0938BA6
:100F4000828B82EC90E0958B848B86EC90E0978B83
:100F5000868B118E128E138E148EEAE7F5E01682C0
:100F600017821086118612861386148615861686B9
:100F70001786108A118A128A138A148A158AE2EC5B
:100F8000F5E08FEF808312821182148613868FEF33
:100F90009FEFDC0187839087A187B28708957894BB
:100FA00084B5826084BD84B5816084BD85B582606E
:100FB00085BD85B5816085BD80916E00816080931F
:100FC0006E00109281008091810082608093810088
:100FD0008091810081608093810080918000816098
:100FE000809380008091B10084608093B1008091F3
:100FF000B00081608093B00080917A00846080931B
:101000007A0080917A00826080937A0080917A00E1
:10101000816080937A0080917A00806880937A0062
:101020001092C1001092BE051092BF051092C0052B
:101030001092C10510927C0510927D0510927E05DC
:1010400010927F0560ED77E080E090E00E94E30180
:101050008DED94E09093BD058093BC05E091ED0487
:10106000F091EE0482E08083E091E904F091EA04DB
:101070001082E091EB04F091EC0480E18083109207
:10108000F504E091F104F091F20486E08083E091B0
:10109000EF04F091F004808180618083E091EF049F
:1010A000F091F004808188608083E091EF04F091FA
:1010B000F004808180688083E091EF04F091F00477
:1010C00080818F7D80830E94690460937C0570938A
:1010D0007D0580937E0590937F0562E371E08091AA
:1010E000BC059091BD050E9410066AE070E080E0AA
:1010F00090E00E94E30191E09093900580912B0293
:10110000811144C010921D0210921C028FEF809337
:1011100020028093210280932202809323028093F5
:1011200024028093250290932602109228021092A6
:10113000270210921F0210921E028091D7049091F4
:10114000D804892B31F48AE192E09093D8048093FB
:10115000D704E0911802F0911902309721F08AE14A
:1011600092E0958384838AE192E0909319028093C0
:10117000180210922A021092290284E191E09093C1
:101180001B0280931A0281E080932B02E0911A02E5
:10119000F0911B020480F581E02D8AE192E009952F
:1011A0008BE392E090931D0280931C0282E390E017
:1011B0009093280280932702E0911A02F0911B027B
:1011C0000284F385E02D8AE192E00995009729F1E8
:1011D0009C0140E050E060E472E48FE090E00E9407
:1011E000E80B722F632F0091C5051091C605209161
:1011F000C7053091C805872F962FDA018017910710
:10120000A207B30710F4D901C8018093C5059093D4
:10121000C605A093C705B093C80584E491E00E9479
:10122000250680E090E0A8ECB1E48093050290935D
:101230000602A0930702B093080281E090E0909329
:101240000A028093090210920B0210920C028FEF97
:1012500080930D028FEF90E090930F0280930E0227
:101260008FEF9FEF909311028093100282E090E045
:1012700090931302809312028BE392E090931502F5
:101280008093140287E591E00E942506C090050234
:10129000D0900602E0900702F0900802A7019601A4
:1012A000C701B6010E94D00C882319F065E771E0F0
:1012B0001AC046015701E894B7F82FEF3FEF4FE708
:1012C0005FE7C501B4010E94D00C811111C02FEF5E
:1012D0003FEF4FE75FE7C501B4010E947B0F18168F
:1012E0003CF469E771E08DED94E00E94100684C043
:1012F0002FEF3FEF4FE75FE4C701B6010E94CB0C31
:1013000018161CF46DE771E0EECF2FEF3FEF4FE7BB
:101310005FECC701B6010E947B0F87FDF3CF20E091
:1013200030E0A901C701B6010E947B0F87FF0FC003
:10133000E091DD04F091DE040190F081E02D6DE29A
:101340008DED94E00995F7FAF094F7F8F0942AE01F
:1013500037ED43EA5BE3C701B6010E94290C4B015C
:101360005C010E949C0C6B017C010E94800F9B0120
:10137000AC01C501B4010E94280C4B015C012AE0BC
:10138000B701A6018DED94E00E94380667EF71E089
:101390008DED94E00E94100620E030E040E251E440
:1013A000C501B4010E94E10F4B015C010E949C0C3D
:1013B0006B01E12CF12C2AE0B701A6018DED94E040
:1013C0000E943806C701B6010E94800F9B01AC0144
:1013D000C501B4010E94280C20E030E040E251E455
:1013E0000E94E10F0E949C0CAB0160E070E02AE0DB
:1013F0008DED94E00E94380661E471E08DED94E09B
:101400000E9410068091090290910A020E948106B2
:1014100080910B0281110BC080910C02811107C0D9
:1014200081E090910D02911103C080E001C081E044
:1014300090E00E94810680910E0290910F020E941E
:10144000810680911002909111020E948106809184
:101450001202909113020E94810661E8262E61E03B
:10146000362EC1EDD2E074E9872E71E0972EEAEBBB
:10147000AE2EE1E0BE2E0E9469049F938F937F936E
:101480006F933F922F92DF93CF930E94DA0C81EDFE
:1014900092E00E9425061091050200910602F0904C
:1014A0000702E0900802A8019701652F742F832F8F
:1014B000922F0E94950C2DB73EB7285F3F4F0FB675
:1014C000F8943EBF0FBE2DBF6F3F3FEF73074CF048
:1014D0009B0177FF02C02F5F3F4F35952795F9019C
:1014E00002C0E0E0F0E0E0933902F0933A0220918C
:1014F000160230911702AB0177FF02C04F5F5F4FBA
:10150000CA019595879501968217930714F0C90132
:10151000019790933802809337029F938F93FF93A4
:10152000EF9380910A028F93809109028F93EF923B
:10153000FF920F931F939F928F92DF93CF930E94FE
:10154000DA0C81ED92E00E9425068091390290919B
:101550003A0290933602809335022DB73EB7225F50
:101560003F4F0FB6F8943EBF0FBE2DBF009135021E
:1015700010913602809137029091380208171907AE
:101580000CF0D7C08091090290910A02BC01615011
:10159000710977FDBC01759567956F5F7F4F072EC9
:1015A000000C880B990B0E94820F2B013C01B801A3
:1015B000012E000C880B990B0E94820F9B01AC013D
:1015C00060910502709106028091070290910802D5
:1015D0000E94280C6B017C0120E030E0A9010E94F0
:1015E000CB0CA701960118160CF05058C301B2019C
:1015F0000E94280C20E030E040E85FE30E94CB0C22
:101600001816BCF020E030E0A901C701B6010E9425
:10161000CB0CA701960118160CF05058C301B2016B
:101620000E94280C20E030E0A9010E947B0F87FD7A
:1016300034C020E030E0A901C701B6010E94CB0C04
:10164000A701960118160CF05058C301B2010E9470
:10165000280C20E030E040E85FE30E94CB0C181635
:10166000F4F020E030E0A901C701B6010E94CB0CE4
:10167000181624F0F7FAF094F7F8F094A701960101
:10168000C301B2010E94280C20E030E04FE753E490
:101690000E94E10F0E94950C04C060E001C06FEF52
:1016A00070E060933302709334027F936F931F93C3
:1016B0000F93BF92AF92DF93CF930E94DA0C81ED2C
:1016C00092E00E9425068DED94E00E94070780912C
:1016D000350290913602FC01EE0FFF1FE80FF91F53
:1016E0002091140230911502E20FF31F2091330272
:1016F00030910B02239F302D1124308330910C0246
:10170000239F302D1124318330910D02239F202DF2
:1017100011242283019690933602809335022DB7CF
:101720003EB7285F3F4F0FB6F8943EBF0FBE2DBFA8
:101730001DCF80ED91E00E942506809135029091A9
:1017400036020E9481068CEE91E00E94250680916F
:10175000C2050E94F4040E9469046B017C0161E0EF
:1017600070E080E090E00E94E3018091C2050E9459
:10177000F4040E946904DC01CB018C199D09AE09B7
:10178000BF094497A105B10550F380E090E0FC014A
:10179000E55CFD4F10821182128203968639910515
:1017A000B1F70E948D0067CE97FB072E16F40094C8
:1017B00007D077FD09D00E940E0C07FC05D03EF43F
:1017C000909581959F4F0895709561957F4F0895ED
:1017D000052E97FB1EF400940E94FF0B57FD07D0C7
:1017E0000E94AF1007FC03D04EF40C94FF0B5095F1
:1017F0004095309521953F4F4F4F5F4F08959095FD
:101800008095709561957F4F8F4F9F4F08950E94EF
:101810001311B7FF0895821B930B0895AA1BBB1BDE
:1018200051E107C0AA1FBB1FA617B70710F0A61BE0
:10183000B70B881F991F5A95A9F780959095BC0101
:10184000CD010895EE0FFF1F0590F491E02D09944E
:101850005058BB27AA270E94400C0C9465100E9488
:10186000571038F00E945E1020F039F49F3F19F4B1
:1018700026F40C9454100EF4E095E7FB0C944E10F3
:10188000E92F0E94761058F3BA176207730784078E
:10189000950720F079F4A6F50C9498100EF4E095D5
:1018A0000B2EBA2FA02D0B01B90190010C01CA011A
:1018B000A0011124FF27591B99F0593F50F4503EC5
:1018C00068F11A16F040A22F232F342F4427585FB7
:1018D000F3CF469537952795A795F0405395C9F7CF
:1018E0007EF41F16BA0B620B730B840BBAF0915087
:1018F000A1F0FF0FBB1F661F771F881FC2F70EC026
:10190000BA0F621F731F841F48F4879577956795F8
:10191000B795F7959E3F08F0B0CF9395880F08F0E4
:101920009927EE0F9795879508950E949C0C6894CF
:10193000B1110C94991008950E947E1088F09F5761
:1019400098F0B92F9927B751B0F0E1F0660F771FE3
:10195000881F991F1AF0BA95C9F714C0B13091F0D9
:101960000E949810B1E008950C949810672F782F7A
:101970008827B85F39F0B93FCCF38695779567959E
:10198000B395D9F73EF490958095709561957F4F0A
:101990008F4F9F4F08950E94BD0F08F48FEF089559
:1019A0000E94BD0F880B990B089581E090E0F89498
:1019B0000C942211AEE0B0E0E0EEFCE00C94EA10F2
:1019C0000D891E8986E08C831A8309838FEF9FE738
:1019D0009E838D83AE01475E5F4F6F89788DCE0108
:1019E00001960E94FD0C2F813885F801E20FF31F4C
:1019F00010822E96E4E00C940611ACE0B0E0E3E037
:101A0000FDE00C94DC107C016B018A01FC01178263
:101A10001682838181FFBDC1CE0101964C01F70181
:101A20009381F60193FD859193FF81916F01882346
:101A300009F4ABC1853239F493FD859193FF81910F
:101A40006F01853229F4B70190E00E94E50EE7CFDF
:101A5000512C312C20E02032A0F48B3269F030F48C
:101A6000803259F0833269F420612CC08D3239F014
:101A7000803339F4216026C02260246023C02860AE
:101A800021C027FD27C030ED380F3A3078F426FF0B
:101A900006C0FAE05F9E300D1124532E13C08AE079
:101AA000389E300D1124332E20620CC08E3221F46A
:101AB00026FD6BC1206406C08C3611F4206802C07C
:101AC000883641F4F60193FD859193FF81916F0172
:101AD0008111C1CF982F9F7D9554933028F40C5FCE
:101AE0001F4FFFE3F9830DC0833631F0833771F068
:101AF000833509F05BC022C0F801808189830E5FC5
:101B00001F4F44244394512C540115C03801F2E076
:101B10006F0E711CF801A080B18026FF03C0652DF7
:101B200070E002C06FEF7FEFC5012C870E94DA0ED4
:101B30002C0183012C852F77222E17C03801F2E06B
:101B40006F0E711CF801A080B18026FF03C0652DC7
:101B500070E002C06FEF7FEFC5012C870E94CF0EAF
:101B60002C012C852068222E830123FC1BC0832D91
:101B700090E048165906B0F4B70180E290E00E9468
:101B8000E50E3A94F4CFF50127FC859127FE81916B
:101B90005F01B70190E00E94E50E31103A94F1E048
:101BA0004F1A51084114510471F7E5C0843611F001
:101BB000893639F5F80127FF07C06081718182817C
:101BC00093810C5F1F4F08C060817181072E000C4C
:101BD000880B990B0E5F1F4F2F76722E97FF09C04F
:101BE00090958095709561957F4F8F4F9F4F20689E
:101BF000722E2AE030E0A4010E941D0FA82EA81822
:101C000044C0853729F42F7EB22E2AE030E025C06B
:101C1000F22FF97FBF2E8F36C1F018F4883579F096
:101C2000B4C0803719F0883721F0AFC02F2F206162
:101C3000B22EB4FE0DC08B2D8460B82E09C024FFD7
:101C40000AC09F2F9660B92E06C028E030E005C07C
:101C500020E130E002C020E132E0F801B7FE07C029
:101C600060817181828193810C5F1F4F06C060810A
:101C7000718180E090E00E5F1F4FA4010E941D0F54
:101C8000A82EA818FB2DFF777F2E76FE0BC0372DD0
:101C90003E7FA51450F474FE0AC072FC08C0372DB4
:101CA0003E7E05C0BA2C372D03C0BA2C01C0B52C1E
:101CB00034FF0DC0FE01EA0DF11D8081803311F467
:101CC000397E09C032FF06C0B394B39404C0832F99
:101CD000867809F0B39433FD13C030FF06C05A2C48
:101CE000B31418F4530C5B18B32CB31468F4B70195
:101CF00080E290E03C870E94E50EB3943C85F5CFEE
:101D0000B31410F43B1801C0312C34FF12C0B701DA
:101D100080E390E03C870E94E50E3C8532FF17C0CF
:101D200031FD03C088E790E002C088E590E0B7018C
:101D30000CC0832F867859F031FF02C08BE201C0BE
:101D400080E237FD8DE2B70190E00E94E50EA51418
:101D500038F4B70180E390E00E94E50E5A94F7CF83
:101D6000AA94F401EA0DF11D8081B70190E00E9470
:101D7000E50EA110F5CF332009F451CEB70180E272
:101D800090E00E94E50E3A94F6CFF70186819781A4
:101D900002C08FEF9FEF2C96E2E10C94F810FC014B
:101DA0000590615070400110D8F7809590958E0F86
:101DB0009F1F0895FC016150704001900110D8F7F9
:101DC000809590958E0F9F1F08950F931F93CF932B
:101DD000DF93FB01238121FD03C08FEF9FEF28C01C
:101DE00022FF16C04681578124813581421753074F
:101DF00044F4A081B1819D012F5F3F4F3183208347
:101E00008C93268137812F5F3F4F3783268310C005
:101E1000EB01092F182F0084F185E02D0995892BFE
:101E2000E1F68E819F8101969F838E83812F902F73
:101E3000DF91CF911F910F910895FA01AA272830C1
:101E400051F1203181F1E8946F936E7F6E5F7F4F87
:101E50008F4F9F4FAF4FB1E03ED0B4E03CD0670F03
:101E6000781F891F9A1FA11D680F791F8A1F911D56
:101E7000A11D6A0F711D811D911DA11D20D009F4A6
:101E800068943F912AE0269F11243019305D3193E8
:101E9000DEF6CF010895462F4770405D4193B3E0D1
:101EA0000FD0C9F7F6CF462F4F70405D4A3318F078
:101EB000495D31FD4052419302D0A9F7EACFB4E029
:101EC000A6959795879577956795BA95C9F70097E1
:101ED0006105710508959B01AC010A2E0694579582
:101EE000479537952795BA95C9F7620F731F841FD9
:101EF000951FA01D08950E94BD0F08F481E008956C
:101F0000E89409C097FB3EF4909580957095619593
:101F10007F4F8F4F9F4F9923A9F0F92F96E9BB2749
:101F20009395F695879577956795B795F111F8CFC5
:101F3000FAF4BB0F11F460FF1BC06F5F7F4F8F4F30
:101F40009F4F16C0882311F096E911C0772321F026
:101F50009EE8872F762F05C0662371F096E8862FBE
:101F600070E060E02AF09A95660F771F881FDAF715
:101F7000880F9695879597F90895990F0008550F42
:101F8000AA0BE0E8FEEF16161706E807F907C0F0FF
:101F900012161306E407F50798F0621B730B840B07
:101FA000950B39F40A2661F0232B242B252B21F4E1
:101FB00008950A2609F4A140A6958FEF811D811D81
:101FC00008950E94F40F0C9465100E94571038F089
:101FD0000E945E1020F0952311F00C944E100C948A
:101FE000541011240C9499100E94761070F3959F50
:101FF000C1F3950F50E0551F629FF001729FBB2700
:10200000F00DB11D639FAA27F00DB11DAA1F649F9B
:102010006627B00DA11D661F829F2227B00DA11D4E
:10202000621F739FB00DA11D621F839FA00D611DD4
:10203000221F749F3327A00D611D231F849F600DF5
:10204000211D822F762F6A2F11249F5750409AF01E
:10205000F1F088234AF0EE0FFF1FBB1F661F771FAA
:10206000881F91505040A9F79E3F510580F00C9475
:102070004E100C9499105F3FE4F3983ED4F386958C
:1020800077956795B795F795E7959F5FC1F7FE2B15
:10209000880F911D9695879597F9089597F99F67F1
:1020A00080E870E060E008959FEF80EC08950024E0
:1020B0000A941616170618060906089500240A94AD
:1020C00012161306140605060895092E0394000C33
:1020D00011F4882352F0BB0F40F4BF2B11F460FFC2
:1020E00004C06F5F7F4F8F4F9F4F089557FD9058EB
:1020F000440F551F59F05F3F71F04795880F97FBCC
:10210000991F61F09F3F79F0879508951216130685
:102110001406551FF2CF4695F1DF08C016161706B4
:102120001806991FF1CF86957105610508940895E9
:10213000E894BB2766277727CB0197F90895DB0141
:102140008F939F930E94D110BF91AF91A29F800D5A
:10215000911DA39F900DB29F900D11240895A1E2AF
:102160001A2EAA1BBB1BFD010DC0AA1FBB1FEE1F11
:10217000FF1FA217B307E407F50720F0A21BB30B5C
:10218000E40BF50B661F771F881F991F1A9469F7D8
:1021900060957095809590959B01AC01BD01CF0134
:1021A00008950E941311A59F900DB49F900DA49FB8
:1021B000800D911D112408952F923F924F925F92AE
:1021C0006F927F928F929F92AF92BF92CF92DF9247
:1021D000EF92FF920F931F93CF93DF93CDB7DEB7AC
:1021E000CA1BDB0B0FB6F894DEBF0FBECDBF099440
:1021F0002A88398848885F846E847D848C849B8497
:10220000AA84B984C884DF80EE80FD800C811B81A4
:10221000AA81B981CE0FD11D0FB6F894DEBF0FBED3
:10222000CDBFED010895A29FB001B39FC001A39F50
:10223000700D811D1124911DB29F700D811D1124FF
:08224000911D0895F894FFCFF1
:10224800000000009B019B019B0177017301700155
:10225800000000002D01E900E70077017301E400A8
:102268001D0200000000C006BF0481005F0073006B
:102278000707564D4450565F317C315F564D4450E8
:10228800560D0A00496E2074686520506164646CBC
:102298006520696E697400446F6E65207365747497
:1022A800696E6720757020706164646C652C2069A4
:1022B8007427733A006E616E00696E66006F766609
:1022C800004C6F6F70696E67206D696C6C69732064
:1022D800256C75004C6F633A2025642C207769645F
:1022E80074683A2025642C204C6F773A2025642C9A
:1022F80020486967683A20256400696E74656E73C2
:10230800697479206F6E2025642069732025640024
:10231800446F6E652072656E646572696E672070C1
:102328006164646C652C20692069730052656E6471
:0A2338006572696E672E2E2E0000FC
:00000001FF
