:100000000C9435000C945D000C945D000C945D0024
:100010000C945D000C945D000C945D000C945D00EC
:100020000C945D000C945D000C945D000C945D00DC
:100030000C945D000C945D000C945D000C945D00CC
:100040000C94F3040C945D000C9456040C9430044E
:100050000C945D000C945D000C945D000C945D00AC
:100060000C945D000C945D00070E11241FBECFEFB1
:10007000D8E0DEBFCDBF11E0A0E0B1E0EEE2F8E2F3
:1000800002C005900D92A83AB107D9F725E0A8EA79
:10009000B1E001C01D92AD37B207E1F710E0C5E352
:1000A000D0E004C02197FE010E94A30EC433D10703
:1000B000C9F70E942C090C9415140C94000080E9D7
:1000C00091E00895539A089580E090E00895FC012E
:1000D000858596850895CF93DF9300D000D000D01A
:1000E000CDB7DEB7AB011C821D821E82DC01ED9113
:1000F000FC910190F081E02D19821A821B829E01F1
:100100002F5F3F4FBE016C5F7F4F099526960FB65C
:10011000F894DEBF0FBECDBFDF91CF9108954F920F
:100120005F926F927F928F92AF92BF92CF92EF9237
:10013000FF920F931F93CF93DF933C01EB010E943B
:100140008804F30127853089621B730B6A307105BF
:10015000B0F3F894E881F9815BB158608BB1877F87
:100160008BB969859E81262F291B922F2E83BF84F0
:100170004A805B807C85FD84EE847F5FF394E3940A
:100180003F814885AA84CB841081D20120E0C32F0F
:10019000022F322F3081112788943111390F08F442
:1001A0003FEF9195889470FD130F1795889471FD1A
:1001B000130F1795889472FD130F1795889473FD8C
:1001C000130F1795889474FD130F1795889475FD78
:1001D000130F1795889476FD130F1795889477FD64
:1001E000130F17958894232F7111212F960F122F1B
:1001F000002C5BB900C000C017FF8BB931812227EA
:10020000889400C0002C8BB931113C0F00C0002C29
:100210005BB900C000C016FF8BB908F43FEFC19571
:10022000889400C0002C8BB9F0FC230F00C0002C78
:100230005BB900C000C015FF8BB927958894F1FC0D
:10024000230F00C0002C8BB92795889400C0002C88
:100250005BB900C000C014FF8BB9F2FC230F2795D7
:10026000889400C0002C8BB9F3FC230F00C0002C35
:100270005BB900C000C013FF8BB927958894F4FCCC
:10028000230F00C0002C8BB92795889400C0002C48
:100290005BB900C000C012FF8BB9F5FC230F279596
:1002A000889400C0002C8BB9F6FC230F00C0002CF2
:1002B0005BB900C000C011FF8BB927958894F7FC8B
:1002C000230F00C0002C8BB92795889400C0002C08
:1002D0005BB900C000C010FF8BB9132FF110122FB3
:1002E000CA0D00C0002C8BB900C000C0002C5BB947
:1002F00000C000C017FF8BB932812227889400C04C
:10030000002C8BB93111340F00C0002C5BB900C038
:1003100000C016FF8BB908F43FEFEB0DF11D00C0D4
:10032000002C8BB9E0FC230F00C0002C5BB900C08F
:1003300000C015FF8BB927958894E1FC230F00C0FE
:10034000002C8BB92795889400C0002C5BB900C0A5
:1003500000C014FF8BB9E2FC230F2795889400C0DE
:10036000002C8BB9E3FC230F00C0002C5BB900C04C
:1003700000C013FF8BB927958894E4FC230F00C0BD
:10038000002C8BB92795889400C0002C5BB900C065
:1003900000C012FF8BB9E5FC230F2795889400C09D
:1003A000002C8BB9E6FC230F00C0002C5BB900C009
:1003B00000C011FF8BB927958894E7FC230F00C07C
:1003C000002C8BB92795889400C0002C5BB900C025
:1003D00000C010FF8BB9132FE110122F419500C000
:1003E000002C8BB94C0D00C000C05BB900C000C030
:1003F00017FF8BB930812227889400C0002C8BB95D
:100400003111390F00C0002C5BB900C000C016FFCD
:100410008BB908F43FEF9195889400C0002C8BB9FC
:1004200070FD230F00C0002C5BB900C000C015FF99
:100430008BB92795889471FD230F00C0002C8BB9D0
:100440002795889400C0002C5BB900C000C014FF41
:100450008BB972FD230F2795889400C0002C8BB9AF
:1004600073FD230F00C0002C5BB900C000C013FF58
:100470008BB92795889474FD230F00C0002C8BB98D
:100480002795889400C0002C5BB900C000C012FF03
:100490008BB975FD230F2795889400C0002C8BB96C
:1004A00076FD230F00C0002C5BB900C000C011FF17
:1004B0008BB92795889477FD230F00C0002C8BB94A
:1004C0002795889400C0002C5BB900C000C010FFC5
:1004D0008BB9132F7111122F960F00C0002C8BB9FE
:1004E000119709F086CE20EE31E0D2010E94880EED
:1004F000DC01CB01F4E0B695A79597958795FA9521
:10050000D1F720E030E0A9016AE9469E412D569ED0
:10051000400D511D1124840F951FA11DB11D893E51
:1005200043E09407A105B10588F1885E9340A109D5
:10053000B10942E0B695A795979587954A95D1F769
:1005400047E0849F212D949F200D311D112460913F
:10055000A80170E0860F971F820F931F4091A90199
:100560005091AA016091AB017091AC01292F332702
:10057000420F531F611D711D4093A9015093AA01A1
:100580006093AB017093AC018093A80178940E94B2
:100590008804F301708B6787DF91CF911F910F91D2
:1005A000FF90EF90CF90BF90AF908F907F906F9023
:1005B0005F904F9008950F931F93CF93DF93CDB724
:1005C000DEB762970FB6F894DEBF0FBECDBF8C01C9
:1005D000F901DC011C968C917A8369835C834B83DF
:1005E0005E834D8390819D8791819E8792819F87B5
:1005F000813029F4CE0101960E943D0506C01C867B
:100600001B861A86198618861F82188A1A8A198AE2
:10061000D801ED91FC910484F585E02DBE016F5F5A
:100620007F4FC801099562960FB6F894DEBF0FBEE2
:10063000CDBFDF91CF911F910F9108950F931F931D
:10064000CF93DF93CDB7DEB762970FB6F894DEBFD6
:100650000FBECDBF8C01F901DC011C968C917A8311
:1006600069835C834B835E834D8390819D879181F9
:100670009E8792819F87813029F4CE0101960E9446
:100680003D0506C01C861B861A86198618861F82A1
:1006900083E0888B1A8A198AD801ED91FC91048431
:1006A000F585E02DBE016F5F7F4FC8010995629609
:1006B0000FB6F894DEBF0FBECDBFDF91CF911F9173
:1006C0000F910895FC01918D828D981761F0828DB4
:1006D000DF01A80FB11D5D968C91928D9F5F9F7376
:1006E000928F90E008958FEF9FEF0895FC01918D18
:1006F000828D981731F0828DE80FF11D858D90E085
:1007000008958FEF9FEF0895FC01918D228D892F21
:1007100090E0805C9F4F821B91098F739927089509
:100720008EE694E00E94840321E0892B09F420E006
:10073000822F0895FC01848DDF01A80FB11DA35AFB
:10074000BF4F2C91848D90E001968F739927848FF1
:10075000A689B7892C93A089B1898C9180648C93E8
:10076000938D848D981306C00288F389E02D8081D3
:100770008F7D80830895EF92FF920F931F93CF9305
:10078000DF93EC0181E0888F9B8D8C8D981305C0E1
:10079000E889F989808185FD24C0F62E0B8D10E053
:1007A0000F5F1F4F0F731127E02E8C8DE8120CC0C6
:1007B0000FB607FCFACFE889F989808185FFF5CF6C
:1007C000CE010E949A03F1CF8B8DFE01E80FF11D3F
:1007D000E35AFF4FF0820B8FEA89FB8980818062A8
:1007E00007C0EE89FF896083E889F9898081806488
:1007F000808381E090E0DF91CF911F910F91FF9076
:10080000EF900895CF93DF93EC01888D8823C9F092
:10081000EA89FB89808185FD05C0A889B9898C9109
:1008200086FD0FC00FB607FCF5CF808185FFF2CFA4
:10083000A889B9898C9185FFEDCFCE010E949A03DA
:10084000E7CFDF91CF91089580E090E0892B29F0E8
:100850000E94900381110C94000008950E94C80F1B
:100860001F920F920FB60F9211242F933F934F9325
:100870005F936F937F938F939F93AF93BF93EF9308
:10088000FF938EE694E00E949A03FF91EF91BF914F
:10089000AF919F918F917F916F915F914F913F9118
:1008A0002F910F900FBE0F901F9018951F920F92CF
:1008B0000FB60F9211242F938F939F93EF93FF9373
:1008C000E0917E04F0917F048081E0918404F091B6
:1008D000850482FD12C09081809187048F5F8F73A1
:1008E00020918804821751F0E0918704F0E0E259EA
:1008F000FB4F958F8093870401C08081FF91EF911A
:100900009F918F912F910F900FBE0F901F90189570
:100910003FB7F8948091AF019091B001A091B101DF
:10092000B091B20126B5A89B05C02F3F19F00196E2
:10093000A11DB11D3FBFBA2FA92F982F8827820F65
:10094000911DA11DB11DBC01CD0142E0660F771FB5
:10095000881F991F4A95D1F708958F929F92AF9261
:10096000BF92CF92DF92EF92FF926B017C010E94C7
:1009700088044B015C01C114D104E104F104F1F0DD
:100980000E948804DC01CB0188199909AA09BB09D6
:10099000883E9340A105B10570F321E0C21AD10849
:1009A000E108F10888EE880E83E0981EA11CB11CB6
:1009B000C114D104E104F10419F7DDCFFF90EF90E9
:1009C000DF90CF90BF90AF909F908F9008952FB7FA
:1009D000F8946091A9017091AA018091AB01909166
:1009E000AC012FBF08951F920F920FB60F921124E2
:1009F0002F933F938F939F93AF93BF938091A901C0
:100A00009091AA01A091AB01B091AC013091AE01DF
:100A100023E0230F2D3720F40196A11DB11D05C041
:100A200026E8230F0296A11DB11D2093AE018093ED
:100A3000A9019093AA01A093AB01B093AC0180915E
:100A4000AF019091B001A091B101B091B2010196B6
:100A5000A11DB11D8093AF019093B001A093B1018E
:100A6000B093B201BF91AF919F918F913F912F9120
:100A70000F900FBE0F901F901895EF92FF920F935B
:100A80001F93CF93DF93EC019091AD019F5F292FCE
:100A900027702093AD0190FF02C090E801C090E064
:100AA00021FD9064247009F0906220E1290FFE017D
:100AB0003C967E018FE0E80EF11C00E011E06191B0
:100AC000662331F070E0C8010E94550E6F5F01C0CF
:100AD00060E0DF0114976C93322F369F030E30E0F5
:100AE000311D1124CF010797311103C0EC01188289
:100AF00003C03150EC013883662311F061506C93D0
:100B0000EE15FF05E1F6DF91CF911F910F91FF9058
:100B1000EF900895CF92DF92EF92FF920F931F9381
:100B2000CF93DF936C017A018B01C0E0D0E0CE154A
:100B3000DF0589F0D8016D918D01D601ED91FC9111
:100B40000190F081E02DC6010995892B11F47E01F9
:100B500002C02196ECCFC701DF91CF911F910F9179
:100B6000FF90EF90DF90CF9008956115710579F0B7
:100B7000FB0101900020E9F73197AF01461B570BAD
:100B8000DC01ED91FC910280F381E02D099480E07D
:100B900090E008954F925F926F927F92EF92FF9252
:100BA0000F931F93CF93DF93CDB7DEB7A1970FB607
:100BB000F894DEBF0FBECDBF7C01FA01CB0119A2B4
:100BC000223008F42AE08E010F5D1F4F422E512C77
:100BD000612C712CBF01A30192010E94A213F901A3
:100BE000CA01015011096A3014F4605D01C0695CEA
:100BF000D8016C93232B242B252B61F7B801C70157
:100C00000E94B505A1960FB6F894DEBF0FBECDBF0A
:100C1000DF91CF911F910F91FF90EF907F906F9098
:100C20005F904F9008953F924F925F926F927F92A4
:100C30008F929F92AF92BF92CF92DF92EF92FF92EC
:100C40000F931F93CF93DF9300D01F92CDB7DEB7E2
:100C5000F82E8091560590915705A0915805B091B6
:100C60005905892B8A2B8B2BE9F00E94880400916F
:100C7000790510917A0520917B0530917C05DC0186
:100C8000CB01801B910BA20BB30B00915605109169
:100C90005705209158053091590580179107A207F3
:100CA000B307B8F20E9488046093790570937A05BF
:100CB00080937B0590937C05E0915E05F0915F0544
:100CC000309759F040915A0550915B0560915C0551
:100CD00070915D058F2D0995F82E00916C0410918F
:100CE0006D044F2C512C612C712C0115110509F448
:100CF00061C0D8011C96EC901C978091540590918E
:100D000055058436910510F41C961C92D801ED917E
:100D1000FC91A280B38019821A821B82F11014C048
:100D2000F80145855685628173819E012F5F3F4F93
:100D3000C801F5010995D8011C96EC921C971496F0
:100D40000D911C911597D1CFF8013996CE010196DE
:100D50006C0148019CE0890E911CDF0113973C90C7
:100D60002191332001F12223F1F0822F90E0A0E0C5
:100D7000B0E09C01AD012F5F3F4F4F4F5F4FC3016C
:100D8000B2010E9492139B01AC01832D90E0A0E080
:100D9000B0E0BC01CD016F5F7F4F8F4F9F4F0E942E
:100DA0009213D6018C93BFEFCB1ADB0AE815F90535
:100DB000A1F6B6CF80917705909178058C010F5FF1
:100DC0001F4F109378050093770549979CF10E9477
:100DD000E7044B015C0188EE93E0089FB001099F96
:100DE000700D189F700D1124072E000C880B990BA5
:100DF000C0907305D0907405E0907505F09076056D
:100E0000A50194012C193D094E095F090E94A21306
:100E1000309355052093540510927805109277056C
:100E20000E94E704609373057093740580937505C1
:100E3000909376050F900F900F90DF91CF911F91B7
:100E40000F91FF90EF90DF90CF90BF90AF909F9069
:100E50008F907F906F905F904F903F9008950E9489
:100E6000E704609311057093120580931305909326
:100E700014050895CF92DF92EF92FF920F931F9384
:100E8000CF93DF936B01770FEE08FF08F7FE1FC0CB
:100E9000EC01E881F9810190F081E02D6DE2099586
:100EA0008C0144275527BA014C195D096E097F0949
:100EB0002AE0CE010E94CA05800F911FDF91CF91D9
:100EC0001F910F91FF90EF90DF90CF9008952AE04F
:100ED000B701A601DF91CF911F910F91FF90EF9085
:100EE000DF90CF900C94CA050F931F9381111BC004
:100EF0000E94E70400910D0510910E0520910F0549
:100F000030911005DC01CB01801B910BA20BB30BC0
:100F10008197A105B10538F463E070E080E090E0CE
:100F20000E94AD04E5CF0E94E70460930D05709325
:100F30000E0580930F059093100581E01F910F918E
:100F40000895CF93DF93CBE0D5E084EF91E0A0E06C
:100F5000B0E08E879F87A88BB98B1A8A1B8A1C8A60
:100F60001D8A8E819F81A885B9858A879B87AC87DA
:100F7000BD870E94E7046E837F8388879987DF910E
:100F8000CF9108954F925F926F927F928F929F922E
:100F9000AF92BF92CF92DF92EF92FF92CF93DF9307
:100FA000EC016A017B01B22E9A01AB01C701B601C7
:100FB0000E94C30F882319F069E871E027C0260159
:100FC0003701E89477F82FEF3FEF4FE75FE7C30172
:100FD000B2010E94C30F81110DC02FEF3FEF4FE709
:100FE0005FE7C301B2010E946E1218161CF46DE88F
:100FF00071E00CC02FEF3FEF4FE75FE4C701B60190
:101000000E94BE0F18169CF461E971E0CE01DF91D9
:10101000CF91FF90EF90DF90CF90BF90AF909F90D7
:101020008F907F906F905F904F900C94B5052FEF4D
:101030003FEF4FE75FECC701B6010E946E1287FDDC
:10104000E3CF20E030E0A901C701B6010E946E1293
:1010500087FF0EC0E881F9810190F081E02D6DE2FB
:10106000CE0109954C01F7FAF094F7F8F09402C01C
:10107000812C912CA12C60E070E080E09FE3AB1408
:1010800041F020E030E040E251E40E94160FA394CA
:10109000F6CF9B01AC01C701B6010E94AA0E2B013D
:1010A0003C010E948F0F6B017C010E9473129B0117
:1010B000AC01C301B2010E94A90E2B013C012AE040
:1010C000B701A601CE010E94CA057C01E80CF91CFB
:1010D000BB2039F067E871E0CE010E94B505E80E4B
:1010E000F91EDB2CDD2029F120E030E040E251E464
:1010F000C301B2010E94D4122B013C010E948F0F48
:101100004B01A12CB12C2AE0B501A401CE010E9413
:10111000CA05E80EF91EC501B4010E9473129B01B5
:10112000AC01C301B2010E94A90E2B013C01DA946B
:10113000D9CFC701DF91CF91FF90EF90DF90CF9093
:10114000BF90AF909F908F907F906F905F904F90E7
:1011500008950F931F93CF93DF93EC010E94B50581
:101160008C0161E471E0CE010E94B505800F911FF2
:10117000DF91CF911F910F91089565E971E0809102
:101180004D0590914E050C94A9080C94B505BF929D
:10119000CF92DF92EF92FF920F931F93CF93DF9343
:1011A000B82E0E94E7046B017C010BE015E0CDE452
:1011B000D5E06CE971E0888199810E94C5084B2DCA
:1011C00050E060E070E02AE0888199810E94CA05C1
:1011D00063EA71E0888199810E94C5082AE0B7011D
:1011E000A601888199810E94CA0565EA71E088811B
:1011F00099810E94C508F80186819781A085B185F3
:10120000B701A601481B590B6A0B7B0B2AE08881AA
:1012100099810E94CA0565EA71E0888199810E94DE
:10122000C508F8014681578160857185828593855F
:10123000A485B585481B590B6A0B7B0B2AE0888176
:101240009981DF91CF911F910F91FF90EF90DF90E7
:10125000CF90BF900C94CA05789484B5826084BD09
:1012600084B5816084BD85B5826085BD85B58160AA
:1012700085BD80916E00816080936E001092810028
:1012800080918100826080938100809181008160E3
:1012900080938100809180008160809380008091A4
:1012A000B10084608093B1008091B0008160809330
:1012B000B00080917A00846080937A0080917A00F7
:1012C000826080937A0080917A00816080937A00B6
:1012D00080917A00806880937A001092C100109209
:1012E0004F05109250051092510510925205109220
:1012F0000D0510920E0510920F051092100560ED6D
:1013000077E080E090E00E94AD048EE694E0909358
:101310004E0580934D05E0917E04F0917F0482E0BC
:101320008083E0917A04F0917B041082E0917C0448
:10133000F0917D0480E1808310928604E091820424
:10134000F091830486E08083E0918004F091810431
:10135000808180618083E0918004F09181048081AC
:1013600088608083E0918004F091810480818068AE
:101370008083E0918004F091810480818F7D80835F
:101380000E94E70460930D0570930E0580930F058E
:101390009093100562E371E080914D0590914E05A8
:1013A0000E94C5086AE070E080E090E00E94AD0411
:1013B00091E0909321058091C601811144C0109263
:1013C000B8011092B7018FEF8093BB018093BC01ED
:1013D0008093BD018093BE018093BF018093C001C3
:1013E0009093C1011092C3011092C2011092BA01F0
:1013F0001092B90180916C0490916D04892B31F4A5
:1014000085EB91E090936D0480936C04E091B301BF
:10141000F091B401309721F085EB91E095838483BE
:1014200085EB91E09093B4018093B3011092C501D4
:101430001092C40184E191E09093B6018093B501CC
:1014400081E08093C601E091B501F091B60104807E
:10145000F581E02D85EB91E0099586ED91E0909383
:10146000B8018093B70182E390E09093C301809329
:10147000C201E091B501F091B6010284F385E02D3F
:1014800085EB91E00995009729F19C0140E050E03F
:1014900060E472E48FE090E00E94690E722F632F87
:1014A0000091560510915705209158053091590526
:1014B000872F962FDA0180179107A207B30710F440
:1014C000D901C8018093560590935705A0935805FC
:1014D000B093590564E471E08EE694E00E94A90897
:1014E00080E090E0A8ECB1E4809360059093610502
:1014F000A0936205B093630581E090E09093650549
:101500008093640510926605109267058FEF8093B3
:1015100068058FEF90E090936A05809369058FEFDF
:101520009FEF90936C0580936B0582E090E0909321
:101530006E0580936D0586ED91E090937005809324
:101540006F050E94A10780E00E947407882371F153
:1015500081E00E94C70867E571E080914D05909198
:101560004E050E94C508409160055091610560914B
:1015700062057091630522E080914D0590914E05C2
:101580000E94C20767E571E080914D0590914E057C
:101590000E94C508609164057091650580914D05B4
:1015A00090914E050E943A070E94BD0862E070E0EB
:1015B00080E090E00E94AD040E942F07C9E5D1E0D1
:1015C0000CE612E00E94E7049F938F937F936F9342
:1015D000DF93CF931F930F930E94CD0F0E94A1071B
:1015E00080E00E9474072DB73EB7285F3F4F0FB6CB
:1015F000F8943EBF0FBE2DBF882371F183E00E9497
:10160000C70867E571E080914D0590914E050E94F5
:10161000C508409160055091610560916205709127
:10162000630522E080914D0590914E050E94C2070E
:1016300067E571E080914D0590914E050E94C508C7
:10164000609164057091650580914D0590914E05FE
:101650000E943A070E94BD0862E070E080E090E0DE
:101660000E94AD040E942F076CE672E08EE694E0C3
:101670000E94A9086CE671E08EE694E00E94A90839
:101680000E94A10780E00E947407882371F182E024
:101690000E94C70867E571E080914D0590914E0565
:1016A0000E94C508409160055091610560916205F6
:1016B0007091630522E080914D0590914E050E9446
:1016C000C20767E571E080914D0590914E050E943B
:1016D000C508609164057091650580914D059091F4
:1016E0004E050E943A070E94BD0862E070E080E06B
:1016F00090E00E94AD040E942F0720E030E040E01F
:101700005FE3609160057091610580916205909141
:1017100063050E94D4126B017C0120E030E0A90136
:101720000E946E1287FD05C0C701B6010E94880F96
:1017300002C060E070E07093D5016093D4010E9414
:10174000A10780E00E947407882371F184E00E9461
:10175000C70867E571E080914D0590914E050E94A4
:10176000C5084091600550916105609162057091D6
:10177000630522E080914D0590914E050E94C207BD
:1017800067E571E080914D0590914E050E94C50876
:10179000609164057091650580914D0590914E05AD
:1017A0000E943A070E94BD0862E070E080E090E08D
:1017B0000E94AD040E942F0720E030E040E05FE38C
:1017C000609160057091610580916205909163055B
:1017D0000E94D41220E030E040E85FE30E94AA0EAD
:1017E0006B017C0120E030E044E452E40E94BE0F33
:1017F00018162CF0C701B6010E94880F02C061E3E1
:1018000070E07093D3016093D2010E94A10780E041
:101810000E947407882349F187E00E94C70867E5A2
:1018200071E080914D0590914E050E94C508609130
:10183000D4017091D50180914D0590914E050E9483
:101840003A0767E571E080914D0590914E050E9441
:10185000C5086091D2017091D30180914D0590919E
:101860004E050E943A070E94BD0862E070E080E0E9
:1018700090E00E94AD040E942F071092D1011092B7
:10188000D0010E94A10780E00E9474078823C9F15B
:1018900088E00E94C70867E571E080914D0590914E
:1018A0004E050E94C5086091D4017091D5018091C8
:1018B0004D0590914E050E943A0767E571E08091D1
:1018C0004D0590914E050E94C5086091D20170911E
:1018D000D30180914D0590914E050E943A0767E52E
:1018E00071E080914D0590914E050E94C50862E31C
:1018F00070E080914D0590914E050E943A070E943C
:10190000BD0862E070E080E090E00E94AD040E94BB
:101910002F078091D4019091D5019093CF018093AE
:10192000CE012091CE013091CF018091D2019091D2
:10193000D301281739070CF037C10E94A10780E0B6
:101940000E947407882349F185E00E94C70867E573
:1019500071E080914D0590914E050E94C5086091FF
:10196000D4017091D50180914D0590914E050E9452
:101970003A0767E571E080914D0590914E050E9410
:10198000C5086091D2017091D30180914D0590916D
:101990004E050E943A070E94BD0862E070E080E0B8
:1019A00090E00E94AD040E942F0780916405909101
:1019B0006505BC016150710977FDBC01759567959E
:1019C0006F5F7F4F072E000C880B990B0E947512DA
:1019D0002B013C01A090CE01B090CF01B5010B2CA2
:1019E000000C880B990B0E9475129B01AC01609151
:1019F00060057091610580916205909163050E9478
:101A0000A90E6B017C0120E030E0A9010E94BE0F0D
:101A1000A701960118160CF05058C301B2010E949C
:101A2000A90E20E030E040E85FE30E94BE0F1816E8
:101A3000BCF020E030E0A901C701B6010E94BE0F52
:101A4000A701960118160CF05058C301B2010E946C
:101A5000A90E20E030E0A9010E946E1287FD34C07B
:101A600020E030E0A901C701B6010E94BE0FA70126
:101A7000960118160CF05058C301B2010E94A90E2D
:101A800020E030E040E85FE30E94BE0F1816F4F05B
:101A900020E030E0A901C701B6010E94BE0F181670
:101AA00024F0F7FAF094F7F8F094A7019601C30137
:101AB000B2010E94A90E20E030E04FE753E40E94FB
:101AC000D4120E94880F04C060E001C06FEF70E084
:101AD0006093D0017093D101F501EE0FFF1FAE0EA0
:101AE000BF1EE0916F05F0917005EA0DFB1D80911E
:101AF0006605869F602D112460830E94A10780E007
:101B00000E947407882349F186E00E94C70867E5B0
:101B100071E080914D0590914E050E94C50860913D
:101B2000CE017091CF0180914D0590914E050E949C
:101B30003A0767E571E080914D0590914E050E944E
:101B4000C5086091D0017091D10180914D059091AF
:101B50004E050E943A070E94BD0862E070E080E0F6
:101B600090E00E94AD040E942F078091CE019091D9
:101B7000CF01FC01EE0FFF1FE80FF91F20916F0549
:101B800030917005E20FF31F2091D001309167056D
:101B9000239F302D1124318330916805239F202D00
:101BA000112422830196B9CE6CE771E08EE694E0B1
:101BB0000E94A908809153050E9413060E94E70421
:101BC0006B017C0161E070E080E090E00E94AD0478
:101BD000809153050E9413060E94E704DC01CB01AB
:101BE0008C199D09AE09BF094497A105B10550F3B1
:101BF00080E090E0FC01EA52FE4F108211821282D6
:101C0000039686399105B1F70E942404DBCCEEE6F9
:101C1000F4E01382128288EE93E0A0E0B0E08483C7
:101C20009583A683B78386E291E09183808385ECD8
:101C300090E09587848784EC90E09787868780EC96
:101C400090E0918B808B81EC90E0938B828B82EC87
:101C500090E0958B848B86EC90E0978B868B118E31
:101C6000128E138E148EEBE0F5E01682178210862A
:101C70001186128613861486158616861786108A94
:101C8000118A128A138A148A158AE3E5F5E08FEF28
:101C9000808312821182148613868FEF9FEFDC01FE
:101CA00087839087A187B287089597FB072E16F444
:101CB000009407D077FD09D00E948F0E07FC05D055
:101CC0003EF4909581959F4F0895709561957F4F53
:101CD0000895052E97FB1EF400940E94800E57FD78
:101CE00007D00E94A21307FC03D04EF40C94800E80
:101CF00050954095309521953F4F4F4F5F4F089538
:101D000090958095709561957F4F8F4F9F4F089567
:101D10000E940614B7FF0895821B930B0895AA1B17
:101D2000BB1B51E107C0AA1FBB1FA617B70710F0C6
:101D3000A61BB70B881F991F5A95A9F780959095F8
:101D4000BC01CD010895EE0FFF1F0590F491E02D29
:101D500009945058BB27AA270E94C10E0C9458130F
:101D60000E944A1338F00E94511320F039F49F3F2B
:101D700019F426F40C9447130EF4E095E7FB0C9449
:101D80004113E92F0E94691358F3BA1762077307CA
:101D90008407950720F079F4A6F50C948B130EF4C4
:101DA000E0950B2EBA2FA02D0B01B90190010C016B
:101DB000CA01A0011124FF27591B99F0593F50F483
:101DC000503E68F11A16F040A22F232F342F4427DB
:101DD000585FF3CF469537952795A795F0405395D3
:101DE000C9F77EF41F16BA0B620B730B840BBAF0A3
:101DF0009150A1F0FF0FBB1F661F771F881FC2F70E
:101E00000EC0BA0F621F731F841F48F48795779521
:101E10006795B795F7959E3F08F0B0CF9395880FDB
:101E200008F09927EE0F9795879508950E942A0F3D
:101E30000C9458130E94511358F00E944A1340F01A
:101E400029F45F3F29F00C94411351110C948C1329
:101E50000C9447130E94691368F39923B1F3552337
:101E600091F3951B550BBB27AA27621773078407AD
:101E700038F09F5F5F4F220F331F441FAA1FA9F343
:101E800035D00E2E3AF0E0E832D091505040E69531
:101E9000001CCAF72BD0FE2F29D0660F771F881F92
:101EA000BB1F261737074807AB07B0E809F0BB0B85
:101EB000802DBF01FF2793585F4F3AF09E3F510599
:101EC00078F00C9441130C948C135F3FE4F3983E2C
:101ED000D4F3869577956795B795F7959F5FC9F782
:101EE000880F911D9695879597F90895E1E0660F03
:101EF000771F881FBB1F621773078407BA0720F07C
:101F0000621B730B840BBA0BEE1F88F7E0950895E4
:101F10000E948F0F6894B1110C948C1308950E9445
:101F2000711388F09F5798F0B92F9927B751B0F0E7
:101F3000E1F0660F771F881F991F1AF0BA95C9F74D
:101F400014C0B13091F00E948B13B1E008950C944D
:101F50008B13672F782F8827B85F39F0B93FCCF300
:101F6000869577956795B395D9F73EF490958095CA
:101F7000709561957F4F8F4F9F4F08950E94B012CB
:101F800008F48FEF08950E94B012880B990B089502
:101F900081E090E0F8940C941514AEE0B0E0E3ED2D
:101FA000FFE00C94DD130D891E8986E08C831A8373
:101FB00009838FEF9FE79E838D83AE01475E5F4F5E
:101FC0006F89788DCE0101960E94F00F2F813885A0
:101FD000F801E20FF31F10822E96E4E00C94F9133F
:101FE000ACE0B0E0E6EFFFE00C94CF137C016B01B6
:101FF0008A01FC0117821682838181FFBDC1CE0157
:1020000001964C01F7019381F60193FD859193FFB1
:1020100081916F01882309F4ABC1853239F493FDB6
:10202000859193FF81916F01853229F4B70190E08A
:102030000E94D811E7CF512C312C20E02032A0F49F
:102040008B3269F030F4803259F0833269F42061C8
:102050002CC08D3239F0803339F4216026C02260E3
:10206000246023C0286021C027FD27C030ED380F31
:102070003A3078F426FF06C0FAE05F9E300D112456
:10208000532E13C08AE0389E300D1124332E206267
:102090000CC08E3221F426FD6BC1206406C08C3644
:1020A00011F4206802C0883641F4F60193FD859151
:1020B00093FF81916F018111C1CF982F9F7D95541E
:1020C000933028F40C5F1F4FFFE3F9830DC0833674
:1020D00031F0833771F0833509F05BC022C0F8011D
:1020E000808189830E5F1F4F44244394512C5401F7
:1020F00015C03801F2E06F0E711CF801A080B180AC
:1021000026FF03C0652D70E002C06FEF7FEFC501B1
:102110002C870E94CD112C0183012C852F77222E34
:1021200017C03801F2E06F0E711CF801A080B18079
:1021300026FF03C0652D70E002C06FEF7FEFC50181
:102140002C870E94C2112C012C852068222E83012D
:1021500023FC1BC0832D90E048165906B0F4B7014C
:1021600080E290E00E94D8113A94F4CFF50127FC68
:10217000859127FE81915F01B70190E00E94D811FF
:1021800031103A94F1E04F1A51084114510471F79B
:10219000E5C0843611F0893639F5F80127FF07C00C
:1021A00060817181828193810C5F1F4F08C06081C3
:1021B0007181072E000C880B990B0E5F1F4F2F7635
:1021C000722E97FF09C090958095709561957F4F0D
:1021D0008F4F9F4F2068722E2AE030E0A4010E94AA
:1021E0001012A82EA81844C0853729F42F7EB22ECD
:1021F0002AE030E025C0F22FF97FBF2E8F36C1F0E4
:1022000018F4883579F0B4C0803719F0883721F098
:10221000AFC02F2F2061B22EB4FE0DC08B2D846075
:10222000B82E09C024FF0AC09F2F9660B92E06C0A1
:1022300028E030E005C020E130E002C020E132E0DB
:10224000F801B7FE07C060817181828193810C5FC4
:102250001F4F06C06081718180E090E00E5F1F4FCC
:10226000A4010E941012A82EA818FB2DFF777F2E24
:1022700076FE0BC0372D3E7FA51450F474FE0AC0C5
:1022800072FC08C0372D3E7E05C0BA2C372D03C026
:10229000BA2C01C0B52C34FF0DC0FE01EA0DF11DB2
:1022A0008081803311F4397E09C032FF06C0B394B7
:1022B000B39404C0832F867809F0B39433FD13C020
:1022C00030FF06C05A2CB31418F4530C5B18B32C0F
:1022D000B31468F4B70180E290E03C870E94D81103
:1022E000B3943C85F5CFB31410F43B1801C0312CE6
:1022F00034FF12C0B70180E390E03C870E94D81100
:102300003C8532FF17C031FD03C088E790E002C072
:1023100088E590E0B7010CC0832F867859F031FF33
:1023200002C08BE201C080E237FD8DE2B70190E090
:102330000E94D811A51438F4B70180E390E00E9400
:10234000D8115A94F7CFAA94F401EA0DF11D8081B7
:10235000B70190E00E94D811A110F5CF332009F405
:1023600051CEB70180E290E00E94D8113A94F6CFA6
:10237000F7018681978102C08FEF9FEF2C96E2E1F3
:102380000C94EB13FC010590615070400110D8F7DC
:10239000809590958E0F9F1F0895FC0161507040AD
:1023A00001900110D8F7809590958E0F9F1F08958A
:1023B0000F931F93CF93DF93FB01238121FD03C074
:1023C0008FEF9FEF28C022FF16C0468157812481DE
:1023D00035814217530744F4A081B1819D012F5FDD
:1023E0003F4F318320838C93268137812F5F3F4F6E
:1023F0003783268310C0EB01092F182F0084F18545
:10240000E02D0995892BE1F68E819F8101969F83AE
:102410008E83812F902FDF91CF911F910F9108957F
:10242000FA01AA27283051F1203181F1E8946F9305
:102430006E7F6E5F7F4F8F4F9F4FAF4FB1E03ED0AB
:10244000B4E03CD0670F781F891F9A1FA11D680F49
:10245000791F8A1F911DA11D6A0F711D811D911D7C
:10246000A11D20D009F468943F912AE0269F1124F1
:102470003019305D3193DEF6CF010895462F477055
:10248000405D4193B3E00FD0C9F7F6CF462F4F70B0
:10249000405D4A3318F0495D31FD4052419302D00E
:1024A000A9F7EACFB4E0A6959795879577956795B4
:1024B000BA95C9F700976105710508959B01AC01B4
:1024C0000A2E06945795479537952795BA95C9F7DB
:1024D000620F731F841F951FA01D08950E94B012E4
:1024E00008F481E00895E89409C097FB3EF49095C4
:1024F0008095709561957F4F8F4F9F4F9923A9F0DD
:10250000F92F96E9BB279395F6958795779567956B
:10251000B795F111F8CFFAF4BB0F11F460FF1BC0AF
:102520006F5F7F4F8F4F9F4F16C0882311F096E942
:1025300011C0772321F09EE8872F762F05C06623F0
:1025400071F096E8862F70E060E02AF09A95660FA9
:10255000771F881FDAF7880F9695879597F9089562
:10256000990F0008550FAA0BE0E8FEEF16161706A4
:10257000E807F907C0F012161306E407F50798F00C
:10258000621B730B840B950B39F40A2661F0232B25
:10259000242B252B21F408950A2609F4A140A695A1
:1025A0008FEF811D811D08950E94E7120C9458132E
:1025B0000E944A1338F00E94511320F0952311F025
:1025C0000C9441130C94471311240C948C130E9407
:1025D000691370F3959FC1F3950F50E0551F629FEB
:1025E000F001729FBB27F00DB11D639FAA27F00D6C
:1025F000B11DAA1F649F6627B00DA11D661F829F93
:102600002227B00DA11D621F739FB00DA11D621F77
:10261000839FA00D611D221F749F3327A00D611D94
:10262000231F849F600D211D822F762F6A2F112476
:102630009F5750409AF0F1F088234AF0EE0FFF1FA9
:10264000BB1F661F771F881F91505040A9F79E3F00
:10265000510580F00C9441130C948C135F3FE4F30C
:10266000983ED4F3869577956795B795F795E79556
:102670009F5FC1F7FE2B880F911D9695879597F95F
:10268000089597F99F6780E870E060E008959FEFF4
:1026900080EC089500240A941616170618060906F9
:1026A000089500240A9412161306140605060895C8
:1026B000092E0394000C11F4882352F0BB0F40F450
:1026C000BF2B11F460FF04C06F5F7F4F8F4F9F4F90
:1026D000089557FD9058440F551F59F05F3F71F012
:1026E0004795880F97FB991F61F09F3F79F0879579
:1026F0000895121613061406551FF2CF4695F1DF02
:1027000008C0161617061806991FF1CF8695710591
:10271000610508940895E894BB2766277727CB01C5
:1027200097F90895DB018F939F930E94C413BF9183
:10273000AF91A29F800D911DA39F900DB29F900D10
:1027400011240895A1E21A2EAA1BBB1BFD010DC086
:10275000AA1FBB1FEE1FFF1FA217B307E407F50751
:1027600020F0A21BB30BE40BF50B661F771F881F2D
:10277000991F1A9469F760957095809590959B01C3
:10278000AC01BD01CF0108950E940614A59F900DD4
:10279000B49F900DA49F800D911D112408952F9238
:1027A0003F924F925F926F927F928F929F92AF92E1
:1027B000BF92CF92DF92EF92FF920F931F93CF932E
:1027C000DF93CDB7DEB7CA1BDB0B0FB6F894DEBFC5
:1027D0000FBECDBF09942A88398848885F846E84EB
:1027E0007D848C849B84AA84B984C884DF80EE8035
:1027F000FD800C811B81AA81B981CE0FD11D0FB63E
:10280000F894DEBF0FBECDBFED010895A29FB001C9
:10281000B39FC001A39F700D811D1124911DB29F14
:0E282000700D811D1124911D0895F894FFCFB5
:10282E00000000002E042E042E046B0067006400CE
:10283E0000000000DB021E0362006B0067005F00F9
:10284E008F0000000000BB038A0584036203760339
:10285E000204564D4450565F317C315F564D445004
:10286E00560D0A00496E2074686520506164646CD0
:10287E006520696E6974007C004C6F6F70696E67BD
:10288E00206D696C6C697320256C750055706461E0
:10289E0074696E6720706164646C650052656E6465
:1028AE006572696E672E2E2E006E616E00696E6601
:1028BE00006F7666005F564D44504500564D4450AD
:0828CE00455F003A323A0000B8
:107E0000112484B714BE81FFF0D085E080938100F7
:107E100082E08093C00088E18093C10086E0809377
:107E2000C20080E18093C4008EE0C9D0259A86E02C
:107E300020E33CEF91E0309385002093840096BBD3
:107E4000B09BFECF1D9AA8958150A9F7CC24DD24C4
:107E500088248394B5E0AB2EA1E19A2EF3E0BF2EE7
:107E6000A2D0813461F49FD0082FAFD0023811F036
:107E7000013811F484E001C083E08DD089C08234E0
:107E800011F484E103C0853419F485E0A6D080C0E4
:107E9000853579F488D0E82EFF2485D0082F10E0AE
:107EA000102F00270E291F29000F111F8ED06801E7
:107EB0006FC0863521F484E090D080E0DECF843638
:107EC00009F040C070D06FD0082F6DD080E0C81688
:107ED00080E7D80618F4F601B7BEE895C0E0D1E017
:107EE00062D089930C17E1F7F0E0CF16F0E7DF06D8
:107EF00018F0F601B7BEE89568D007B600FCFDCFD4
:107F0000A601A0E0B1E02C9130E011968C91119780
:107F100090E0982F8827822B932B1296FA010C0160
:107F200087BEE89511244E5F5F4FF1E0A038BF0790
:107F300051F7F601A7BEE89507B600FCFDCF97BE46
:107F4000E89526C08437B1F42ED02DD0F82E2BD052
:107F50003CD0F601EF2C8F010F5F1F4F84911BD097
:107F6000EA94F801C1F70894C11CD11CFA94CF0C13
:107F7000D11C0EC0853739F428D08EE10CD085E9AC
:107F80000AD08FE07ACF813511F488E018D01DD067
:107F900080E101D065CF982F8091C00085FFFCCF94
:107FA0009093C60008958091C00087FFFCCF809118
:107FB000C00084FD01C0A8958091C6000895E0E648
:107FC000F0E098E1908380830895EDDF803219F02E
:107FD00088E0F5DFFFCF84E1DECF1F93182FE3DFCA
:107FE0001150E9F7F2DF1F91089580E0E8DFEE27F6
:047FF000FF270994CA
:027FFE00040479
:0400000300007E007B
:00000001FF