:100000000C9435000C945D000C945D000C945D0024
:100010000C945D000C945D000C945D000C945D00EC
:100020000C945D000C945D000C945D000C945D00DC
:100030000C945D000C945D000C945D000C945D00CC
:100040000C94E0030C945D000C949F060C947906CC
:100050000C945D000C945D000C945D000C945D00AC
:100060000C945D000C945D00D10611241FBECFEFEF
:10007000D8E0DEBFCDBF11E0A0E0B1E0E8E0F3E101
:1000800002C005900D92A434B107D9F723E0A4E48F
:10009000B1E001C01D92A230B207E1F710E0C5E364
:1000A000D0E004C02197FE010E942B09C433D10780
:1000B000C9F70E941F070C9482090C940000EF926C
:1000C000FF920F931F93CF93DF93EC019091450123
:1000D0009F5F292F27702093450190FF02C090E871
:1000E00001C090E021FD9064247009F0906220E14D
:1000F000290FFE013C967E018FE0E80EF11C00E026
:1001000011E06191662331F070E0C8010E94DD08C2
:100110006F5F01C060E0DF0114976C93322F369F50
:10012000030E30E0311D1124CF010797311103C0B8
:10013000EC01188203C03150EC013883662311F0C2
:1001400061506C93EE15FF05E1F6DF91CF911F91A1
:100150000F91FF90EF90089580E991E00895539AF0
:1001600008950F931F93CF93DF93CDB7DEB76297B8
:100170000FB6F894DEBF0FBECDBF8C01F901DC01D4
:100180001C968C917A8369835C834B835E834D8359
:1001900090819D8791819E8792819F87813029F4EC
:1001A000CE0101960E945F0006C01C861B861A863F
:1001B000198618861F8283E0888B1A8A198AD801CB
:1001C000ED91FC910484F585E02DBE016F5F7F4FBA
:1001D000C801099562960FB6F894DEBF0FBECDBF79
:1001E000DF91CF911F910F9108950F931F93CF939C
:1001F000DF93CDB7DEB762970FB6F894DEBF0FBEC0
:10020000CDBF8C01F901DC011C968C917A83698346
:100210005C834B835E834D8390819D8791819E8714
:1002200092819F87813029F4CE0101960E945F0060
:1002300006C01C861B861A86198618861F82188A95
:100240001A8A198AD801ED91FC910484F585E02D74
:10025000BE016F5F7F4FC801099562960FB6F89493
:10026000DEBF0FBECDBFDF91CF911F910F910895DB
:1002700080E090E00895FC01858596850895CF93F0
:10028000DF9300D000D000D0CDB7DEB7AB011C8229
:100290001D821E82DC01ED91FC910190F081E02D28
:1002A00019821A821B829E012F5F3F4FBE016C5F35
:1002B0007F4F099526960FB6F894DEBF0FBECDBFCF
:1002C000DF91CF9108953FB7F89480914B019091C1
:1002D0004C01A0914D01B0914E0126B5A89B05C0DF
:1002E0002F3F19F00196A11DB11D3FBFBA2FA92FB5
:1002F000982F8827820F911DA11DB11DBC01CD0132
:1003000042E0660F771F881F991F4A95D1F708951D
:100310004F925F926F927F928F92AF92BF92CF92E5
:10032000EF92FF920F931F93CF93DF933C01EB016A
:100330000E946301F30127853089621B730B6A30C9
:100340007105B0F3F894E881F9815BB158608BB125
:10035000877F8BB969859E81262F291B922F2E833B
:10036000BF844A805B807C85FD84EE847F5FF3944C
:10037000E3943F814885AA84CB841081D20120E098
:10038000C32F022F322F3081112788943111390F5A
:1003900008F43FEF9195889470FD130F179588949A
:1003A00071FD130F1795889472FD130F179588949C
:1003B00073FD130F1795889474FD130F1795889488
:1003C00075FD130F1795889476FD130F1795889474
:1003D00077FD130F17958894232F7111212F960FF6
:1003E000122F002C5BB900C000C017FF8BB9318100
:1003F0002227889400C0002C8BB931113C0F00C01B
:10040000002C5BB900C000C016FF8BB908F43FEFA9
:10041000C195889400C0002C8BB9F0FC230F00C05C
:10042000002C5BB900C000C015FF8BB927958894DC
:10043000F1FC230F00C0002C8BB92795889400C0D5
:10044000002C5BB900C000C014FF8BB9F2FC230F75
:100450002795889400C0002C8BB9F3FC230F00C0B3
:10046000002C5BB900C000C013FF8BB9279588949E
:10047000F4FC230F00C0002C8BB92795889400C092
:10048000002C5BB900C000C012FF8BB9F5FC230F34
:100490002795889400C0002C8BB9F6FC230F00C070
:1004A000002C5BB900C000C011FF8BB92795889460
:1004B000F7FC230F00C0002C8BB92795889400C04F
:1004C000002C5BB900C000C010FF8BB9132FF110D6
:1004D000122FCA0D00C0002C8BB900C000C0002C28
:1004E0005BB900C000C017FF8BB932812227889406
:1004F00000C0002C8BB93111340F00C0002C5BB947
:1005000000C000C016FF8BB908F43FEFEB0DF11DE2
:1005100000C0002C8BB9E0FC230F00C0002C5BB99D
:1005200000C000C015FF8BB927958894E1FC230F0C
:1005300000C0002C8BB92795889400C0002C5BB9B3
:1005400000C000C014FF8BB9E2FC230F27958894EC
:1005500000C0002C8BB9E3FC230F00C0002C5BB95A
:1005600000C000C013FF8BB927958894E4FC230FCB
:1005700000C0002C8BB92795889400C0002C5BB973
:1005800000C000C012FF8BB9E5FC230F27958894AB
:1005900000C0002C8BB9E6FC230F00C0002C5BB917
:1005A00000C000C011FF8BB927958894E7FC230F8A
:1005B00000C0002C8BB92795889400C0002C5BB933
:1005C00000C000C010FF8BB9132FE110122F41950E
:1005D00000C0002C8BB94C0D00C000C05BB900C03E
:1005E00000C017FF8BB930812227889400C0002CEF
:1005F0008BB93111390F00C0002C5BB900C000C0AD
:1006000016FF8BB908F43FEF9195889400C0002C39
:100610008BB970FD230F00C0002C5BB900C000C077
:1006200015FF8BB92795889471FD230F00C0002C0E
:100630008BB92795889400C0002C5BB900C000C01E
:1006400014FF8BB972FD230F2795889400C0002CEE
:100650008BB973FD230F00C0002C5BB900C000C034
:1006600013FF8BB92795889474FD230F00C0002CCD
:100670008BB92795889400C0002C5BB900C000C0DE
:1006800012FF8BB975FD230F2795889400C0002CAD
:100690008BB976FD230F00C0002C5BB900C000C0F1
:1006A00011FF8BB92795889477FD230F00C0002C8C
:1006B0008BB92795889400C0002C5BB900C000C09E
:1006C00010FF8BB9132F7111122F960F00C0002C41
:1006D0008BB9119709F086CE20EE31E0D2010E944D
:1006E0001009DC01CB01F4E0B695A79597958795A5
:1006F000FA95D1F720E030E0A9016AE9469E412D44
:10070000569E400D511D1124840F951FA11DB11D32
:10071000893E43E09407A105B10588F1885E9340C6
:10072000A109B10942E0B695A795979587954A9595
:10073000D1F747E0849F212D949F200D311D112476
:100740006091440170E0860F971F820F931F4091C4
:100750004701509148016091490170914A01292F48
:100760003327420F531F611D711D40934701509362
:1007700048016093490170934A0180934401789441
:100780000E946301F301708B6787DF91CF911F9106
:100790000F91FF90EF90CF90BF90AF908F907F9090
:1007A0006F905F904F9008952FB7F8946091470134
:1007B000709148018091490190914A012FBF08959D
:1007C0001F920F920FB60F9211242F933F938F9386
:1007D0009F93AF93BF938091470190914801A0915F
:1007E0004901B0914A013091460123E0230F2D3792
:1007F00020F40196A11DB11D05C026E8230F029625
:10080000A11DB11D2093460180934701909348019B
:10081000A0934901B0934A0180914B0190914C0102
:10082000A0914D01B0914E010196A11DB11D809383
:100830004B0190934C01A0934D01B0934E01BF9199
:10084000AF919F918F913F912F910F900FBE0F907D
:100850001F901895CF92DF92EF92FF920F931F9304
:10086000CF93DF936C017A018B01C0E0D0E0CE150D
:10087000DF0589F0D8016D918D01D601ED91FC91D4
:100880000190F081E02DC6010995892B11F47E01BC
:1008900002C02196ECCFC701DF91CF911F910F913C
:1008A000FF90EF90DF90CF900895FC01918D828DA5
:1008B000981761F0828DDF01A80FB11D5D968C91B4
:1008C000928D9F5F9F73928F90E008958FEF9FEFBF
:1008D0000895FC01918D828D981731F0828DE80F7B
:1008E000F11D858D90E008958FEF9FEF0895FC0135
:1008F000918D228D892F90E0805C9F4F821B910902
:100900008F739927089580E192E00E94770421E097
:10091000892B09F420E0822F0895FC01848DDF01EA
:10092000A80FB11DA35ABF4F2C91848D90E0019662
:100930008F739927848FA689B7892C93A089B18951
:100940008C9180648C93938D848D981306C002885B
:10095000F389E02D80818F7D80830895EF92FF924F
:100960000F931F93CF93DF93EC0181E0888F9B8DD2
:100970008C8D981305C0E889F989808185FD24C094
:10098000F62E0B8D10E00F5F1F4F0F731127E02E17
:100990008C8DE8120CC00FB607FCFACFE889F989F4
:1009A000808185FFF5CFCE010E948D04F1CF8B8D24
:1009B000FE01E80FF11DE35AFF4FF0820B8FEA8929
:1009C000FB898081806207C0EE89FF896083E889A6
:1009D000F98980818064808381E090E0DF91CF910C
:1009E0001F910F91FF90EF900895CF93DF93EC014B
:1009F000888D8823C9F0EA89FB89808185FD05C03F
:100A0000A889B9898C9186FD0FC00FB607FCF5CF78
:100A1000808185FFF2CFA889B9898C9185FFEDCFC0
:100A2000CE010E948D04E7CFDF91CF91089580E041
:100A300090E0892B29F00E94830481110C9400001E
:100A400008958F929F92AF92BF92CF92DF92EF92D2
:100A5000FF926B017C010E9463014B015C01C11498
:100A6000D104E104F104F1F00E946301DC01CB0147
:100A700088199909AA09BB09883E9340A105B105C7
:100A800070F321E0C21AD108E108F10888EE880E5F
:100A900083E0981EA11CB11CC114D104E104F1042F
:100AA00019F7DDCFFF90EF90DF90CF90BF90AF9020
:100AB0009F908F9008953F924F925F926F927F9296
:100AC0008F929F92AF92BF92CF92DF92EF92FF925E
:100AD0000F931F93CF93DF9300D01F92CDB7DEB754
:100AE000F82E8091F8029091F902A091FA02B0914B
:100AF000FB02892B8A2B8B2BE9F00E94630100916A
:100B00000C0210910D0220910E0230910F02DC01B7
:100B1000CB01801B910BA20BB30B0091F80210913B
:100B2000F9022091FA023091FB0280179107A20787
:100B3000B307B8F20E94630160930C0270930D0238
:100B400080930E0290930F02E0910003F091010355
:100B5000309759F04091FC025091FD026091FE02E5
:100B60007091FF028F2D0995F82E00910A021091C5
:100B70000B024F2C512C612C712C0115110509F41D
:100B800061C0D8011C96EC901C978091F602909160
:100B9000F7028436910510F41C961C92D801ED9151
:100BA000FC91A280B38019821A821B82F11014C0BA
:100BB000F80145855685628173819E012F5F3F4F05
:100BC000C801F5010995D8011C96EC921C97149662
:100BD0000D911C911597D1CFF8013996CE01019650
:100BE0006C0148019CE0890E911CDF0113973C9039
:100BF0002191332001F12223F1F0822F90E0A0E037
:100C0000B0E09C01AD012F5F3F4F4F4F5F4FC301DD
:100C1000B2010E9436099B01AC01832D90E0A0E057
:100C2000B0E0BC01CD016F5F7F4F8F4F9F4F0E949F
:100C30003609D6018C93BFEFCB1ADB0AE815F9050C
:100C4000A1F6B6CF80910802909109028C010F5F46
:100C50001F4F109309020093080249979CF10E94CC
:100C6000D4034B015C0188EE93E0089FB001099F1B
:100C7000700D189F700D1124072E000C880B990B16
:100C8000C0900402D0900502E0900602F0900702A6
:100C9000A50194012C193D094E095F090E944609DE
:100CA0003093F7022093F602109209021092080284
:100CB0000E94D4036093040270930502809306029D
:100CC000909307020F900F900F90DF91CF911F919B
:100CD0000F91FF90EF90DF90CF90BF90AF909F90DB
:100CE0008F907F906F905F904F903F9008950E94FB
:100CF00031091F920F920FB60F9211242F933F9339
:100D00004F935F936F937F938F939F93AF93BF9313
:100D1000EF93FF9380E192E00E948D04FF91EF91A9
:100D2000BF91AF919F918F917F916F915F914F9103
:100D30003F912F910F900FBE0F901F9018951F920B
:100D40000F920FB60F9211242F938F939F93EF93CF
:100D5000FF93E0912002F09121028081E091260230
:100D6000F091270282FD12C09081809129028F5F4D
:100D70008F7320912A02821751F0E0912902F0E04E
:100D8000E05FFD4F958F8093290201C08081FF9124
:100D9000EF919F918F912F910F900FBE0F901F9009
:100DA0001895E0E1F2E01382128288EE93E0A0E071
:100DB000B0E084839583A683B78386E291E0918334
:100DC000808385EC90E09587848784EC90E097871A
:100DD000868780EC90E0918B808B81EC90E0938B08
:100DE000828B82EC90E0958B848B86EC90E0978BE5
:100DF000868B118E128E138E148EEDEAF2E016821F
:100E0000178210861186128613861486158616861A
:100E10001786108A118A128A138A148A158AE5EFB6
:100E2000F2E08FEF808312821182148613868FEF97
:100E30009FEFDC0187839087A187B287089578941C
:100E400084B5826084BD84B5816084BD85B58260CF
:100E500085BD85B5816085BD80916E008160809380
:100E60006E001092810080918100826080938100E9
:100E700080918100816080938100809180008160F9
:100E8000809380008091B10084608093B100809154
:100E9000B00081608093B00080917A00846080937C
:100EA0007A0080917A00826080937A0080917A0043
:100EB000816080937A0080917A00806880937A00C4
:100EC0001092C1001092F1021092F2021092F302FD
:100ED0001092F4021092AF021092B0021092B1027E
:100EE0001092B20260ED77E080E090E00E94210570
:100EF00080E192E09093F0028093EF02E091200273
:100F0000F091210282E08083E0911C02F0911D02A9
:100F10001082E0911E02F0911F0280E18083109206
:100F20002802E0912402F091250286E08083E0917E
:100F30002202F0912302808180618083E09122026D
:100F4000F0912302808188608083E0912202F091F9
:100F50002302808180688083E0912202F091230245
:100F600080818F7D80830E94D4036093AF02709351
:100F7000B0028093B1029093B2028091EF029091FF
:100F8000F002DC01ED91FC910280F381E02D41E162
:100F900050E062E371E009956AE070E080E090E083
:100FA0000E94210591E09093C3028091620181111A
:100FB00044C010925401109253018FEF8093570157
:100FC000809358018093590180935A0180935B016B
:100FD00080935C0190935D0110925F0110925E011D
:100FE000109256011092550180910A0290910B02C5
:100FF000892B31F481E591E090930B0280930A02F2
:10100000E0914F01F0915001309721F081E591E09E
:101010009583848381E591E09093500180934F0103
:10102000109261011092600184E191E0909352016D
:101030008093510181E080936201E0915101F09130
:1010400052010480F581E02D81E591E009958CE65F
:1010500091E0909354018093530182E390E0909348
:101060005F0180935E01E0915101F0915201028491
:10107000F385E02D81E591E00995009729F19C0128
:1010800040E050E060E472E48FE090E00E94F108FC
:10109000722F632F0091F8021091F9022091FA0249
:1010A0003091FB02872F962FDA0180179107A20754
:1010B000B30710F4D901C8018093F8029093F902A4
:1010C000A093FA02B093FB02C5EFDEED13EB02E44E
:1010D0001092030210920202809102029091030288
:1010E000823391050CF066C020E030E0F901E4594C
:1010F000FE4F1082118212822D5F3F4F263931053B
:10110000A9F7FC01EE0FFF1F8E0F9F1FFC01E45992
:10111000FE4FC083D183128300937C0080917A00BC
:10112000806480937A0080917A0086FDFCCFC09025
:10113000780080917900D12CD82AD0926B01C0928E
:101140006A018091F5020E945B050D2C000CEE08EF
:10115000FF080E94D4034B015C0161E070E080E075
:1011600090E00E9421058091F5020E945B050E949B
:10117000D403DC01CB0188199909AA09BB098C1594
:101180009D05AE05BF0548F380E090E0FC01E45901
:10119000FE4F108211821282039686399105B1F7B3
:1011A0008091020290910302019690930302809332
:1011B000020292CF0E9417058BCF97FB072E16F4E1
:1011C000009407D077FD09D00E94170907FC05D0CD
:1011D0003EF4909581959F4F0895709561957F4F4E
:1011E0000895052E97FB1EF400940E94080957FDF0
:1011F00007D00E94460907FC03D04EF40C9408095E
:1012000050954095309521953F4F4F4F5F4F089532
:1012100090958095709561957F4F8F4F9F4F089562
:101220000E947309B7FF0895821B930B0895AA1BB0
:10123000BB1B51E107C0AA1FBB1FA617B70710F0C1
:10124000A61BB70B881F991F5A95A9F780959095F3
:10125000BC01CD010895EE0FFF1F0590F491E02D24
:10126000099481E090E0F8940C948209DB018F935B
:101270009F930E946809BF91AF91A29F800D911D1D
:10128000A39F900DB29F900D11240895A1E21A2EF4
:10129000AA1BBB1BFD010DC0AA1FBB1FEE1FFF1F1A
:1012A000A217B307E407F50720F0A21BB30BE40B6A
:1012B000F50B661F771F881F991F1A9469F76095B1
:1012C0007095809590959B01AC01BD01CF0108956B
:1012D0000E947309A59F900DB49F900DA49F800D4F
:1012E000911D11240895A29FB001B39FC001A39F37
:1012F000700D811D1124911DB29F700D811D11244F
:08130000911D0895F894FFCF40
:10130800000000007706770677063F013B013801A9
:1013180000000000F500B100AF003F013B01AC0048
:10132800880100000000AE042A047704550469040B
:10133800F504564D4450565F317C315F564D44504C
:04134800560D0A0034
:107E0000112484B714BE81FFF0D085E080938100F7
:107E100082E08093C00088E18093C10086E0809377
:107E2000C20080E18093C4008EE0C9D0259A86E02C
:107E300020E33CEF91E0309385002093840096BBD3
:107E4000B09BFECF1D9AA8958150A9F7CC24DD24C4
:107E500088248394B5E0AB2EA1E19A2EF3E0BF2EE7
:107E6000A2D0813461F49FD0082FAFD0023811F036
:107E7000013811F484E001C083E08DD089C08234E0
:107E800011F484E103C0853419F485E0A6D080C0E4
:107E9000853579F488D0E82EFF2485D0082F10E0AE
:107EA000102F00270E291F29000F111F8ED06801E7
:107EB0006FC0863521F484E090D080E0DECF843638
:107EC00009F040C070D06FD0082F6DD080E0C81688
:107ED00080E7D80618F4F601B7BEE895C0E0D1E017
:107EE00062D089930C17E1F7F0E0CF16F0E7DF06D8
:107EF00018F0F601B7BEE89568D007B600FCFDCFD4
:107F0000A601A0E0B1E02C9130E011968C91119780
:107F100090E0982F8827822B932B1296FA010C0160
:107F200087BEE89511244E5F5F4FF1E0A038BF0790
:107F300051F7F601A7BEE89507B600FCFDCF97BE46
:107F4000E89526C08437B1F42ED02DD0F82E2BD052
:107F50003CD0F601EF2C8F010F5F1F4F84911BD097
:107F6000EA94F801C1F70894C11CD11CFA94CF0C13
:107F7000D11C0EC0853739F428D08EE10CD085E9AC
:107F80000AD08FE07ACF813511F488E018D01DD067
:107F900080E101D065CF982F8091C00085FFFCCF94
:107FA0009093C60008958091C00087FFFCCF809118
:107FB000C00084FD01C0A8958091C6000895E0E648
:107FC000F0E098E1908380830895EDDF803219F02E
:107FD00088E0F5DFFFCF84E1DECF1F93182FE3DFCA
:107FE0001150E9F7F2DF1F91089580E0E8DFEE27F6
:047FF000FF270994CA
:027FFE00040479
:0400000300007E007B
:00000001FF