:100000000C9436000C945E000C945E000C945E0020
:100010000C945E000C945E000C945E000C945E00E8
:100020000C945E000C945E000C945E000C945E00D8
:100030000C945E000C945E000C945E000C945E00C8
:100040000C948D040C945E000C94B7060C949106ED
:100050000C945E000C945E000C945E000C945E00A8
:100060000C945E000C945E00EA06E90611241FBEA3
:10007000CFEFD8E0DEBFCDBF11E0A0E0B1E0E4EC0F
:10008000F9E102C005900D92A834B107D9F723E039
:10009000A8E4B1E001C01D92A83BB207E1F710E06F
:1000A000C5E3D0E004C02197FE010E94FB0BC433DE
:1000B000D107C9F70E9438070C94D50C0C940000A6
:1000C000FC01918D828D981761F0828DDF01A80F60
:1000D000B11D5D968C91928D9F5F9F73928F90E082
:1000E00008958FEF9FEF0895FC01918D828D9817F1
:1000F00031F0828DE80FF11D858D90E008958FEF2E
:100100009FEF0895FC01918D228D892F90E0805CF6
:100110009F4F821B91098F739927089580E090E08B
:10012000892B29F00E94020581110C94000008958A
:10013000EF92FF920F931F93CF93DF93EC01909177
:1001400049019F5F292F27702093490190FF02C02A
:1001500090E801C090E021FD9064247009F0906265
:1001600020E1290FFE013C967E018FE0E80EF11C94
:1001700000E011E06191662331F070E0C8010E9457
:10018000CC0B6F5F01C060E0DF0114976C93322FDE
:10019000369F030E30E0311D1124CF010797311136
:1001A00003C0EC01188203C03150EC013883662390
:1001B00011F061506C93EE15FF05E1F6DF91CF91E0
:1001C0001F910F91FF90EF90089580E991E00895BD
:1001D000539A08950F931F93CF93DF93CDB7DEB754
:1001E00062970FB6F894DEBF0FBECDBF8C01F90148
:1001F000DC011C968C917A8369835C834B835E83DC
:100200004D8390819D8791819E8792819F878130C8
:1002100029F4CE0101960E94980006C01C861B8618
:100220001A86198618861F8283E0888B1A8A198A93
:10023000D801ED91FC910484F585E02DBE016F5F3E
:100240007F4FC801099562960FB6F894DEBF0FBEC6
:10025000CDBFDF91CF911F910F9108950F931F9301
:10026000CF93DF93CDB7DEB762970FB6F894DEBFBA
:100270000FBECDBF8C01F901DC011C968C917A83F5
:1002800069835C834B835E834D8390819D879181DD
:100290009E8792819F87813029F4CE0101960E942A
:1002A000980006C01C861B861A86198618861F822F
:1002B000188A1A8A198AD801ED91FC910484F5856F
:1002C000E02DBE016F5F7F4FC801099562960FB6A2
:1002D000F894DEBF0FBECDBFDF91CF911F910F917C
:1002E000089580E090E00895FC0185859685089545
:1002F000CF93DF9300D000D000D0CDB7DEB7AB01F5
:100300001C821D821E82DC01ED91FC910190F08126
:10031000E02D19821A821B829E012F5F3F4FBE0182
:100320006C5F7F4F099526960FB6F894DEBF0FBE1F
:10033000CDBFDF91CF9108950E94010CFC01848D07
:10034000DF01A80FB11DA35ABF4F2C91848D90E0FF
:1003500001968F739927848FA689B7892C93A089DA
:10036000B1898C9180648C93938D848D981306C091
:100370000288F389E02D80818F7D808308958E30FF
:1003800008F08E508770806480937C0080917A00A2
:10039000806480937A0080917A0086FDFCCF809102
:1003A00078002091790090E0922B08953FB7F8945F
:1003B00080914F0190915001A0915101B091520153
:1003C00026B5A89B05C02F3F19F00196A11DB11DB0
:1003D0003FBFBA2FA92F982F8827820F911DA11DEB
:1003E000B11DBC01CD0142E0660F771F881F991F28
:1003F0004A95D1F708958F929F92AF92BF92CF9274
:10040000DF92EF92FF926B017C010E94D6014B01BB
:100410005C01C114D104E104F104F1F00E94D601A1
:10042000DC01CB0188199909AA09BB09883E9340D0
:10043000A105B10570F321E0C21AD108E108F10865
:1004400088EE880E83E0981EA11CB11CC114D10453
:10045000E104F10419F7DDCFFF90EF90DF90CF902A
:10046000BF90AF909F908F9008954F925F926F9240
:100470007F928F92AF92BF92CF92EF92FF920F93A3
:100480001F93CF93DF933C01EB010E94D601F30150
:1004900027853089621B730B6A307105B0F3F894BD
:1004A000E881F9815BB158608BB1877F8BB9698531
:1004B0009E81262F291B922F2E83BF844A805B802A
:1004C0007C85FD84EE847F5FF394E3943F814885CF
:1004D000AA84CB841081D20120E0C32F022F322FB7
:1004E0003081112788943111390F08F43FEF91952D
:1004F000889470FD130F1795889471FD130F17954D
:10050000889472FD130F1795889473FD130F179538
:10051000889474FD130F1795889475FD130F179524
:10052000889476FD130F1795889477FD130F179510
:100530008894232F7111212F960F122F002C5BB955
:1005400000C000C017FF8BB931812227889400C0FA
:10055000002C8BB931113C0F00C0002C5BB900C0DE
:1005600000C016FF8BB908F43FEFC195889400C016
:10057000002C8BB9F0FC230F00C0002C5BB900C02D
:1005800000C015FF8BB927958894F1FC230F00C09C
:10059000002C8BB92795889400C0002C5BB900C053
:1005A00000C014FF8BB9F2FC230F2795889400C07C
:1005B000002C8BB9F3FC230F00C0002C5BB900C0EA
:1005C00000C013FF8BB927958894F4FC230F00C05B
:1005D000002C8BB92795889400C0002C5BB900C013
:1005E00000C012FF8BB9F5FC230F2795889400C03B
:1005F000002C8BB9F6FC230F00C0002C5BB900C0A7
:1006000000C011FF8BB927958894F7FC230F00C019
:10061000002C8BB92795889400C0002C5BB900C0D2
:1006200000C010FF8BB9132FF110122FCA0D00C09C
:10063000002C8BB900C000C0002C5BB900C000C00A
:1006400017FF8BB932812227889400C0002C8BB908
:100650003111340F00C0002C5BB900C000C016FF80
:100660008BB908F43FEFEB0DF11D00C0002C8BB9E6
:10067000E0FC230F00C0002C5BB900C000C015FFD8
:100680008BB927958894E1FC230F00C0002C8BB90F
:100690002795889400C0002C5BB900C000C014FFEF
:1006A0008BB9E2FC230F2795889400C0002C8BB9EE
:1006B000E3FC230F00C0002C5BB900C000C013FF97
:1006C0008BB927958894E4FC230F00C0002C8BB9CC
:1006D0002795889400C0002C5BB900C000C012FFB1
:1006E0008BB9E5FC230F2795889400C0002C8BB9AB
:1006F000E6FC230F00C0002C5BB900C000C011FF56
:100700008BB927958894E7FC230F00C0002C8BB988
:100710002795889400C0002C5BB900C000C010FF72
:100720008BB9132FE110122F419500C0002C8BB90B
:100730004C0D00C000C05BB900C000C017FF8BB9F2
:1007400030812227889400C0002C8BB93111390FD9
:1007500000C0002C5BB900C000C016FF8BB908F4C4
:100760003FEF9195889400C0002C8BB970FD230F4A
:1007700000C0002C5BB900C000C015FF8BB92795E5
:10078000889471FD230F00C0002C8BB927958894A5
:1007900000C0002C5BB900C000C014FF8BB972FD13
:1007A000230F2795889400C0002C8BB973FD230F6D
:1007B00000C0002C5BB900C000C013FF8BB92795A7
:1007C000889474FD230F00C0002C8BB92795889462
:1007D00000C0002C5BB900C000C012FF8BB975FDD2
:1007E000230F2795889400C0002C8BB976FD230F2A
:1007F00000C0002C5BB900C000C011FF8BB9279569
:10080000889477FD230F00C0002C8BB9279588941E
:1008100000C0002C5BB900C000C010FF8BB9132FC3
:100820007111122F960F00C0002C8BB9119709F08F
:1008300086CE20EE31E0D2010E94E00BDC01CB013C
:10084000F4E0B695A79597958795FA95D1F720E0AE
:1008500030E0A9016AE9469E412D569E400D511D8A
:100860001124840F951FA11DB11D893E43E09407FB
:10087000A105B10588F1885E9340A109B10942E064
:10088000B695A795979587954A95D1F747E0849FA8
:10089000212D949F200D311D11246091480170E09D
:1008A000860F971F820F931F40914B0150914C016F
:1008B00060914D0170914E01292F3327420F531F34
:1008C000611D711D40934B0150934C0160934D018C
:1008D00070934E018093480178940E94D601F301F1
:1008E000708B6787DF91CF911F910F91FF90EF90F1
:1008F000CF90BF90AF908F907F906F905F904F9010
:1009000008952FB7F89460914B0170914C0180913C
:100910004D0190914E012FBF08951F920F920FB677
:100920000F9211242F933F938F939F93AF93BF9375
:1009300080914B0190914C01A0914D01B0914E01DD
:1009400030914A0123E0230F2D3720F40196A11D99
:10095000B11D05C026E8230F0296A11DB11D2093ED
:100960004A0180934B0190934C01A0934D01B093A9
:100970004E0180914F0190915001A0915101B09191
:1009800052010196A11DB11D80934F01909350011A
:10099000A0935101B0935201BF91AF919F918F915C
:1009A0003F912F910F900FBE0F901F901895CF92EF
:1009B000DF92EF92FF920F931F93CF93DF936C011F
:1009C0007A018B01C0E0D0E0CE15DF0589F0D801B7
:1009D0006D918D01D601ED91FC910190F081E02D9A
:1009E000C6010995892B11F47E0102C02196ECCF36
:1009F000C701DF91CF911F910F91FF90EF90DF9092
:100A0000CF90089586EC92E00E94820021E0892B2D
:100A100009F420E0822F08953F924F925F926F92E7
:100A20007F928F929F92AF92BF92CF92DF92EF927E
:100A3000FF920F931F93CF93DF9300D01F92CDB7F8
:100A4000DEB7F82E8091AE039091AF03A091B00372
:100A5000B091B103892B8A2B8B2BE9F00E94D60130
:100A60000091C2021091C3022091C4023091C502CC
:100A7000DC01CB01801B910BA20BB30B0091AE03E9
:100A80001091AF032091B0033091B103801791070B
:100A9000A207B307B8F20E94D6016093C202709316
:100AA000C3028093C4029093C502E091B603F09113
:100AB000B703309759F04091B2035091B30360915E
:100AC000B4037091B5038F2D0995F82E0091C002E3
:100AD0001091C1024F2C512C612C712C0115110564
:100AE00009F461C0D8011C96EC901C978091AC036E
:100AF0009091AD038436910510F41C961C92D80198
:100B0000ED91FC91A280B38019821A821B82F110B0
:100B100014C0F80145855685628173819E012F5F5F
:100B20003F4FC801F5010995D8011C96EC921C971E
:100B300014960D911C911597D1CFF8013996CE01DD
:100B400001966C0148019CE0890E911CDF0113970E
:100B50003C902191332001F12223F1F0822F90E08B
:100B6000A0E0B0E09C01AD012F5F3F4F4F4F5F4FC2
:100B7000C301B2010E94620C9B01AC01832D90E085
:100B8000A0E0B0E0BC01CD016F5F7F4F8F4F9F4F62
:100B90000E94620CD6018C93BFEFCB1ADB0AE815DA
:100BA000F905A1F6B6CF8091BE029091BF028C01EB
:100BB0000F5F1F4F1093BF020093BE0249979CF135
:100BC0000E9481044B015C0188EE93E0089FB00114
:100BD000099F700D189F700D1124072E000C880BB3
:100BE000990BC090BA02D090BB02E090BC02F0908A
:100BF000BD02A50194012C193D094E095F090E940F
:100C0000720C3093AD032093AC031092BF0210928C
:100C1000BE020E9481046093BA027093BB0280936B
:100C2000BC029093BD020F900F900F90DF91CF9177
:100C30001F910F91FF90EF90DF90CF90BF90AF90FA
:100C40009F908F907F906F905F904F903F9008950E
:100C5000EF92FF920F931F93CF93DF93EC0181E00C
:100C6000888F9B8D8C8D981305C0E889F9898081C8
:100C700085FD24C0F62E0B8D10E00F5F1F4F0F7304
:100C80001127E02E8C8DE8120CC00FB607FCFACFAE
:100C9000E889F989808185FFF5CFCE010E949E0108
:100CA000F1CF8B8DFE01E80FF11DE35AFF4FF0826B
:100CB0000B8FEA89FB898081806207C0EE89FF89FA
:100CC0006083E889F98980818064808381E090E095
:100CD000DF91CF911F910F91FF90EF900895CF93E7
:100CE000DF93EC01888D8823C9F0EA89FB89808134
:100CF00085FD05C0A889B9898C9186FD0FC00FB606
:100D000007FCF5CF808185FFF2CFA889B9898C9146
:100D100085FFEDCFCE010E949E01E7CFDF91CF91FD
:100D200008951F920F920FB60F9211242F933F93A5
:100D30004F935F936F937F938F939F93AF93BF93E3
:100D4000EF93FF9386EC92E00E949E01FF91EF915A
:100D5000BF91AF919F918F917F916F915F914F91D3
:100D60003F912F910F900FBE0F901F9018951F92DB
:100D70000F920FB60F9211242F938F939F93EF939F
:100D8000FF93E091D602F091D7028081E091DC02DE
:100D9000F091DD0282FD12C090818091DF028F5FB1
:100DA0008F732091E002821751F0E091DF02F0E0B2
:100DB000EA53FD4F958F8093DF0201C08081FF9140
:100DC000EF919F918F912F910F900FBE0F901F90D9
:100DD00018950895E6ECF2E01382128288EE93E013
:100DE000A0E0B0E084839583A683B7838AE291E094
:100DF0009183808385EC90E09587848784EC90E0F4
:100E00009787868780EC90E0918B808B81EC90E0D7
:100E1000938B828B82EC90E0958B848B86EC90E0B8
:100E2000978B868B118E128E138E148EE3E6F3E071
:100E300016821782108611861286138614861586EE
:100E400016861786108A118A128A138A148A158ABE
:100E5000EBEAF3E08FEF808312821182148613860F
:100E60008FEF9FEFDC0187839087A187B28708957A
:100E7000CF93DF93CDB7DEB7A2970FB6F894DEBF5E
:100E80000FBECDBF789484B5826084BD84B5816087
:100E900084BD85B5826085BD85B5816085BD809145
:100EA0006E00816080936E001092810080918100BD
:100EB00082608093810080918100816080938100B5
:100EC000809180008160809380008091B100846077
:100ED0008093B1008091B00081608093B0008091D8
:100EE0007A00846080937A0080917A008260809397
:100EF0007A0080917A00816080937A0080917A00F4
:100F0000806880937A001092C1001092A70310921B
:100F1000A8031092A9031092AA03109265031092DD
:100F20006603109267031092680360ED77E080E03B
:100F300090E00E94FB0186EC92E09093A6038093E0
:100F4000A503E091D602F091D70282E08083E09180
:100F5000D202F091D3021082E091D402F091D50236
:100F600080E180831092DE02E091DA02F091DB02F0
:100F700086E08083E091D802F091D902808180617F
:100F80008083E091D802F091D902808188608083CB
:100F9000E091D802F091D902808180688083E0914D
:100FA000D802F091D90280818F7D80830E948104D4
:100FB000609365037093660380936703909368035F
:100FC0008091A5039091A603DC01ED91FC91028034
:100FD000F381E02D41E150E066E371E009956AE0BC
:100FE00070E080E090E00E94FB0191E09093790333
:100FF00080910D02811144C01092FF011092FE01F8
:101000008FEF809302028093030280930402809307
:1010100005028093060280930702909308021092C3
:101020000A021092090210920102109200028091AD
:10103000C0029091C102892B31F48CEF91E0909322
:10104000C1028093C002E091FA01F091FB01309758
:1010500021F08CEF91E0958384838CEF91E0909365
:10106000FB018093FA0110920C0210920B0288E1AE
:1010700091E09093FD018093FC0181E080930D024B
:10108000E091FC01F091FD010480F581E02D8CEFF1
:1010900091E0099584E292E09093FF018093FE0134
:1010A00082E390E090930A0280930902E091FC01B0
:1010B000F091FD010284F385E02D8CEF91E009951C
:1010C000009729F19C0140E050E060E472E48FE079
:1010D00090E00E94940C722F632F0091AE03109148
:1010E000AF032091B0033091B103872F962FDA011F
:1010F00080179107A207B30710F4D901C8018093A4
:10110000AE039093AF03A093B003B093B10387E80D
:1011100093E1909354018093530188EC90E0909375
:10112000560180935501DD24DA94D0925701109234
:101130005801109259018FEF90E090935B018093DA
:101140005A018FEF9FEF90935D0180935C0182E0E5
:1011500090E090935F0180935E0134E2E32E32E0F1
:10116000F32EF0926101E092600180912002909153
:101170002102893091050CF057C02FE0289F800193
:10118000299F100D11240C591E4F89819A81F80155
:10119000918380838B819C81938382838D819E81C7
:1011A000958384838F8186838885878389858087DB
:1011B0008A859B85928781878C859D859487838787
:1011C0008E859F85968785870E94520C63E070E02C
:1011D0000E94CC0BD80111967C936E9384E690E02C
:1011E00013969C938E93129716961C9216971796A9
:1011F0001C9217971896DC92189780E197E2159643
:101200009C938E9314971E961C921E921D971A966D
:10121000FC92EE9219978091200290912102019602
:1012200090932102809320022CE9222E33243A94B9
:1012300080E090E02FEFFC01EC5DFD4F20832183E7
:101240002283039686399105B1F781E00E94BF01A0
:101250008C01909319028093180280E00E94BF01D4
:10126000FC01909317028093160220915301309154
:1012700054010132B2E01B077CF0C801925069E1D1
:1012800070E00E94CC0B620F731F603127E272077F
:10129000ACF06FE077E212C0003E51E0150794F425
:1012A00080E092E0801B910B67EE7FEF0E94CC0BF9
:1012B000620F731F77FF02C060E070E0709354010B
:1012C0006093530180911502811126C02091550130
:1012D00030915601E13282E0F80754F0213C92E16E
:1012E00039071CF428533F4F0FC028E833E10CC0E6
:1012F000E03EF1400CF52C32B1E03B071CF0285CDD
:10130000310902C024E630E03093560120935501A4
:1013100081E08093150210C0E13022E0F20724F052
:10132000E032F2403CF008C080E092E08E1B9F0B60
:10133000809714F41092150240905301509054017C
:10134000E0905501F0905601C2018E199F0997FF58
:1013500002C080E090E068EC70E00E94CC0BE62FC9
:10136000472F60931E0270931F02C2018E0D9F1DB6
:101370008031A7E29A0714F08FE097E268EC70E002
:101380000E94CC0B6B01B2E0CB0ED11CD0921D029F
:10139000C0921C02E09322024093230220911A0281
:1013A00030911B020E2F142FF801EE0FFF1FE00FDC
:1013B000F11F32968091600190916101E80FF91F51
:1013C00048EC409FC001419F900D11243C016418DE
:1013D0007508481A590AA12CB12C54E6E50EF11CE7
:1013E0000C151D050CF05BC0C501860D971D181668
:1013F00019061CF0C2018A199B099701281B390B99
:101400002536310514F024E630E037FF02C020E035
:1014100030E04F0182E0881A9108D4014C9150913C
:101420005701529FC001539F900D1124B1010E949A
:10143000CC0B640F711D77FF02C060E070E0D40137
:101440006C93DF014E914D0150915801529FC001A4
:10145000539F900D1124B1010E94CC0B640F711D9C
:1014600077FF02C060E070E0D4016C93408150913E
:101470005901529FC001539F900D1124B1010E9448
:10148000CC0B640F711D77FF02C060E070E06083D9
:101490000F5F1F4F3396B8ECAB0EB11CA1CF30934A
:1014A0001B0220931A021092230210922202E09152
:1014B0002002F0912102FC8BEB8B40901E02F091F8
:1014C0001F02FA8BA0901C02B0901D02922E832E58
:1014D000E12CF12C4FE0EB89FC89EE16FF060CF0B5
:1014E0001DC14E9DF0014F9DF00D1124EC59FE4F92
:1014F0008585968501979687858724813581280F74
:10150000391F37FD03C03583248307C01582148239
:10151000919581959109968785874E9DD0014F9D24
:10152000B00D1124AC59BE4FED91FC91119712965C
:101530002D913C911397CF01821B930B97FF02C013
:1015400080E090E068EC70E00E94CC0B8B01462EAE
:101550001A8BCF01820F931F803127E2920714F07C
:101560008FE097E268EC70E00E94CC0B5B0152E0E8
:10157000A50EB11C9801000F111F020F131F58EC8C
:10158000529FF001539FF00D1124F88FEF8B58E319
:10159000529FF001539FF00DF21B1124FE8BED8B37
:1015A000612C712C4E9DF0014F9DF00D1124EC59D2
:1015B000FE4FCF0102969A8F898FDF011496BC8F60
:1015C000AB8F0796998B888B1296BE8FAD8F029743
:1015D00098A38F8F1296BAA3A9A32A153B050CF0E6
:1015E00098C0A98DBA8D8D919C918C599F4FA081E7
:1015F000B1816F89788D660D771D6A1B7B0B16167E
:10160000170634F06D897E89661977096A0F7B1F8A
:10161000861B970B97FD10C0BC018536910514F011
:1016200064E670E0A0E1B7E26A9FC0016B9F900D95
:101630007A9F900D112402C080E090E0AB8DBC8DAC
:101640006D917C91A1E1B7E2A61BB70BBD010E9491
:10165000CC0B7B01962E8F2CA889B989CD90DC907C
:10166000C00ED11ED6015C90AD8DBE8D5C91569F93
:10167000C001579F900D1124B1010E94CC0B650D44
:10168000711D77FF02C060E070E0D6016C93A889FD
:10169000B989CD90DC90C00ED11ED60111965C9018
:1016A000AF8DB8A15C915E9DC0015F9D900D11242E
:1016B000B1010E94CC0B650D711D77FF02C060E087
:1016C00070E0D60111966C93A889B989CD90DC9011
:1016D000C00ED11ED60112965C90A9A1BAA15C9150
:1016E0005E9DC0015F9D900D1124B1010E94CC0B45
:1016F000650D711D77FF02C060E070E0D6011296A3
:101700006C932F5F3F4F0D5F1F4FB8EC6B0E711C3A
:1017100064CF7901EFEFEE1AFE0ADDCEF0922302DC
:10172000E092220290921A0280921B0240921E02C4
:10173000FA89F0931F02B0921D02A0921C028091C0
:10174000AB030E940C050E9481046B017C0161E0E7
:1017500070E080E090E00E94FB018091AB030E946A
:101760000C050E948104DC01CB018C199D09AE0996
:10177000BF094497A105B10550F380E090E0FC015A
:10178000EC5DFD4F1082118212820396863991051D
:10179000B1F70E948E004CCD97FB072E16F40094F3
:1017A00007D077FD09D00E94E70B07FC05D03EF477
:1017B000909581959F4F0895709561957F4F0895FD
:1017C0000E94C60CB7FF0895821B930B0895AA1BB5
:1017D000BB1B51E107C0AA1FBB1FA617B70710F01C
:1017E000A61BB70B881F991F5A95A9F7809590954E
:1017F000BC01CD010895EE0FFF1F0590F491E02D7F
:10180000099481E090E0F8940C94D50C8F929F920B
:10181000AF92BF92CF92DF92EF92FF92CF93DF937E
:10182000EC01688179818A819B816115710581054F
:10183000910521F464E279ED8BE597E02DE133EF3A
:1018400041E050E00E94940C49015A019B01AC0117
:10185000A7EAB1E40E94B30C6B017C01ACEEB4EFDB
:10186000A50194010E94C10CDC01CB018C0D9D1DD2
:10187000AE1DBF1DB7FF03C00197A109B048888303
:101880009983AA83BB839F77DF91CF91FF90EF90DD
:10189000DF90CF90BF90AF909F908F9008950E945F
:1018A000060C089580E091E00E94060C0895A0E0E7
:1018B000B0E08093000190930101A0930201B093E6
:1018C00003010895DB018F939F930E94B30CBF9196
:1018D000AF91A29F800D911DA39F900DB29F900D7F
:1018E00011240895A1E21A2EAA1BBB1BFD010DC0F5
:1018F000AA1FBB1FEE1FFF1FA217B307E407F507C0
:1019000020F0A21BB30BE40BF50B661F771F881F9B
:10191000991F1A9469F760957095809590959B0131
:10192000AC01BD01CF010895052E97FB1EF4009474
:101930000E94AB0C57FD07D00E94720C07FC03D02D
:101940004EF40C94AB0C50954095309521953F4F3B
:101950004F4F5F4F089590958095709561957F4F9B
:101960008F4F9F4F08950E94C60CA59F900DB49F66
:10197000900DA49F800D911D11240895B7FF0C9424
:10198000B30C0E94B30C821B930B0895A29FB0016D
:10199000B39FC001A39F700D811D1124911DB29FA3
:1019A000700D811D1124911D089510E0C5E3D0E054
:1019B00004C0FE010E94FB0B2196C633D107C9F774
:0419C000F894FFCFC9
:1019C40001000000000000009C019C019C017801C2
:1019D40074017101000000002E01EA00E8007801A2
:1019E4007401E5003502000000002806D7048200D7
:1019F400600074006F06564D4450565F317C315F71
:081A0400564D4450560D0A0036
:107E0000112484B714BE81FFF0D085E080938100F7
:107E100082E08093C00088E18093C10086E0809377
:107E2000C20080E18093C4008EE0C9D0259A86E02C
:107E300020E33CEF91E0309385002093840096BBD3
:107E4000B09BFECF1D9AA8958150A9F7CC24DD24C4
:107E500088248394B5E0AB2EA1E19A2EF3E0BF2EE7
:107E6000A2D0813461F49FD0082FAFD0023811F036
:107E7000013811F484E001C083E08DD089C08234E0
:107E800011F484E103C0853419F485E0A6D080C0E4
:107E9000853579F488D0E82EFF2485D0082F10E0AE
:107EA000102F00270E291F29000F111F8ED06801E7
:107EB0006FC0863521F484E090D080E0DECF843638
:107EC00009F040C070D06FD0082F6DD080E0C81688
:107ED00080E7D80618F4F601B7BEE895C0E0D1E017
:107EE00062D089930C17E1F7F0E0CF16F0E7DF06D8
:107EF00018F0F601B7BEE89568D007B600FCFDCFD4
:107F0000A601A0E0B1E02C9130E011968C91119780
:107F100090E0982F8827822B932B1296FA010C0160
:107F200087BEE89511244E5F5F4FF1E0A038BF0790
:107F300051F7F601A7BEE89507B600FCFDCF97BE46
:107F4000E89526C08437B1F42ED02DD0F82E2BD052
:107F50003CD0F601EF2C8F010F5F1F4F84911BD097
:107F6000EA94F801C1F70894C11CD11CFA94CF0C13
:107F7000D11C0EC0853739F428D08EE10CD085E9AC
:107F80000AD08FE07ACF813511F488E018D01DD067
:107F900080E101D065CF982F8091C00085FFFCCF94
:107FA0009093C60008958091C00087FFFCCF809118
:107FB000C00084FD01C0A8958091C6000895E0E648
:107FC000F0E098E1908380830895EDDF803219F02E
:107FD00088E0F5DFFFCF84E1DECF1F93182FE3DFCA
:107FE0001150E9F7F2DF1F91089580E0E8DFEE27F6
:047FF000FF270994CA
:027FFE00040479
:0400000300007E007B
:00000001FF