:100000000C9435000C945D000C945D000C945D0024
:100010000C945D000C945D000C945D000C945D00EC
:100020000C945D000C945D000C945D000C945D00DC
:100030000C945D000C945D000C945D000C945D00CC
:100040000C9462060C945D000C94B5040C948F041F
:100050000C945D000C945D000C945D000C945D00AC
:100060000C945D000C945D00F90611241FBECFEFC7
:10007000D8E0DEBFCDBF11E0A0E0B1E0E8EFFEE1E7
:1000800002C005900D92A43AB107D9F725E0A4EA81
:10009000B1E001C01D92A337B207E1F710E0C5E35C
:1000A000D0E004C02197FE010E947F0AC433D1072B
:1000B000C9F70E9464070C947A0F0C94000080E941
:1000C00091E00895539A089580E090E00895FC012E
:1000D000858596850895CF93DF9300D000D000D01A
:1000E000CDB7DEB7AB011C821D821E82DC01ED9113
:1000F000FC910190F081E02D19821A821B829E01F1
:100100002F5F3F4FBE016C5F7F4F099526960FB65C
:10011000F894DEBF0FBECDBFDF91CF9108954F920F
:100120005F926F927F928F92AF92BF92CF92EF9237
:10013000FF920F931F93CF93DF933C01EB010E943B
:10014000E704F30127853089621B730B6A30710560
:10015000B0F3F894E881F9815BB158608BB1877F87
:100160008BB969859E81262F291B922F2E83BF84F0
:100170004A805B807C85FD84EE847F5FF394E3940A
:100180003F814885AA84CB841081D20120E0C32F0F
:10019000022F322F3081112788943111390F08F442
:1001A0003FEF9195889470FD130F1795889471FD1A
:1001B000130F1795889472FD130F1795889473FD8C
:1001C000130F1795889474FD130F1795889475FD78
:1001D000130F1795889476FD130F1795889477FD64
:1001E000130F17958894232F7111212F960F122F1B
:1001F000002C5BB900C000C017FF8BB931812227EA
:10020000889400C0002C8BB931113C0F00C0002C29
:100210005BB900C000C016FF8BB908F43FEFC19571
:10022000889400C0002C8BB9F0FC230F00C0002C78
:100230005BB900C000C015FF8BB927958894F1FC0D
:10024000230F00C0002C8BB92795889400C0002C88
:100250005BB900C000C014FF8BB9F2FC230F2795D7
:10026000889400C0002C8BB9F3FC230F00C0002C35
:100270005BB900C000C013FF8BB927958894F4FCCC
:10028000230F00C0002C8BB92795889400C0002C48
:100290005BB900C000C012FF8BB9F5FC230F279596
:1002A000889400C0002C8BB9F6FC230F00C0002CF2
:1002B0005BB900C000C011FF8BB927958894F7FC8B
:1002C000230F00C0002C8BB92795889400C0002C08
:1002D0005BB900C000C010FF8BB9132FF110122FB3
:1002E000CA0D00C0002C8BB900C000C0002C5BB947
:1002F00000C000C017FF8BB932812227889400C04C
:10030000002C8BB93111340F00C0002C5BB900C038
:1003100000C016FF8BB908F43FEFEB0DF11D00C0D4
:10032000002C8BB9E0FC230F00C0002C5BB900C08F
:1003300000C015FF8BB927958894E1FC230F00C0FE
:10034000002C8BB92795889400C0002C5BB900C0A5
:1003500000C014FF8BB9E2FC230F2795889400C0DE
:10036000002C8BB9E3FC230F00C0002C5BB900C04C
:1003700000C013FF8BB927958894E4FC230F00C0BD
:10038000002C8BB92795889400C0002C5BB900C065
:1003900000C012FF8BB9E5FC230F2795889400C09D
:1003A000002C8BB9E6FC230F00C0002C5BB900C009
:1003B00000C011FF8BB927958894E7FC230F00C07C
:1003C000002C8BB92795889400C0002C5BB900C025
:1003D00000C010FF8BB9132FE110122F419500C000
:1003E000002C8BB94C0D00C000C05BB900C000C030
:1003F00017FF8BB930812227889400C0002C8BB95D
:100400003111390F00C0002C5BB900C000C016FFCD
:100410008BB908F43FEF9195889400C0002C8BB9FC
:1004200070FD230F00C0002C5BB900C000C015FF99
:100430008BB92795889471FD230F00C0002C8BB9D0
:100440002795889400C0002C5BB900C000C014FF41
:100450008BB972FD230F2795889400C0002C8BB9AF
:1004600073FD230F00C0002C5BB900C000C013FF58
:100470008BB92795889474FD230F00C0002C8BB98D
:100480002795889400C0002C5BB900C000C012FF03
:100490008BB975FD230F2795889400C0002C8BB96C
:1004A00076FD230F00C0002C5BB900C000C011FF17
:1004B0008BB92795889477FD230F00C0002C8BB94A
:1004C0002795889400C0002C5BB900C000C010FFC5
:1004D0008BB9132F7111122F960F00C0002C8BB9FE
:1004E000119709F086CE20EE31E0D2010E94640A15
:1004F000DC01CB01F4E0B695A79597958795FA9521
:10050000D1F720E030E0A9016AE9469E412D569ED0
:10051000400D511D1124840F951FA11DB11D893E51
:1005200043E09407A105B10588F1885E9340A109D5
:10053000B10942E0B695A795979587954A95D1F769
:1005400047E0849F212D949F200D311D112460913F
:10055000A40170E0860F971F820F931F4091A501A1
:100560005091A6016091A7017091A801292F33270E
:10057000420F531F611D711D4093A5015093A601A9
:100580006093A7017093A8018093A40178940E94BE
:10059000E704F301708B6787DF91CF911F910F9173
:1005A000FF90EF90CF90BF90AF908F907F906F9023
:1005B0005F904F9008950F931F93CF93DF93CDB724
:1005C000DEB762970FB6F894DEBF0FBECDBF8C01C9
:1005D000F901DC011C968C917A8369835C834B83DF
:1005E0005E834D8390819D8791819E8792819F87B5
:1005F000813029F4CE0101960E94AC0606C01C860B
:100600001B861A86198618861F8283E0888B1A8AB1
:10061000198AD801ED91FC910484F585E02DBE0185
:100620006F5F7F4FC801099562960FB6F894DEBFE1
:100630000FBECDBFDF91CF911F910F9108950F9302
:100640001F93CF93DF93CDB7DEB762970FB6F894C1
:10065000DEBF0FBECDBF8C01F901DC011C968C9171
:100660007A8369835C834B835E834D8390819D870E
:1006700091819E8792819F87813029F4CE010196D6
:100680000E94AC0606C01C861B861A861986188630
:100690001F82188A1A8A198AD801ED91FC91048464
:1006A000F585E02DBE016F5F7F4FC8010995629609
:1006B0000FB6F894DEBF0FBECDBFDF91CF911F9173
:1006C0000F910895CF92DF92EF92FF920F931F93B5
:1006D000CF93DF936C017A018B01C0E0D0E0CE159F
:1006E000DF0589F0D8016D918D01D601ED91FC9166
:1006F0000190F081E02DC6010995892B11F47E014E
:1007000002C02196ECCFC701DF91CF911F910F91CD
:10071000FF90EF90DF90CF900895FC01918D828D36
:10072000981761F0828DDF01A80FB11D5D968C9145
:10073000928D9F5F9F73928F90E008958FEF9FEF50
:100740000895FC01918D828D981731F0828DE80F0C
:10075000F11D858D90E008958FEF9FEF0895FC01C6
:10076000918D228D892F90E0805C9F4F821B910993
:100770008F739927089582E794E00E94AF0321E0E8
:10078000892B09F420E0822F0895FC01848DDF017C
:10079000A80FB11DA35ABF4F2C91848D90E00196F4
:1007A0008F739927848FA689B7892C93A089B189E3
:1007B0008C9180648C93938D848D981306C00288ED
:1007C000F389E02D80818F7D80830895EF92FF92E1
:1007D0000F931F93CF93DF93EC0181E0888F9B8D64
:1007E0008C8D981305C0E889F989808185FD24C026
:1007F000F62E0B8D10E00F5F1F4F0F731127E02EA9
:100800008C8DE8120CC00FB607FCFACFE889F98985
:10081000808185FFF5CFCE010E94C503F1CF8B8D7E
:10082000FE01E80FF11DE35AFF4FF0820B8FEA89BA
:10083000FB898081806207C0EE89FF896083E88937
:10084000F98980818064808381E090E0DF91CF919D
:100850001F910F91FF90EF900895CF93DF93EC01DC
:10086000888D8823C9F0EA89FB89808185FD05C0D0
:10087000A889B9898C9186FD0FC00FB607FCF5CF0A
:10088000808185FFF2CFA889B9898C9185FFEDCF52
:10089000CE010E94C503E7CFDF91CF91089580E09C
:1008A00090E0892B29F00E94BB0381110C94000079
:1008B00008952FB7F8946091A5017091A6018091D9
:1008C000A7019091A8012FBF08956115710579F0D6
:1008D000FB0101900020E9F73197AF01461B570B50
:1008E000DC01ED91FC910280F381E02D099480E020
:1008F00090E00895CF93DF93BC0182E794E00E94DB
:100900006504EC0161E471E082E794E00E94650413
:100910008C0F9D1FDF91CF9108950E942D0B1F9288
:100920000F920FB60F9211242F933F934F935F9323
:100930006F937F938F939F93AF93BF93EF93FF93A7
:1009400082E794E00E94C503FF91EF91BF91AF91C0
:100950009F918F917F916F915F914F913F912F91D7
:100960000F900FBE0F901F9018951F920F920FB609
:100970000F9211242F938F939F93EF93FF93E09106
:100980008204F09183048081E0918804F0918904CD
:1009900082FD12C0908180918B048F5F8F732091B4
:1009A0008C04821751F0E0918B04F0E0EE58FB4F7D
:1009B000958F80938B0401C08081FF91EF919F916F
:1009C0008F912F910F900FBE0F901F9018953FB7EA
:1009D000F8948091AB019091AC01A091AD01B091E0
:1009E000AE0126B5A89B05C02F3F19F00196A11DA9
:1009F000B11D3FBFBA2FA92F982F8827820F911DB5
:100A0000A11DB11DBC01CD0142E0660F771F881FFB
:100A1000991F4A95D1F708953F924F925F926F9236
:100A20007F928F929F92AF92BF92CF92DF92EF927E
:100A3000FF920F931F93CF93DF9300D01F92CDB7F8
:100A4000DEB7F82E80915A0590915B05A0915C0568
:100A5000B0915D05892B8A2B8B2BE9F00E94E7046E
:100A600000916E0410916F04209170043091710414
:100A7000DC01CB01801B910BA20BB30B00915A053B
:100A800010915B0520915C0530915D058017910701
:100A9000A207B307B8F20E94E70460936E04709354
:100AA0006F048093700490937104E0916205F0915B
:100AB0006305309759F040915E0550915F05609154
:100AC0006005709161058F2D0995F82E00916C04D9
:100AD00010916D044F2C512C612C712C01151105B6
:100AE00009F461C0D8011C96EC901C9780915805C0
:100AF000909159058436910510F41C961C92D801EA
:100B0000ED91FC91A280B38019821A821B82F110B0
:100B100014C0F80145855685628173819E012F5F5F
:100B20003F4FC801F5010995D8011C96EC921C971E
:100B300014960D911C911597D1CFF8013996CE01DD
:100B400001966C0148019CE0890E911CDF0113970E
:100B50003C902191332001F12223F1F0822F90E08B
:100B6000A0E0B0E09C01AD012F5F3F4F4F4F5F4FC2
:100B7000C301B2010E94F70E9B01AC01832D90E0EE
:100B8000A0E0B0E0BC01CD016F5F7F4F8F4F9F4F62
:100B90000E94F70ED6018C93BFEFCB1ADB0AE81543
:100BA000F905A1F6B6CF80916A0490916B048C018F
:100BB0000F5F1F4F10936B0400936A0449979CF1D9
:100BC0000E9459044B015C0188EE93E0089FB0013C
:100BD000099F700D189F700D1124072E000C880BB3
:100BE000990BC0906604D0906704E0906804F09080
:100BF0006904A50194012C193D094E095F090E9461
:100C0000070F309359052093580510926B041092EA
:100C10006A040E9459046093660470936704809389
:100C20006804909369040F900F900F90DF91CF911B
:100C30001F910F91FF90EF90DF90CF90BF90AF90FA
:100C40009F908F907F906F905F904F903F9008950E
:100C50008F929F92AF92BF92CF92DF92EF92FF92CC
:100C60006B017C010E94E7044B015C01C114D104BB
:100C7000E104F104F1F00E94E704DC01CB018819E2
:100C80009909AA09BB09883E9340A105B10570F3F3
:100C900021E0C21AD108E108F10888EE880E83E04D
:100CA000981EA11CB11CC114D104E104F10419F770
:100CB000DDCFFF90EF90DF90CF90BF90AF909F90EF
:100CC0008F9008951F920F920FB60F9211242F93B9
:100CD0003F938F939F93AF93BF938091A501909182
:100CE000A601A091A701B091A8013091AA0123E02B
:100CF000230F2D3720F40196A11DB11D05C026E854
:100D0000230F0296A11DB11D2093AA018093A50176
:100D10009093A601A093A701B093A8018091AB0185
:100D20009091AC01A091AD01B091AE010196A11DD1
:100D3000B11D8093AB019093AC01A093AD01B09332
:100D4000AE01BF91AF919F918F913F912F910F90E5
:100D50000FBE0F901F901895EF92FF920F931F9365
:100D6000CF93DF93EC019091A9019F5F292F27700A
:100D70002093A90190FF02C090E801C090E021FDFE
:100D80009064247009F0906220E1290FFE013C96E6
:100D90007E018FE0E80EF11C00E011E06191662316
:100DA00031F070E0C8010E94310A6F5F01C060E05D
:100DB000DF0114976C93322F369F030E30E0311D04
:100DC0001124CF010797311103C0EC01188203C031
:100DD0003150EC013883662311F061506C93EE15AD
:100DE000FF05E1F6DF91CF911F910F91FF90EF90FA
:100DF0000895E2E7F4E01382128288EE93E0A0E027
:100E0000B0E084839583A683B78386E291E09183E3
:100E1000808385EC90E09587848784EC90E09787C9
:100E2000868780EC90E0918B808B81EC90E0938BB7
:100E3000828B82EC90E0958B848B86EC90E0978B94
:100E4000868B118E128E138E148EEFE0F5E01682D3
:100E500017821086118612861386148615861686CA
:100E60001786108A118A128A138A148A158AE7E56E
:100E7000F5E08FEF808312821182148613864FEF84
:100E80005FEFBA014783508761877287E4E6F5E038
:100E900040E050E068EC71E44083518362837383E7
:100EA00021E030E0358324831682178280878FEF1C
:100EB00090E0928781878FEF9FEF9487838782E00E
:100EC00090E0968785870895789484B5826084BD84
:100ED00084B5816084BD85B5826085BD85B581603E
:100EE00085BD80916E00816080936E0010928100BC
:100EF0008091810082608093810080918100816077
:100F00008093810080918000816080938000809137
:100F1000B10084608093B1008091B00081608093C3
:100F2000B00080917A00846080937A0080917A008A
:100F3000826080937A0080917A00816080937A0049
:100F400080917A00806880937A001092C10010929C
:100F500053051092540510925505109256051092A3
:100F6000110510921205109213051092140560EDF0
:100F700077E080E090E00E94280682E794E090937A
:100F8000520580935105E0918204F091830482E040
:100F90008083E0917E04F0917F041082E0918004D0
:100FA000F091810480E1808310928A04E0918604AC
:100FB000F091870486E08083E0918404F0918504B9
:100FC000808180618083E0918404F0918504808138
:100FD00088608083E0918404F0918504808180683A
:100FE0008083E0918404F091850480818F7D8083EB
:100FF0000E945904609311057093120580931305A4
:101000009093140562E371E080915105909152052F
:101010000E9465046AE070E080E090E00E9428068B
:1010200091E0909325058091C201811144C01092F6
:10103000B4011092B3018FEF8093B7018093B80190
:101040008093B9018093BA018093BB018093BC0166
:101050009093BD011092BF011092BE011092B60193
:101060001092B50180916C0490916D04892B31F43C
:1010700081EB91E090936D0480936C04E091AF015B
:10108000F091B001309721F081EB91E0958384835A
:1010900081EB91E09093B0018093AF011092C10178
:1010A0001092C00184E191E09093B2018093B1016C
:1010B00081E08093C201E091B101F091B20104801E
:1010C000F581E02D81EB91E0099580ED91E0909321
:1010D000B4018093B30182E390E09093BF018093C9
:1010E000BE01E091B101F091B2010284F385E02DDF
:1010F00081EB91E00995009729F19C0140E050E0D7
:1011000060E472E48FE090E00E94450A722F632F42
:1011100000915A0510915B0520915C0530915D05A9
:10112000872F962FDA0180179107A207B30710F4D3
:10113000D901C80180935A0590935B05A0935C0583
:10114000B0935D0580E090E0A8ECB1E48093640585
:1011500090936505A0936605B093670584E491E0DC
:101160000E947A0406E612E0FDE82F2EF1E03F2E01
:101170000E9459049F938F937F936F93A5E5B1E0ED
:10118000BF93AF931F930F930E94320B86E692E0BA
:101190000E947A04C0916405D0916505F0906605BF
:1011A000E090670597016C2F7D2F832F922F0E946F
:1011B000F20AAB01ADB7BEB718960FB6F894BEBF32
:1011C0000FBEADBF6F3FBFEF7B0744F09B0177FFC2
:1011D00002C02F5F3F4F3595279502C020E030E0D9
:1011E0002093CE013093CF014236510554F4AB0128
:1011F00077FF02C04F5F5F4FCA01959587950196B3
:1012000002C081E390E09093CD018093CC019F9345
:101210008F933F932F93809169058F9380916805F9
:101220008F93EF92FF92DF93CF93A7E6B1E0BF9346
:10123000AF931F930F930E94320B86E692E00E94B9
:101240007A04C091CE01D091CF014E01880C991C37
:101250008C0E9D1E8DB79EB70E960FB6F8949EBF4E
:101260000FBE8DBFA12CB12C8091CC019091CD01EE
:10127000C817D9070CF0C8C080916805909169051E
:10128000BC016150710977FDBC01759567956F5F71
:101290007F4F072E000C880B990B0E94DA0D2B0153
:1012A0003C01BE010D2E000C880B990B0E94DA0D3B
:1012B0009B01AC01609164057091650580916605A4
:1012C000909167050E94850A6B017C0120E030E067
:1012D000A9010E94280BA701960118160CF050587E
:1012E000C301B2010E94850A20E030E040E85FE3DC
:1012F0000E94280B1816BCF020E030E0A901C701BD
:10130000B6010E94280BA701960118160CF0505840
:10131000C301B2010E94850A20E030E0A9010E94C9
:10132000D30D87FD34C020E030E0A901C701B6012C
:101330000E94280BA701960118160CF05058C30103
:10134000B2010E94850A20E030E040E85FE30E949D
:10135000280B1816F4F020E030E0A901C701B6010F
:101360000E94280B181624F0F7FAF094F7F8F0947E
:10137000A7019601C301B2010E94850A20E030E076
:101380004FE753E40E94390E0E94F20A04C060E065
:1013900001C06FEF70E06093CA017093CB017F933F
:1013A0006F93DF93CF933F922F921F930F930E94DF
:1013B000320B86E692E00E947A048091CA01F50120
:1013C000E80DF91DE053FE4F90916A05899F902D1D
:1013D0001124908390916B05899F902D1124918306
:1013E00090916C05899F802D112482832196B3E012
:1013F000AB0EB11C2DB73EB7285F3F4F0FB6F89428
:101400003EBF0FBE2DBF30CF809157050E940C0507
:101410000E9459046B017C0161E070E080E090E083
:101420000E942806809157050E940C050E945904CD
:10143000DC01CB018C199D09AE09BF094497A105B8
:10144000B10550F380E090E0FC01E053FE4F1082C4
:1014500011821282039686399105B1F70E944F04DA
:1014600087CE97FB072E16F4009407D077FD09D09E
:101470000E946B0A07FC05D03EF4909581959F4F22
:101480000895709561957F4F0895052E97FB1EF482
:1014900000940E945C0A57FD07D00E94070F07FCCA
:1014A00003D04EF40C945C0A5095409530952195EC
:1014B0003F4F4F4F5F4F0895909580957095619580
:1014C0007F4F8F4F9F4F08950E946B0FB7FF089576
:1014D000821B930B0895AA1BBB1B51E107C0AA1FD7
:1014E000BB1FA617B70710F0A61BB70B881F991FC5
:1014F0005A95A9F780959095BC01CD010895EE0FFE
:10150000FF1F0590F491E02D09945058BB27AA279E
:101510000E949D0A0C94BD0E0E94AF0E38F00E94EE
:10152000B60E20F039F49F3F19F426F40C94AC0E5B
:101530000EF4E095E7FB0C94A60EE92F0E94CE0E68
:1015400058F3BA17620773078407950720F079F4F8
:10155000A6F50C94F00E0EF4E0950B2EBA2FA02DEC
:101560000B01B90190010C01CA01A0011124FF2750
:10157000591B99F0593F50F4503E68F11A16F0404B
:10158000A22F232F342F4427585FF3CF469537954A
:101590002795A795F0405395C9F77EF41F16BA0B0F
:1015A000620B730B840BBAF09150A1F0FF0FBB1FBD
:1015B000661F771F881FC2F70EC0BA0F621F731F06
:1015C000841F48F4879577956795B795F7959E3F63
:1015D00008F0B0CF9395880F08F09927EE0F9795F4
:1015E000879508950E94F90A6894B1110C94F10E40
:1015F00008950E94D60E88F09F5798F0B92F99272A
:10160000B751B0F0E1F0660F771F881F991F1AF0ED
:10161000BA95C9F714C0B13091F00E94F00EB1E054
:1016200008950C94F00E672F782F8827B85F39F053
:10163000B93FCCF3869577956795B395D9F73EF486
:1016400090958095709561957F4F8F4F9F4F08952E
:101650000E94150E08F48FEF089581E090E0F89451
:101660000C947A0FAEE0B0E0E8E3FBE00C94420F9C
:101670000D891E8986E08C831A8309838FEF9FE78B
:101680009E838D83AE01475E5F4F6F89788DCE015B
:1016900001960E94550B2F813885F801E20FF31F48
:1016A00010822E96E4E00C945E0FACE0B0E0EBE527
:1016B000FBE00C94340F7C016B018A01FC01178262
:1016C0001682838181FFBDC1CE0101964C01F701D5
:1016D0009381F60193FD859193FF81916F0188239A
:1016E00009F4ABC1853239F493FD859193FF819163
:1016F0006F01853229F4B70190E00E943D0DE7CFDC
:10170000512C312C20E02032A0F48B3269F030F4DF
:10171000803259F0833269F420612CC08D3239F067
:10172000803339F4216026C02260246023C0286001
:1017300021C027FD27C030ED380F3A3078F426FF5E
:1017400006C0FAE05F9E300D1124532E13C08AE0CC
:10175000389E300D1124332E20620CC08E3221F4BD
:1017600026FD6BC1206406C08C3611F4206802C0CF
:10177000883641F4F60193FD859193FF81916F01C5
:101780008111C1CF982F9F7D9554933028F40C5F21
:101790001F4FFFE3F9830DC0833631F0833771F0BB
:1017A000833509F05BC022C0F801808189830E5F18
:1017B0001F4F44244394512C540115C03801F2E0CA
:1017C0006F0E711CF801A080B18026FF03C0652D4B
:1017D00070E002C06FEF7FEFC5012C870E94320DD1
:1017E0002C0183012C852F77222E17C03801F2E0BF
:1017F0006F0E711CF801A080B18026FF03C0652D1B
:1018000070E002C06FEF7FEFC5012C870E94270DAB
:101810002C012C852068222E830123FC1BC0832DE4
:1018200090E048165906B0F4B70180E290E00E94BB
:101830003D0D3A94F4CFF50127FC859127FE819167
:101840005F01B70190E00E943D0D31103A94F1E044
:101850004F1A51084114510471F7E5C0843611F054
:10186000893639F5F80127FF07C0608171818281CF
:1018700093810C5F1F4F08C060817181072E000C9F
:10188000880B990B0E5F1F4F2F76722E97FF09C0A2
:1018900090958095709561957F4F8F4F9F4F2068F1
:1018A000722E2AE030E0A4010E94750DA82EA8181F
:1018B00044C0853729F42F7EB22E2AE030E025C0BF
:1018C000F22FF97FBF2E8F36C1F018F4883579F0EA
:1018D000B4C0803719F0883721F0AFC02F2F2061B6
:1018E000B22EB4FE0DC08B2D8460B82E09C024FF2B
:1018F0000AC09F2F9660B92E06C028E030E005C0D0
:1019000020E130E002C020E132E0F801B7FE07C07C
:1019100060817181828193810C5F1F4F06C060815D
:10192000718180E090E00E5F1F4FA4010E94750D51
:10193000A82EA818FB2DFF777F2E76FE0BC0372D23
:101940003E7FA51450F474FE0AC072FC08C0372D07
:101950003E7E05C0BA2C372D03C0BA2C01C0B52C71
:1019600034FF0DC0FE01EA0DF11D8081803311F4BA
:10197000397E09C032FF06C0B394B39404C0832FEC
:10198000867809F0B39433FD13C030FF06C05A2C9B
:10199000B31418F4530C5B18B32CB31468F4B701E8
:1019A00080E290E03C870E943D0DB3943C85F5CFEA
:1019B000B31410F43B1801C0312C34FF12C0B7012E
:1019C00080E390E03C870E943D0D3C8532FF17C0CC
:1019D00031FD03C088E790E002C088E590E0B701E0
:1019E0000CC0832F867859F031FF02C08BE201C012
:1019F00080E237FD8DE2B70190E00E943D0DA51415
:101A000038F4B70180E390E00E943D0D5A94F7CF7F
:101A1000AA94F401EA0DF11D8081B70190E00E94C3
:101A20003D0DA110F5CF332009F451CEB70180E26E
:101A300090E00E943D0D3A94F6CFF70186819781A0
:101A400002C08FEF9FEF2C96E2E10C94500FFC0147
:101A50000590615070400110D8F7809590958E0FD9
:101A60009F1F0895FC016150704001900110D8F74C
:101A7000809590958E0F9F1F08950F931F93CF937E
:101A8000DF93FB01238121FD03C08FEF9FEF28C06F
:101A900022FF16C0468157812481358142175307A2
:101AA00044F4A081B1819D012F5F3F4F318320839A
:101AB0008C93268137812F5F3F4F3783268310C059
:101AC000EB01092F182F0084F185E02D0995892B52
:101AD000E1F68E819F8101969F838E83812F902FC7
:101AE000DF91CF911F910F910895FA01AA27283015
:101AF00051F1203181F1E8946F936E7F6E5F7F4FDB
:101B00008F4F9F4FAF4FB1E03ED0B4E03CD0670F56
:101B1000781F891F9A1FA11D680F791F8A1F911DA9
:101B2000A11D6A0F711D811D911DA11D20D009F4F9
:101B300068943F912AE0269F11243019305D31933B
:101B4000DEF6CF010895462F4770405D4193B3E024
:101B50000FD0C9F7F6CF462F4F70405D4A3318F0CB
:101B6000495D31FD4052419302D0A9F7EACFB4E07C
:101B7000A6959795879577956795BA95C9F7009734
:101B80006105710508959B01AC010A2E06945795D5
:101B9000479537952795BA95C9F7620F731F841F2C
:101BA000951FA01D08950E94150E08F481E0089568
:101BB000E89409C097FB3EF49095809570956195E7
:101BC0007F4F8F4F9F4F9923A9F0F92F96E9BB279D
:101BD0009395F695879577956795B795F111F8CF19
:101BE000FAF4BB0F11F460FF1BC06F5F7F4F8F4F84
:101BF0009F4F16C0882311F096E911C0772321F07A
:101C00009EE8872F762F05C0662371F096E8862F11
:101C100070E060E02AF09A95660F771F881FDAF768
:101C2000880F9695879597F90895990F0008550F95
:101C3000AA0BE0E8FEEF16161706E807F907C0F052
:101C400012161306E407F50798F0621B730B840B5A
:101C5000950B39F40A2661F0232B242B252B21F434
:101C600008950A2609F4A140A6958FEF811D811DD4
:101C700008950E944C0E0C94BD0E0E94AF0E38F0D9
:101C80000E94B60E20F0952311F00C94A60E0C9431
:101C9000AC0E11240C94F10E0E94CE0E70F3959FA1
:101CA000C1F3950F50E0551F629FF001729FBB2753
:101CB000F00DB11D639FAA27F00DB11DAA1F649FEF
:101CC0006627B00DA11D661F829F2227B00DA11DA2
:101CD000621F739FB00DA11D621F839FA00D611D28
:101CE000221F749F3327A00D611D231F849F600D49
:101CF000211D822F762F6A2F11249F5750409AF072
:101D0000F1F088234AF0EE0FFF1FBB1F661F771FFD
:101D1000881F91505040A9F79E3F510580F00C94C8
:101D2000A60E0C94F10E5F3FE4F3983ED4F3869533
:101D300077956795B795F795E7959F5FC1F7FE2B68
:101D4000880F911D9695879597F9089597F99F6744
:101D500080E870E060E008959FEF80EC0895002433
:101D60000A941616170618060906089500240A9400
:101D700012161306140605060895092E0394000C86
:101D800011F4882352F0BB0F40F4BF2B11F460FF15
:101D900004C06F5F7F4F8F4F9F4F089557FD90583E
:101DA000440F551F59F05F3F71F04795880F97FB1F
:101DB000991F61F09F3F79F08795089512161306D9
:101DC0001406551FF2CF4695F1DF08C01616170608
:101DD0001806991FF1CF869571056105089408953D
:101DE000E894BB2766277727CB0197F90895DB0195
:101DF0008F939F930E94290FBF91AF91A29F800D57
:101E0000911DA39F900DB29F900D11240895A1E202
:101E10001A2EAA1BBB1BFD010DC0AA1FBB1FEE1F64
:101E2000FF1FA217B307E407F50720F0A21BB30BAF
:101E3000E40BF50B661F771F881F991F1A9469F72B
:101E400060957095809590959B01AC01BD01CF0187
:101E500008950E946B0FA59F900DB49F900DA49FB5
:101E6000800D911D112408952F923F924F925F9201
:101E70006F927F928F929F92AF92BF92CF92DF929A
:101E8000EF92FF920F931F93CF93DF93CDB7DEB7FF
:101E9000CA1BDB0B0FB6F894DEBF0FBECDBF099493
:101EA0002A88398848885F846E847D848C849B84EA
:101EB000AA84B984C884DF80EE80FD800C811B81F8
:101EC000AA81B981CE0FD11D0FB6F894DEBF0FBE27
:101ED000CDBFED010895A29FB001B39FC001A39FA4
:101EE000700D811D1124911DB29F700D811D112453
:081EF000911D0895F894FFCF45
:101EF800000000008D048D048D046B0067006400F1
:101F0800000000001F03DB0262006B0067005F0037
:101F18008F0000000000E6036203AF038D03A103F6
:101F28002D04564D4450565F317C315F564D445018
:101F3800560D0A00446F6E652073657474696E6788
:101F480020757021004C6F6F70696E67206D696C29
:101F58006C6973202575004C6F633A2025642C202A
:101F680077696474683A2025642C204C6F773A208E
:101F780025642C20486967683A20256400696E74D6
:101F8800656E73697479206F6E20256420697320EB
:041F980025640000BC
:00000001FF
